:020000040800F2
:1000000018120020714D0008A5030008B38F0008E6
:10001000A7030008AB030008AF03000800000000BE
:10002000000000000000000000000000B303000812
:10003000B5030008000000003B8F00082303000800
:100040008B4D00088B4D00088B4D00088B4D000830
:100050008B4D00088B4D00088B4D00088B4D000820
:100060008B4D00088B4D00088B4D00088B4D000810
:100070008B4D0008C50800088B4D000823080008B8
:10008000470800088B4D00088B4D0008B903000895
:10009000B70300088B4D00088B4D00088B4D0008FE
:1000A0008B4D00088B4D00088B4D00088B4D0008D0
:1000B0008B4D00088B4D00088B4D00088B4D0008C0
:1000C0008B4D00088B4D00088B4D00088B4D0008B0
:1000D0008B4D000811080008350800085908000871
:1000E0008B4D00088B4D00088B4D00088B4D000890
:1000F0008B4D00088B4D00088B4D00088B4D000880
:100100008B4D00088B4D00088B4D00088B4D00086F
:100110008B4D00088B4D00088B4D00088B4D00085F
:100120008B4D00088B4D00088B4D00088B4D00084F
:1001300000F002F800F05AF80AA090E8000C82449F
:100140008344AAF10107DA4501D100F04FF8AFF27C
:10015000090EBAE80F0013F0010F18BFFB1A43F0A5
:100160000103184768A9000088A900000A444FF05D
:10017000000C10F8013B13F0070408BF10F8014B06
:100180001D1108BF10F8015B641E05D010F8016B4B
:10019000641E01F8016BF9D113F0080F1EBF10F8AF
:1001A000014BAD1C0C1B09D16D1E58BF01F801CBD2
:1001B000FAD505E014F8016B01F8016B6D1EF9D555
:1001C0009142D6D37047000000230024002500266A
:1001D000103A28BF78C1FBD8520728BF30C148BFAA
:1001E0000B6070471FB51FBD10B510BD0AF049F870
:1001F0001146FFF7F7FF00F05AF80AF067F803B46A
:10020000FFF7F2FF03BC0AF06BF80000002804D0EF
:1002100090FAA0F0B0FA80F0401C704710B5044688
:1002200004F00EFE00F00DF901F0C2F800F0C4FE7B
:1002300001F0CEF910BD1CB5142008210B020022DC
:10024000CDE90010AFF22B0104A008F026F9044616
:1002500014B1204608F0CBF800201CBD696E69740B
:100260000000000004460D4614A006F054FF21468D
:100270001CA006F050FF29461FA006F04CFF00BF4F
:10028000FEE710B500F055F806F075FF1F4920484D
:1002900007F0FEF807F04EFE08F0B0FC08F0BAFCDC
:1002A000FFF7C9FF04F0D0FF07F060FE10BD10B5E6
:1002B00008F02CFEFFF7E5FF002010BD0A0D2057C7
:1002C000726F6E6720706172616D65746572207601
:1002D000616C7565206465746563746564206F6E18
:1002E0000D0A00002020202020202066696C652057
:1002F0002025730D0A000000202020202020206CE3
:10030000696E65202025640D0A0000000050002061
:100310001812002010B500214FF0006004F09FFC7F
:1003200010BD10B506F004FB04F051FD06F017FBFC
:1003300010BD70B5FFF7EEFF154800686422B0FBF2
:10034000F2F1481EB0F1807F00D319E0481E4FF053
:10035000E022506150170F22002806DA13010D4CDD
:1003600000F00F052D1F635502E013010A4C2354C2
:1003700000BF00204FF0E02290610720106100BF15
:1003800000F017FB05A006F03BFF04F04FFD70BD29
:100390007000002018ED00E000E400E07561727468
:1003A00031000000704700BFFEE700BFFEE700BF5E
:1003B000FEE77047704770477047000008B501219D
:1003C000102001F05CFD10208DF8030003208DF853
:1003D00002004FF40050ADF800006946254802F0D5
:1003E000B3FB4FF40051234802F0B6FD08BD10B531
:1003F00004462CB94FF400511E4802F0ADFD00E058
:1004000000BF00BF10BD10B504462CB94FF4005119
:10041000184802F076FD00E000BF00BF10BD0024C8
:10042000FFF7CCFF0CE0641C0020FFF7E0FF322058
:1004300008F086F90020FFF7E6FF322008F080F987
:10044000F1E71FB5052014214FF400720A4BCDE9E6
:100450000032CDE902100023084A09A1094807F03B
:100460006CFF044614B9074807F0C1FF204604B0EA
:1004700010BD000000100140C40100201F0400084E
:100480006C656400C40300207FB505460C4625B9A1
:100490004A22F649F6A006F01EFF24B94B22F34982
:1004A000F8A006F018FFEE6B20680090207900F0AD
:1004B0000F00082803D10020ADF8040008E02079DF
:1004C00000F00F00092803D14FF48050ADF804006C
:1004D0002079C0F3011018B90020ADF8060007E03C
:1004E0002079C0F30110012802D14003ADF80600C5
:1004F0002079C0F3811018B90020ADF8080011E090
:100500002079C0F38110012804D14FF4C060ADF808
:10051000080007E02079C0F38110022802D14002D0
:10052000ADF808000020ADF80C000C20ADF80A0072
:100530006946306803F01BF80121306803F05BF96D
:10054000002004B070BD70B58CB00546EC6BEE6C4D
:10055000A86CC0F38F216161012240F22441206820
:1005600003F076F90121084601F05EFC012102202A
:1005700001F05AFCA06803F081FE2068001D019084
:100580003068029000200390A86CC0F38F20049084
:1005900000200590802006900020079008902020E1
:1005A000099000020A9000200B9001A9A06803F0B6
:1005B0003CFFE06804F0E4F901220221A06804F0A5
:1005C00071F801224021206803F0EBF90121A068B5
:1005D00003F0FAFF207C8DF8000000208DF8010068
:1005E0008DF8020001208DF80300684604F0E7FA58
:1005F0000CB070BD2DE9F04105460E461746B846D1
:1006000025B97422A3499AA006F065FEEC6B032E6F
:100610002AD0102E13D0112E2DD194F9040000F001
:100620001F02012191409C4A430942F8231000BF58
:10063000002240F22551206803F00AF91BE094F9EA
:10064000040000F01F020121914042094FF0E02315
:1006500003EB8202C2F8001100BF012240F22551D3
:10066000206803F0F5F806E0B8F5007F02D12846CF
:10067000FFF769FF00BF00BF0020BDE8F08170B543
:1006800005460E4625B99522844979A006F023FE39
:10069000EC6B288B10F4806F16D02068008810F067
:1006A000800F08D1012240F22661206803F0D0F8C3
:1006B0004FF0FF3070BD20688680012240F2266135
:1006C000206803F0C5F807E02068868000BF206836
:1006D000008810F0400FFAD00120EBE770B5044617
:1006E00024B9B0226E4962A006F0F5FDE56B4FF02B
:1006F000FF362868008810F0200F02D02868808814
:10070000C6B2304670BD2DE9F0410546EC6B08F0ED
:10071000FDFB8046A06804F056F861690E1AA069D6
:10072000371AA661404608F0F5FB2FB1032040EAD6
:100730000721284609F0BFF8206803F074FAE06842
:1007400004F01EF9BDE8F0812DE9F0410546EC6B9F
:1007500008F0DCFB0746D4E905100E1A0021A16160
:10076000384608F0D7FB2EB1032040EA0621284680
:1007700009F0A1F8E06804F003F9BDE8F08170B574
:100780000546EC6B24B9F622464947A006F0A3FDC6
:1007900040F22551206803F08EFC68B101212068E9
:1007A00003F0FAFB18B90121284609F084F840F259
:1007B0002551206803F009FD40F22441206803F030
:1007C0007AFC10B12846FFF79EFF40F226612068B0
:1007D00003F071FC90B1288B10F4806F03D00221DC
:1007E000284609F068F8002240F22661206803F0EC
:1007F0002FF840F22661206803F0E7FC082120680A
:1008000003F0CAFB012802D12846FFF767FF70BD3D
:1008100010B506F08DF82848FFF7B1FF06F09FF8F5
:1008200010BD10B506F084F82348FFF78DFF06F0E1
:1008300096F810BD10B506F07BF82048FFF79FFF33
:1008400006F08DF810BD10B506F072F81B48FFF7E2
:100850007BFF06F084F810BD10B506F069F8184863
:10086000FFF78DFF06F07BF810BD000004A3000821
:1008700073657269616C20213D2052545F4E554C66
:100880004C00000063666720213D2052545F4E55A6
:100890004C4C000014A3000880E100E022A30008F3
:1008A0002DA3000838A300087561727420213D2033
:1008B00052545F4E554C4C004404002098040020D4
:1008C000EC04002010B506F033F86048FFF73CFF59
:1008D00006F045F810BD10B50121052001F0CFFA52
:1008E0000121880301F0CBFA0121052001F0C7FAAC
:1008F0000121480401F0ECFA0121092001F0BFFABE
:100900000121880401F0E4FA10BD08B502208DF839
:10091000020004208DF803000002ADF800006946D3
:100920004B4802F011F918208DF803004FF40070C5
:10093000ADF800006946464802F006F904208DF83B
:1009400003000820ADF800006946414802F0FCF8B9
:1009500018208DF803000420ADF8000069463C48DB
:1009600002F0F2F804208DF803004002ADF8000018
:100970006946384802F0E8F818208DF803004FF473
:100980008060ADF800006946324802F0DDF808BD2D
:1009900038B5044620798DF8000000208DF801005C
:1009A00001208DF802008DF80300684604F007F975
:1009B00038BD1CB5284903C9CDE90001FFF78BFFFD
:1009C000FFF7A3FF254C4FF4E13000902448254960
:1009D00008640846DDE90012C0E911122046FFF75D
:1009E000D7FF234640F203721FA11E4808F03AFFCA
:1009F0001F4C4FF4E130009019481E490864084626
:100A0000DDE90012C0E911122046FFF7C1FF2346BD
:100A100040F2037218A1174808F024FF184C4FF455
:100A2000E13000900E48094908640846DDE90012EB
:100A3000C0E911122046FFF7ABFF234640F20372D4
:100A400010A1024808F00EFF1CBD0000EC040020BD
:100A500000080140000C014044A3000800000020F1
:100A6000F0A2000844040020756172743100000097
:100A70001C00002098040020756172743200000090
:100A800038000020756172743300000000B587B033
:100A90000121082001F0F3F90121880301F018FA7F
:100AA000C020ADF8180010208DF81B0003208DF831
:100AB0001A0006A9FE4802F047F84FF48070ADF81E
:100AC000180028208DF81B0006A9F94802F03CF810
:100AD0004FF4E071F64802F03FFA4FF46040ADF891
:100AE000180018208DF81B0006A9F14802F02CF818
:100AF0004FF46041EE4802F004FA0020ADF8040023
:100B00004FF48270ADF806000020ADF80800ADF893
:100B10000A00ADF80C004FF40070ADF80E00102084
:100B2000ADF810000020ADF812000720ADF8140059
:100B300001A9E04801F0FCFA0121DE4801F08BFC3C
:100B40000020DD4908604FF00100DC49C1F89C013C
:100B500007B000BD70B50546002405E0601CC4B2B6
:100B6000C82C01DD002070BD0221D24801F0A9FE91
:100B70000028F3D02946CF4801F052FD002405E0BB
:100B8000601CC4B2C82C01DD0020ECE70121C9487B
:100B900001F097FE0028F3D0C64801F056FDC0B220
:100BA000E1E72DE9F04107460D4616460020C4490D
:100BB00008603846FFF7CEFF8046002405E0FF209E
:100BC000FFF7C8FF2855601CC4B2B442F7DB012010
:100BD000BB4908604046BDE8F0812DE9F041074679
:100BE0000C4615460020B64908603846FFF7B2FFAC
:100BF0008046002605E014F8010BFFF7ABFF701CE0
:100C0000C6B2AE42F7DB0120AD4908604046BDE800
:100C1000F08110B504466CB1082C0BD0102C09D013
:100C2000182C07D0202C05D0282C03D0302C01D034
:100C3000382C00D103E05521A2A0FFF713FB9D48FB
:100C400000884FF6C77108409A4908800846008816
:100C5000204308800121974801F0FDFB10BD1CB521
:100C60009DA103C9CDE900010820FFF7D2FF0522AD
:100C700069463020FFF7B1FF052269461020FFF7D3
:100C800090FF002406E01DF80400A52800D003E032
:100C9000601CC4B2052CF6DB00BF052C01D001207E
:100CA0001CBD0020FCE770B505460C4600208449B9
:100CB00008602846FFF74EFF06462046FFF74AFF2A
:100CC00001207E49C1F89C01304670BD70B50446D4
:100CD00000207B4908602046FFF73CFFFF20FFF71C
:100CE00039FF054601207549C1F89C01284670BDB1
:100CF00070B505460020704908604FF02002294673
:100D00004FF0A000FFF769FF01206C49C1F898017E
:100D100000BF734800680028FBD14FF00700FFF7C1
:100D2000D5FF044621462720FFF7BDFF14F0100F22
:100D300008D0FF21E120FFF7B6FF6AA006F0EBF92B
:100D4000102070BD14F0200F01D02020F9E7FF2003
:100D5000F7E770B504460720FFF7B8FF05462946B8
:100D60002720FFF7A0FF15F0400F0AD020222146D0
:100D70006120FFF716FFFF21E220FFF794FF00201C
:100D800070BD0120FCE710B500204B4908604FF012
:100D9000050259494FF02A00FFF71FFF01212120CA
:100DA000FFF781FF01212220FFF77DFF2821252069
:100DB000FFF779FF20213120FFF775FF0F21262053
:100DC000FFF771FF0F212020FFF76DFF01203B4946
:100DD000C1F8980110BD10B50020374908604FF0E8
:100DE000050246494FF03000FFF7F7FE0522424961
:100DF0002A20FFF7F2FE01212120FFF754FF0121F5
:100E00002220FFF750FF1A212420FFF74CFF282152
:100E10002520FFF748FF0F212620FFF744FF0E2172
:100E20002020FFF740FF01202449C1F8980110BDA0
:100E300010B500243248407932494979884210D0AF
:100E40002F48407930B1002000F0F1FB2EA006F0D1
:100E500062F905E0002000F005FC2FA006F05BF928
:100E600001242748807927498979884210D024486D
:100E7000807930B1012000F0DAFB2BA006F04BF9AD
:100E800005E0012000F0EEFB2BA006F044F9012460
:100E900064B100241A4840791A4948711848807989
:100EA000887117484079284948714FE056E00000A2
:100EB000000C01400038004098812142008021420E
:100EC0009C812142647269766572735C6E726632CF
:100ED000346C30312E630000A5A5A5A5A500000047
:100EE0002081214274785F6572726F722C206D616F
:100EF000785F74780D0A000051A300084CA3000825
:100F0000600500208005002072656C617930206FDB
:100F10006E210D0A0000000072656C617930206F4F
:100F20006666210D0A00000072656C617931206FE0
:100F30006E210D0A0000000072656C617931206F2E
:100F40006666210D0A0000004005002026488079D1
:100F5000887126A006F0DFF8012010BD0020FCE714
:100F600010B52148FFF7F5FEFFF762FF0446BCB15C
:100F700001202449C870FFF72EFF2248FFF7B8FE72
:100F80000446202C05D0052007F0DAFB1D48FFF7AA
:100F9000AFFE21461CA006F0BEF80024FFF7F3FECA
:100FA00010BDFFF773FDFFF7EEFE04E0FFF7D8FF7B
:100FB000052007F0C5FBF9E71FB5052014214FF404
:100FC0000072154BCDE90032CDE902100023134A1F
:100FD00013A1164807F0B1F9044614B9134807F0F5
:100FE00006FA204604B010BD60050020636F6E74E1
:100FF000726F6C2064617461206368616E67656400
:10100000210D0A004005002074785F7374617465D7
:101010003A202578200D0A00A0050020A30F000823
:101020006E726632346C303100000000A007002080
:1010300070B504460025002600BF1AE005EB450305
:10104000626802EBC302928991B205EB45036268C4
:1010500002EBC302906801F03CFE40B905EB45018C
:10106000606810F8311001208840304386B2681C57
:10107000C5B22078A842E1DC304670BD70B50546A7
:1010800000240026FD480078401CFC4908700846F2
:101090000078032804DB002008700120F84908705C
:1010A000F7480078012852D10020F54908702846F9
:1010B000FFF7BEFF0446F348007830B101280BD09B
:1010C000022819D0032841D138E024B1EE48048029
:1010D0000120EC49087039E0EB480088844207D1D0
:1010E0000220E8490870E848008840F4805602E091
:1010F0000020E449087029E0E348008884420AD0CF
:101100000020E0490870E1490880DF48008840F489
:101110000056304670BDDD480088401CDB49088021
:1011200008460088642808DB002008800320D54991
:10113000087044F400463046ECE707E0D2480088E7
:10114000844202D00020CF49087000BF00BF0020B9
:10115000E0E770B50546002400262846FFF78EFF1D
:10116000064606B970BD16F4005F1DD0002418E0D5
:1011700004EB4401686810F83110012088403042C7
:101180000DD004EB4401686800EBC100006930B188
:1011900004EB4402696801EBC20108698047601CE6
:1011A000C4B22878A042E3DC16F4004F1DD000241E
:1011B00018E004EB4401686810F831100120884001
:1011C00030420DD004EB4401686800EBC100406977
:1011D00030B104EB4402696801EBC2014869804701
:1011E000601CC4B22878A042E3DC00BFBAE710B5A7
:1011F0000446A748FFF7ADFF10BD08B50220012344
:101200000022A4490090A4A007F097FBA54908601C
:101210000846006818B10846006807F0C0FB08BD22
:101220002DE9F04387B007460C4615461E46DDE91A
:101230000E890294039504969B480078401C40B2A6
:1012400099490870C0B28DF80400CDF81480CDF82B
:10125000189096480078401C94490870182201A9FB
:10126000384608F0D9FF07B0BDE8F08338B504462A
:10127000002504B938BD8D480078207020780C28EE
:1012800001DD0C202070002522E005EB450261689D
:1012900001EBC2014868012100F0F1FD03208DF847
:1012A000020048208DF8030005EB4501606800EB63
:1012B000C100808980B2ADF8000005EB450261688D
:1012C00001EBC2018868694601F03EFC681CC5B2AA
:1012D0002078A842D9DCFFF790FF00BFCAE710B51D
:1012E00073A005F018FF10BD10B576A005F013FF30
:1012F00010BD10B578A005F00EFF0020FFF783F8B1
:1013000010BD10B579A005F006FF0020FFF76FF8BB
:1013100010BD10B57AA005F0FEFE2021834801F033
:101320004DFD30B1002000F09DF90020804948714A
:1013300005E0002000F07BF901207D49487110BDD7
:1013400010B57CA005F0E7FE10BD10B57EA005F03D
:10135000E2FE4FF48051874801F030FD30B10120AA
:1013600000F080F900207249887105E0012000F04A
:101370005EF901206E49887110BD10B57EA005F0A0
:10138000CAFE10BD10B581A005F0C5FE0821674852
:1013900001F014FD18B1022000F064F902E002200F
:1013A00000F045F910BD10B583A005F0B4FE10BDE6
:1013B00000B589B0AFF2CF00AFF2DD0101236D4A75
:1013C000CDE90010042103A8FFF72AFF182203A982
:1013D0007E4808F021FFAFF2D500AFF2E9014FF4EB
:1013E0008063524ACDE90010082103A8FFF718FFD7
:1013F000182203A97548183008F00EFFAFF2BF009D
:10140000AFF2F1014FF40063484ACDE90010082122
:1014100003A8FFF705FF182203A96C48303008F035
:10142000FBFEAFF2A900AFF2DD0102233F4ACDE996
:101430000010082103A8FFF7F3FE182203A9634850
:10144000483008F0E9FEAFF2A100AFF2C701012376
:10145000364ACDE90010082103A8FFF7E1FE182263
:1014600003A95A48603008F0D7FE58480849486038
:101470000846FFF7FBFE09B000BD00006800002031
:1014800055000020560000205A000020580000207F
:1014900060000020EF1100086B65795F74696D656D
:1014A000720000006C0000205C000020540000204E
:1014B0006B6579312073686F727420707265737315
:1014C000210D0A006B657931206C6F6E6720707298
:1014D000657373210D0A00006B6579322073686FA4
:1014E0007274207072657373210D0A006B65793216
:1014F000206C6F6E67207072657373210D0A000097
:101500006B6579332073686F7274207072657373C2
:101510002C2072656C617930206368616E6765208C
:101520007374617465210D0A00000000000C014015
:10153000600500206B657933206C6F6E67207072D8
:10154000657373210D0A00006B6579342073686F31
:1015500072742070726573732C2072656C617931BE
:10156000206368616E6765207374617465210D0A7C
:1015700000000000000801406B657934206C6F6E3C
:1015800067207072657373210D0A00006B657935F1
:101590002073686F72742070726573732C2072658B
:1015A0006C617932206368616E6765207374617461
:1015B00065210D0A000000006B657935206C6F6EA7
:1015C00067207072657373210D0A000020080020E7
:1015D00008B50121082000F052FC10208DF803000E
:1015E00003208DF802002020ADF8000069462B484A
:1015F00001F0AAFA4FF48050ADF80000694628487F
:1016000001F0A2FA0820ADF800006946234801F075
:101610009BFA2021214801F09FFC4FF48051204883
:1016200001F09AFC08211D4801F096FC08BD10B598
:10163000044624B1012C07D0022C10D10AE020214D
:10164000164801F05EFC0BE04FF48051144801F0A5
:1016500058FC05E00821114801F053FC00E000BFF0
:1016600000BF10BD10B5044624B1012C07D0022CD8
:1016700010D10AE02021094801F06EFC0BE04FF484
:101680008051074801F068FC05E00821034801F09B
:1016900063FC00E000BF00BF10BD0000000C014073
:1016A000000801400CB50020019000906B480068D4
:1016B00040F480306949086000BF6848006800F461
:1016C000003000900198401C0190009818B90198D2
:1016D000B0F5A06FF1D16148006810F4003F02D06E
:1016E0000120009001E0002000900098012842D1E4
:1016F0005B48006840F010005949086008460068DF
:1017000020F0030008600846006840F0020008600E
:101710005248406851494860084640684860084659
:10172000406840F4806048600846406820F47C10BF
:1017300048600846406840F4E81048600846006881
:1017400040F08070086000BF4448006810F0007FDF
:10175000FAD04248406820F00300404948600846FB
:10176000406840F00200486000BF3C48406800F01C
:101770000C000828F9D10CBD10B5FFF793FF10BD80
:1017800010B53648006840F001003449086008464A
:101790004068344908403149486008460068324989
:1017A00008402E4908600846006820F48020086040
:1017B0000846406820F4FE0048604FF41F0088602F
:1017C000FFF7DAFF4FF000602849086010BD10B540
:1017D000002100200022214B5B6803F00C0121B1A5
:1017E000042906D0082928D107E0214B214C236089
:1017F00027E01F4B1F4C236023E0184B5B6803F46A
:101800007010164B5B6803F48032022303EB9040A8
:1018100022B9194B4343174C23600DE00F4B5B6813
:1018200013F4003F04D0144B4343124C236003E0F5
:101830000F4B43430F4C236003E00D4B0D4C2360D3
:1018400000BF00BF054B5B68C3F303130B4CE15CA7
:10185000084B1B68CB40074C236010BD00100240B2
:10186000002002400000FFF8FFFFF6FE08ED00E058
:1018700000127A007000002000093D007400002072
:10188000FE48006840F00100FC49086008464068D6
:10189000FB490840F949486008460068F949084092
:1018A000F64908600846006820F480200860084671
:1018B000406820F4FE0048604FF41F0088607047C5
:1018C00010B504462CB1B4F5803F02D0B4F5802F9A
:1018D00000D104E040F21111EBA0FEF7C3FCE74891
:1018E000006820F48030E54908600846006820F46C
:1018F00080200860B4F5803F03D0B4F5802F0ED16E
:1019000006E0DE48006840F48030DC49086007E00B
:10191000DA48006840F4A020D849086000E000BF21
:1019200000BF10BD2DE9F041044600250026002728
:10193000212C13D0312C11D0392C0FD0412C0DD0AB
:10194000612C0BD07A2C09D07B2C07D07C2C05D0B5
:101950007D2C03D07E2C01D07F2C00D104E040F2FE
:101960003451C9A0FEF77EFC6511012D02D1C34898
:10197000066806E0022D02D1C048066A01E0BF48B1
:10198000466A04F01F050120A840304201D001271B
:1019900000E000273846BDE8F08138B5002000900F
:1019A0000024002500BF3120FFF7BCFF054600984A
:1019B000401C00900098B0F5A06F01D0002DF2D02F
:1019C0003120FFF7AFFF08B1012400E000242046DA
:1019D00038BD70B5044600251F2C00DC04E04FF430
:1019E000A971A9A0FEF73EFCA448056825F0F805FA
:1019F00045EAC405056070BD10B504460CB1012C64
:101A000000D104E040F265119FA0FEF72BFCAD4829
:101A1000046010BD70B505460C4600262DB1B5F525
:101A2000803F02D0B5F5403F00D104E040F27F1185
:101A300095A0FEF717FC4CB3B4F5802F26D0B4F573
:101A4000002F23D0B4F5402F20D0B4F5801F1DD037
:101A5000B4F5A01F1AD0B4F5C01F17D0B4F5E01F1D
:101A600014D0B4F5001F11D0B4F5101F0ED0B4F58A
:101A7000201F0BD0B4F5301F08D0B4F5401F05D09F
:101A8000B4F5501F02D0B4F5601F00D104E04FF44C
:101A9000C0717DA0FEF7E6FB7848466826F47C1608
:101AA00045EA040006437548466070BD10B504461B
:101AB0000CB1012C00D104E04FF4CA7172A0FEF702
:101AC000D1FB8048046610BD70B5044600251CB1EA
:101AD000012C01D0022C00D104E04FF40E716AA059
:101AE000FEF7C0FB6548456825F0030525434560C2
:101AF00070BD6248406800F00C00704770B5044645
:101B000000257CB1802C0DD0902C0BD0A02C09D0BE
:101B1000B02C07D0C02C05D0D02C03D0E02C01D0A5
:101B2000F02C00D104E04FF4197157A0FEF79AFB96
:101B30005248456825F0F0052543456070BD70B5F5
:101B4000044600255CB1B4F5806F08D0B4F5A06FF1
:101B500005D0B4F5C06F02D0B4F5E06F00D104E059
:101B600040F27E2148A0FEF77DFB4448456825F4FD
:101B7000E0652543456070BD70B5044600255CB145
:101B8000B4F5806F08D0B4F5A06F05D0B4F5C06F80
:101B900002D0B4F5E06F00D104E04FF426713AA012
:101BA000FEF760FB3548456825F4605545EAC405F5
:101BB000456070BD70B504460D4614F0E00F01D1CC
:101BC00004B104E040F2BF212FA0FEF74BFB0DB1A2
:101BD000012D00D104E04FF430712BA0FEF742FB41
:101BE0002DB12648407A20432449487204E0234816
:101BF000407AA0432149487270BD10B504460CB12B
:101C0000012C00D104E040F2DB211FA0FEF72AFBEB
:101C10002D48046010BD70B50446002544B1B4F5EC
:101C2000804F05D0B4F5004F02D0B4F5404F00D13D
:101C300004E040F2023114A0FEF714FB0F4845689F
:101C400025F440452543456070BD10B504461CB1E0
:101C5000012C01D0042C00D104E04FF450710AA0F3
:101C6000FEF700FB002019490870044981F82000A4
:101C7000012C2DD0042C33D12EE0000000100240A6
:101C80000000FFF8FFFFF6FE4C6962726172696541
:101C9000735C53544D3332463130785F5374645023
:101CA00065726970685F4472697665725C737263AD
:101CB0005C73746D3332663130785F7263632E63A8
:101CC0000000000000004242D800424220100240C2
:101CD0000120F449087004E00520F249087000E092
:101CE00000BF00BF10BD10B504460CB1012C00D1DF
:101CF00005E040F26131AFF27000FEF7B3FAEA4856
:101D0000046010BD10B50446B4F5807F05D0B4F56D
:101D1000007F02D0B4F5407F00D105E040F272317F
:101D2000AFF29C00FEF79EFADE482038006A20439E
:101D3000DC492039086210BD10B504460CB1012CF5
:101D400000D105E04FF46071AFF2C400FEF78AFAEB
:101D5000D5484438046010BD30B50021002200246D
:101D60000023D04D203D6D6805F00C0121B1042900
:101D700005D0082926D105E0CC4D056025E0CB4DE6
:101D8000056022E0C74D203D6D6805F47012C54D19
:101D9000203D6D6805F48034022505EB92421CB9A4
:101DA000C34D554305600CE0BE4D203D6D6815F4F4
:101DB000003F03D0BE4D5543056002E0BB4D554387
:101DC000056002E0B94D056000BF00BFB54D203D84
:101DD0006D6805F0F0010909B64D6B5C0568DD40E2
:101DE0004560B04D203D6D6805F4E061090AB14DD4
:101DF0006B5C4568DD408560AA4D203D6D6805F44B
:101E00006051C90AAB4D6B5C4568DD40C560A54DAE
:101E1000203D6D6805F44041890BA74D6B5CC5689A
:101E2000B5FBF3F5056130BD70B504460D4640F2D3
:101E3000575034EA000001D104B105E040F22B41D3
:101E4000AFF2BC10FEF70EFA0DB1012D00D105E086
:101E500040F22C41AFF2D010FEF704FA3DB19148A8
:101E60002038406920438F492039486106E08D4879
:101E700020384069A0438B492039486170BD70B556
:101E800004460D468D48044201D104B105E040F2FC
:101E90004A41AFF20C20FEF7E5F90DB1012D00D15A
:101EA00005E040F24B41AFF22020FEF7DBF93DB1F7
:101EB0007C482038806920437A492039886106E0CF
:101EC000784820388069A04376492039886170BD00
:101ED00070B504460D467A48044201D104B105E0CC
:101EE00040F26941AFF26020FEF7BCF90DB1012D5F
:101EF00000D105E040F26A41AFF27420FEF7B2F97A
:101F00003DB168482038C069204366492039C8611E
:101F100006E064482038C069A04362492039C8619E
:101F200070BD70B504460D466448044201D104B149
:101F300005E040F2A441AFF2B020FEF793F90DB1F5
:101F4000012D00D105E040F2A541AFF2C420FEF71B
:101F500089F93DB153482038C068204351492039A0
:101F6000C86006E04F482038C068A0434D4920397A
:101F7000C86070BD70B504460D465148044201D199
:101F800004B105E040F2C341AFF20430FEF76AF954
:101F90000DB1012D00D105E040F2C441AFF218307F
:101FA000FEF760F93DB13F482038006920433D49C4
:101FB0002039086106E03B4820380069A0433949D0
:101FC0002039086170BD10B504460CB1012C00D158
:101FD00005E04FF49B61AFF25030FEF743F9324811
:101FE0004038046010BD10B504460CB1012C00D17E
:101FF00005E040F2E541AFF27030FEF733F93148C9
:10200000C46410BD10B504463CB1052C05D0042CA9
:1020100003D0062C01D0072C00D105E040F2055179
:10202000AFF29C30FEF71EF91E482038C47110BD77
:102030001C482038406A40F080701A4920394862B4
:10204000704770B504460025012C09D0022C07D03A
:10205000042C05D0082C03D0102C01D0802C00D1EA
:1020600005E040F27E51AFF2E030FEF7FBF80D489C
:1020700020388068204201D0012500E00025284654
:1020800070BD10B5044614F0600F01D104B105E035
:1020900040F2AB51AFF21040FEF7E4F801482038AF
:1020A000847210BD201002408004424200127A0067
:1020B00000093D0084000020940000200200C0FFC1
:1020C000003601810000424210B50446FA488442BD
:1020D00005D0FA48844202D0F948844200D103E096
:1020E0007A21F8A0FEF7BEF8F348844208D1012116
:1020F0008014FFF716FF0021A014FFF712FF16E06F
:10210000EE48844208D101210014FFF733FF00217B
:102110002014FFF72FFF0AE0E948844207D101218C
:10212000C013FFF727FF0021E013FFF723FF10BDC7
:1021300070B505460C460026DF48854205D0DF48CD
:10214000854202D0DE48854200D103E0A321DDA014
:10215000FEF788F8208858B12088B0F5806F07D046
:102160002088B0F5004F03D02088B0F5404F00D153
:1021700003E0A621D3A0FEF775F86088B0F5827F52
:1021800001D0608800B903E0A721CEA0FEF76AF86D
:10219000A088B0F5006F01D0A08800B903E0A821A5
:1021A000C8A0FEF75FF8E08810B1E088022800D1EF
:1021B00003E0A921C3A0FEF755F8208910B12089BA
:1021C000012800D103E0AA21BEA0FEF74BF86089E8
:1021D000B0F5007F01D0608900B903E0AB21B9A060
:1021E000FEF740F8A089A0B1A089082811D0A089E5
:1021F00010280ED0A08918280BD0A089202808D03C
:10220000A089282805D0A089302802D0A0893828A4
:1022100000D103E0AC21ABA0FEF724F8E08910B1B7
:10222000E089802800D103E0AD21A6A0FEF71AF8CE
:10223000208A012800DB03E0AE21A2A0FEF712F8FD
:102240002E8806F44156208861880843A1880843F7
:10225000E18808432189084361890843A18908432B
:10226000E189084306432E80A88B4FF2FF71084096
:10227000A883208A288270BD2DE9F04F85B00546DD
:102280000C464FF0000902274FF000084FF0010BF9
:102290000026B2468948854202D08948854200D14D
:1022A00003E0E32187A0FDF7DDFF208858B12088F7
:1022B000B0F5807F07D02088B0F5007F03D020885C
:1022C000B0F5407F00D103E0E4217EA0FDF7CAFF16
:1022D000608858B16088102808D06088202805D010
:1022E0006088302802D06088B02800D103E0E52162
:1022F00074A0FDF7B7FFA08840B1A088012805D0E1
:10230000A088032802D0A088052800D103E0E62198
:102310006CA0FDF7A7FFE088B0F5007F01D0E08852
:1023200000B903E0E72167A0FDF79CFFA068B0F5C6
:10233000FA5F03D37249A068884202D9A0680228D4
:1023400000D103E0E8215FA0FDF78CFFA08910B168
:10235000A089082800D103E0E9215AA0FDF782FFF7
:10236000A88B4FF240010840A88302202884B5F8CA
:102370001C90A068022803D14FF00008022738E023
:10238000A08810B94FF0010B01E04FF0020B4B4851
:10239000854200D100E000BF6846FFF7DDFCDDF8B4
:1023A00000A0E088B0F5007F0AD14FEA1A2000EBC8
:1023B00080004000A168B0FBF1F0401D86B20BE048
:1023C0004FEA4B10BAFBF0F000EB80004000A16830
:1023D000B0FBF1F0401D86B20A20B6FBF0F606F025
:1023E0000108A6EB0800C0F34F074FF6FF7000EAA4
:1023F0000828022F01DBFF2F02DD02274FF0000823
:10240000E08840EA080038432884A088A18908436E
:10241000618808432188084340F4006040EA0909C4
:10242000A5F81C9005B0BDE8F08F00210180418027
:102430008180C180018141818181C1810721018227
:1024400070470021018041808180C180022181602C
:1024500000218181704770B504460D4616488442BC
:1024600005D01648844202D01548844200D104E0C9
:102470004FF4D77113A0FDF7F5FE0DB1012D00D17A
:1024800004E040F2AF110FA0FDF7ECFE25B120886B
:1024900040F04000208004E020884FF6BF710840E3
:1024A000208070BD70B504460D460448844202D0B9
:1024B0000348844226D12BE0003001400038004020
:1024C000003C00404C69627261726965735C5354F0
:1024D0004D3332463130785F5374645065726970A1
:1024E000685F4472697665725C7372635C73746D65
:1024F0003332663130785F7370692E6300000000FC
:1025000000EE02004FF4E371AFF24800FDF7AAFEBF
:102510000DB1012D00D105E040F2C711AFF25C0012
:10252000FDF7A0FE25B1A08B40F48060A08304E0FD
:10253000A08B4FF6FF310840A08370BD2DE9F0411C
:1025400004460D4616464FF000080027F648844220
:1025500005D0F648844202D0F548844200D105E017
:102560004FF4F371AFF2A400FDF77CFE0EB1012E23
:1025700000D105E040F2E711AFF2B800FDF772FEBE
:10258000712D03D0602D01D0502D00D105E04FF406
:10259000F471AFF2D000FDF765FE4FEA2518012077
:1025A00000FA08F087B21EB1A0883843A08002E08C
:1025B000A088B843A080BDE8F08170B504460D4600
:1025C0001646D948844205D0D848844202D0D8481B
:1025D000844200D105E04FF40371AFF21810FDF70B
:1025E00041FE0EB1012E00D105E040F20D21AFF207
:1025F0002C10FDF737FE4FF6FC70054201D105B1F6
:1026000005E040F20E21AFF24410FDF72BFE1EB1A3
:10261000A0882843A08002E0A088A843A08070BDC5
:1026200070B504460D46C048844205D0BF48844278
:1026300002D0BF48844200D105E040F22621AFF22B
:102640007C10FDF70FFEA58170BD10B50446B6489D
:10265000844205D0B548844202D0B548844200D1B6
:1026600005E040F23621AFF2A410FDF7FBFDA08992
:1026700010BD70B504460D46AB48844205D0AB484A
:10268000844202D0AA48844200D105E04FF412717E
:10269000AFF2D010FDF7E6FDB5F5807F03D0A5F5CC
:1026A0007E40FF3800D105E040F24921AFF2EC1046
:1026B000FDF7D8FDA5F57E40FF3804D0208840F412
:1026C0008070208004E020884FF6FF610840208061
:1026D00070BD70B504460D469348844205D09348BA
:1026E000844202D09248844200D105E04FF4187130
:1026F000AFF23020FDF7B6FD0DB1012D00D105E0A0
:1027000040F26121AFF24420FDF7ACFD25B1A08875
:1027100040F00400A08004E0A0884FF6FB71084060
:10272000A08070BD70B504460D467F48844205D038
:102730007E48844202D07E48844200D105E040F2C7
:102740007A21AFF28020FDF78DFDB5F5006F00D046
:1027500005B905E040F27B21AFF29820FDF782FD3C
:1027600020884FF2FF710840208020882843208075
:1027700070BD10B504466C48844205D06B48844255
:1027800002D06B48844200D105E040F28A21AFF2CA
:10279000CC20FDF767FD208840F48050208010BDDC
:1027A00070B504460D466048844205D05F488442B7
:1027B00002D05F48844200D105E040F29A21AFF296
:1027C000FC20FDF74FFD0DB1012D00D105E040F2D9
:1027D0009B21AFF21030FDF745FD25B1208840F474
:1027E0000050208004E020884DF6FF7108402080D2
:1027F00070BD70B504460D4600264B48844205D096
:102800004A48844202D04A48844200D105E040F25E
:10281000B521AFF25030FDF725FD0DB1012D00D1EE
:1028200005E040F2B621AFF26430FDF71BFD012D4B
:1028300001D0268B00E0A68A304670BD10B5044654
:102840003948844205D03948844202D0384884420D
:1028500000D105E040F2CD21AFF29830FDF702FD46
:10286000208A10BD70B504460D462F48844205D01D
:102870002E48844202D02E48844200D105E040F226
:10288000DF21AFF2C030FDF7EDFCA5F53F40FF388A
:1028900002D0B5F5804F00D105E04FF43871AFF2AA
:1028A000DC30FDF7DFFCB5F5804F04D1208840F423
:1028B0008040208004E020884BF6FF710840208093
:1028C00070BD70B505460C4600261748854205D0F8
:1028D0001648854202D01648854200D105E040F2F4
:1028E0000231AFF22040FDF7BDFC802C0DD0402C12
:1028F0000BD0202C09D0102C07D0082C05D0042C8C
:1029000003D0022C01D0012C00D105E040F20331AC
:10291000AFF25040FDF7A6FC2889204201D00126E5
:1029200000E00026304670BD003001400038004015
:10293000003C004070B504460D464348844205D033
:102940004248844202D04248844200D105E040F22D
:102950002731AFF29040FDF785FC102D00D105E046
:102960004FF44A71AFF2A440FDF77CFCE8432081AC
:1029700070BD2DE9F04705460C460027B8460026F5
:10298000B1463148854205D03048854202D03048B2
:10299000854200D105E040F24331AFF2D840FDF767
:1029A00061FC602C09D0712C07D0532C05D0542C1D
:1029B00003D0552C01D0562C00D105E04FF45171B5
:1029C000AFF20050FDF74EFC04F00F0101208840EB
:1029D0001FFA80F826110120B04086B2A88800EACC
:1029E0000609288910EA080F04D0B9F1000F01D0B8
:1029F000012700E000273846BDE8F08770B504469F
:102A00000D4600261048844205D01048844202D06A
:102A10000F48844200D105E040F27731AFF25C50BC
:102A2000FDF720FC542D00D105E04FF45E71AFF2AC
:102A30006C50FDF717FC05F00F010120884086B2AD
:102A4000F043208170BD000000300140003800409C
:102A5000003C004010B50446FC48844211D0FC48BC
:102A600084420ED0FB4884420BD0FB48844208D0FD
:102A7000FA48844205D0FA48844202D0F948844298
:102A800000D103E06F21F8A0FDF7ECFBEF48844292
:102A900008D101210420FFF744FA00210420FFF7A8
:102AA00040FA46E0EA48844208D101210820FFF7B5
:102AB00038FA00210820FFF734FA3AE0E54884426A
:102AC00008D101211020FFF72CFA00211020FFF778
:102AD00028FA2EE0E048844208D101212020FFF7A7
:102AE00020FA00212020FFF71CFA22E0DB48844274
:102AF00008D101214020FFF714FA00214020FFF700
:102B000010FA16E0D648844208D101218020FFF750
:102B100008FA00218020FFF704FA0AE0D148844235
:102B200007D101218015FFF7FCF90021A015FFF75F
:102B3000F8F910BD10B501210846FFF7F2F90021A0
:102B40000120FFF7EEF910BD2DE9F05F05460C46B8
:102B50004FF00009CA4600260027B046B346BB48DE
:102B6000854211D0BA4885420ED0BA4885420BD072
:102B7000B948854208D0B948854205D0B848854251
:102B800002D0B848854200D103E0B221B6A0FDF7DB
:102B900069FBE078A0B1E078042811D0E07828281B
:102BA0000ED0E07848280BD0E078142808D0E078E0
:102BB000102805D0E0781C2802D0E078182800D131
:102BC00003E0B321A8A0FDF74DFB002010B9208839
:102BD00000B103E0B421A4A0FDF744FBE07800F0CD
:102BE0000F09E07810F0100F10D0A078012805D060
:102BF000A078022802D0A078032800D103E0BB21EE
:102C000099A0FDF72FFBA07840EA0909207838B396
:102C1000D5F8008000261FE0012000FA06F7208882
:102C200000EA070ABA4516D1B7000F2000FA07FBE1
:102C300028EA0B0809FA07F040EA0808E078282893
:102C400003D10120B040686105E0E078482802D156
:102C50000120B0402861761C082EDDD3C5F8008025
:102C60002088FF282BDDD5F80480002623E006F11C
:102C70000800012101FA00F7208800EA070ABA4596
:102C800018D1B7000F2000FA07FB28EA0B0809FA51
:102C900007F040EA0808E078282803D106F1080088
:102CA00081406961E078482804D106F108000121DB
:102CB00081402961761C082ED9D3C5F80480BDE86F
:102CC000F09F4FF6FF710180022181700421C170D5
:102CD000704770B505460C4600265C48854211D009
:102CE0005B4885420ED05B4885420BD05A488542EE
:102CF00008D05A48854205D05948854202D05948E3
:102D0000854200D104E04FF48F7157A0FDF7AAFA75
:102D1000012C25D0022C23D0042C21D0082C1FD02C
:102D2000102C1DD0202C1BD0402C19D0802C17D05B
:102D3000B4F5807F14D0B4F5007F11D0B4F5806F66
:102D40000ED0B4F5006F0BD0B4F5805F08D0B4F5A9
:102D5000005F05D0B4F5804F02D0B4F5004F00D12C
:102D600004E040F21F1140A0FDF77CFAA868204261
:102D700001D0012600E00026304670BD10B50446A3
:102D80003248844211D0324884420ED031488442C5
:102D90000BD03148844208D03048844205D03048B6
:102DA000844202D02F48844200D104E04FF49A714B
:102DB0002DA0FDF757FAA06880B210BD70B505468A
:102DC0000C4600262148854211D0214885420ED06C
:102DD000204885420BD02048854208D01F488542B4
:102DE00005D01F48854202D01E48854200D104E02C
:102DF0004FF4A2711CA0FDF735FA012C25D0022C4E
:102E000023D0042C21D0082C1FD0102C1DD0202C16
:102E10001BD0402C19D0802C17D0B4F5807F14D053
:102E2000B4F5007F11D0B4F5806F0ED0B4F5006F0B
:102E30000BD0B4F5805F08D0B4F5005F05D0B4F5D1
:102E4000804F02D0B4F5004F2CD131E00008014092
:102E5000000C014000100140001401400018014026
:102E6000001C0140002001404C696272617269657A
:102E7000735C53544D3332463130785F5374645031
:102E800065726970685F4472697665725C737263BB
:102E90005C73746D3332663130785F6770696F2EA2
:102EA0006300000040F24511AFF24400FDF7DAF98B
:102EB000E868204201D0012600E00026304670BDBF
:102EC00010B50446FE48844211D0FE4884420ED01C
:102ED000FD4884420BD0FD48844208D0FC4884421F
:102EE00005D0FC48844202D0FB48844200D105E072
:102EF0004FF4AD71AFF29000FDF7B4F9E06880B225
:102F000010BD70B504460D46ED48844211D0ED4821
:102F100084420ED0EC4884420BD0EC48844208D066
:102F2000EB48844205D0EB48844202D0EA48844210
:102F300000D105E040F26911AFF2D400FDF792F93B
:102F4000002008B905B105E04FF4B571AFF2E80013
:102F5000FDF788F9256170BD70B504460D46D84867
:102F6000844211D0D74884420ED0D74884420BD037
:102F7000D648844208D0D648844205D0D5488442F9
:102F800002D0D548844200D105E040F27911AFF279
:102F90002810FDF767F9002008B905B105E04FF4E6
:102FA000BD71AFF23C10FDF75DF9656170BD70B5A4
:102FB00005460C461646C248854211D0C148854296
:102FC0000ED0C14885420BD0C048854208D0C048C9
:102FD000854205D0BF48854202D0BF48854200D116
:102FE00005E040F28D11AFF28010FDF73BF9012CA6
:102FF00025D0022C23D0042C21D0082C1FD0102C3B
:103000001DD0202C1BD0402C19D0802C17D0B4F50B
:10301000807F14D0B4F5007F11D0B4F5806F0ED04E
:10302000B4F5006F0BD0B4F5805F08D0B4F5005F45
:1030300005D0B4F5804F02D0B4F5004F00D105E0C3
:103040004FF4C771AFF2E010FDF70CF90EB1012E8D
:1030500000D105E040F28F11AFF2F410FDF702F954
:103060000EB12C6100E06C6170BD70B504460D4678
:103070009348844211D0934884420ED092488442AF
:103080000BD09248844208D09148844205D09148A0
:10309000844202D09048844200D105E04FF4D271BE
:1030A000AFF23C20FDF7DEF8E56070BD70B5044678
:1030B0000D464FF480368248844211D081488442C4
:1030C0000ED0814884420BD08048844208D080488A
:1030D000844205D07F48844202D07F48844200D198
:1030E00005E040F2B511AFF28020FDF7BBF80020FB
:1030F00008B905B105E04FF4DB71AFF29420FDF79C
:10310000B1F82E43A661A561A661A669A66970BD46
:1031100070B505460C4600263DB1012D05D0022DA7
:1031200003D0032D01D0042D00D105E04FF4E97147
:10313000AFF2CC20FDF796F8ECB1012C1BD0022C9D
:1031400019D0032C17D0042C15D0052C13D0062C25
:1031500011D0072C0FD0082C0DD0092C0BD00A2C25
:1031600009D00B2C07D00C2C05D00D2C03D00E2C25
:1031700001D00F2C00D105E040F2D311AFF218308E
:10318000FDF770F8554806684FF68070064046EA2D
:10319000051626435148066070BD10B504460CB1B3
:1031A000012C00D105E04FF4F371AFF24430FDF78C
:1031B00059F84B48C46110BD2DE9F04704460E464E
:1031C0000027B8460025A946012C77D0022C75D0DF
:1031D000042C73D0082C71D0A4F5A01010386DD039
:1031E00020386BD0A4F5B010403867D0803865D057
:1031F0003C48844262D03C4884425FD03B48844291
:103200005CD03B48844259D03A48844256D0B4F509
:10321000805F53D0B4F5EA1F50D0B4F5EB1F4DD00A
:10322000B4F5004F4AD03448844247D0A4F500108A
:10323000801E7CD0801E7AD0001F78D0083876D0CF
:10324000B4F1201F73D0303871D02C4884426ED036
:103250002B4884426BD02B48844268D02A48844251
:1032600065D02A48844262D0B4F5011F5FD0284857
:1032700084425CD0401C844259D0801C844256D089
:10328000001D844253D022480F3084424FD0204842
:103290001F3084424BD01E483F30844247D01C48E8
:1032A0007F30844243D01A48FF3084423FD01948CF
:1032B00084423CD01848844239D02FE037E00000E7
:1032C00000080140000C01400010014000140140C2
:1032D00000180140001C0140002001400000014096
:1032E000000020420001180000021800000318002E
:1032F00000081A00000C1A00010020000001300034
:1033000000023000000430000011200000202000E6
:1033100001000080000200800004008063488442B5
:1033200005D06348844202D06248844200D105E05F
:1033300040F22A21AFF2D040FCF794FF0EB1012EEB
:1033400000D105E040F22B21AFF2E440FCF78AFF08
:1033500004F00040B0F1004F02D15748C56901E0C8
:1033600055484568C4F30349A7B204F44010B0F5CA
:10337000401F08D125F070654F48406820F070600C
:103380004D49486013E004F48010B0F5801F07D168
:10339000032000FA09F825EA080545F0706506E003
:1033A000600D000107FA00F0854345F0706526B115
:1033B000600D010107FA01F0054304F00040B0F18F
:1033C000004F02D13C48C56101E03B484560BDE883
:1033D000F08770B505460C4600265DB1012D09D079
:1033E000022D07D0032D05D0042D03D0052D01D0CB
:1033F000062D00D105E040F26521AFF29450FCF7B4
:1034000031FFECB1012C1BD0022C19D0032C17D0AA
:10341000042C15D0052C13D0062C11D0072C0FD05E
:10342000082C0DD0092C0BD00A2C09D00B2C07D05E
:103430000C2C05D00D2C03D00E2C01D00F2C00D15C
:1034400005E040F26621AFF2E050FCF70BFFA00769
:10345000010F0F2000FA01F617480830A11050F8AC
:103460002100B04314490831A21041F82200084657
:10347000A11050F82100A107090F05FA01F1084336
:103480000D490831A21041F8220070BD10B5044664
:103490000CB1012C00D105E04FF41E71AFF2386081
:1034A000FCF7E0FE0548046010BD00000008008045
:1034B000001000800020008000000140DC0020425D
:1034C00010B50446FE4884420BD0FE48844208D022
:1034D000FD48844205D0FD48844202D0FC48844225
:1034E00000D103E08521FBA0FCF7BCFEF448844238
:1034F00009D101218803FEF714FD00214FF480401B
:10350000FEF70FFD32E0EF48844209D10121480463
:10351000FEF730FD00214FF40030FEF72BFD25E0D3
:10352000E948844209D101218804FEF723FD0021E6
:103530004FF48020FEF71EFD18E0E448844209D1D4
:103540000121C804FEF716FD00214FF40020FEF70C
:1035500011FD0BE0DE48844208D101210805FEF789
:1035600009FD00214FF48010FEF704FD10BD2DE988
:10357000F04786B005460C460026B24600BFB1466D
:103580000027CF4885420BD0CE48854208D0CE4890
:10359000854205D0CD48854202D0CD48854200D134
:1035A00003E0B821CBA0FCF75DFE206820B1D8492C
:1035B0002068884200D203E0B921C6A0FCF752FE81
:1035C000A08818B1A088B0F5805F00D103E0BA21CF
:1035D000C0A0FCF747FEE08858B1E088B0F5805FF6
:1035E00007D0E088B0F5005F03D0E088B0F5405F19
:1035F00000D103E0BB21B7A0FCF734FE208938B12D
:103600002089B0F5806F03D02089B0F5C06F00D15C
:1036100003E0BC21AFA0FCF725FE60894FF6F371F3
:10362000084202D1608900B103E0BD21A9A0FCF7E6
:1036300019FEA08958B1A089B0F5807F07D0A08974
:10364000B0F5007F03D0A089B0F5407F00D103E042
:10365000BE21A0A0FCF706FEA08968B1984885426B
:1036600005D09848854202D09748854200D103E0B2
:10367000C22198A0FCF7F6FD2F462E8A4CF6FF706B
:103680000640E08806432E82AE894EF6F3100640CF
:10369000A08821890843618908430643AE81AE8A28
:1036A0004FF6FF400640A0890643AE8201A8FEF710
:1036B00053FB8348874202D1DDF810A001E0DDF81A
:1036C0000CA0A88910F4004F08D00AEBCA0000EB48
:1036D0000A1021684900B0FBF1F807E00AEBCA00C4
:1036E00000EB0A1021688900B0FBF1F86420B8FBF8
:1036F000F0F006013009642101FB1089A88910F45B
:10370000004F08D0322000EBC900B0FBF1F000F010
:103710000700064308E0322000EB09106421B0FBEB
:10372000F1F000F00F0006432E8106B0BDE8F087EF
:103730004FF41651016000218180C18001810C216C
:10374000418100218181704770B505460C460026F5
:103750005B48854205D05B48854202D05A48854285
:1037600000D104E04FF499715AA0FCF77BFD20884A
:1037700018B12088B0F5006F00D104E040F2331199
:1037800054A0FCF76FFD608818B16088B0F5806FB9
:1037900000D104E04FF49A714EA0FCF763FDA088BD
:1037A00018B1A088B0F5007F00D104E040F23511D7
:1037B00048A0FCF757FDE08818B1E088B0F5807F9D
:1037C00000D104E04FF49B7142A0FCF74BFD2E8A20
:1037D0004FF2FF000640208861880843A188084313
:1037E000E188084306432E8270BD0021018041809C
:1037F0008180C180704770B504460D4630488442D0
:103800000BD03048844208D02F48844205D02F483E
:10381000844202D02E48844200D104E04FF4B171BA
:103820002CA0FCF71FFD0DB1012D00D104E040F2EA
:10383000631128A0FCF716FD25B1A08940F40050C3
:10384000A08104E0A0894DF6FF710840A08170BD01
:103850002DE9F04705460C4617464FF00008C246D2
:10386000C1460026164885420BD01648854208D02E
:103870001548854205D01548854202D01448854236
:1038800000D104E040F2891112A0FCF7EBFC282CD7
:1038900043D0A4F5E06027383FD0A4F5C0602638B7
:1038A0003BD0A4F5A060253837D0A4F5806024383B
:1038B00033D0A4F5006046382FD0B0F5927029E0DF
:1038C000003801400044004000480040004C0040E7
:1038D000005000404C69627261726965735C5354B8
:1038E0004D3332463130785F53746450657269707D
:1038F000685F4472697665725C7372635C73746D41
:103900003332663130785F75736172742E630000F4
:1039100021AA440001D0602C00D105E04FF4C5710C
:10392000AFF25000FCF79EFC0FB1012F00D105E073
:1039300040F28B11AFF26400FCF794FCA4F5106028
:103940006A380FD1F948854205D0F948854202D03E
:10395000F848854200D105E040F28F11AFF28C00AB
:10396000FCF780FC2E46C4F3421804F01F0A012025
:1039700000FA0AF9B8F1010F01D10C3605E0B8F1EF
:10398000020F01D1103600E0143627B1306840EA4A
:103990000900306003E0306820EA09003060BDE8CB
:1039A000F08770B504460D461646E04884420BD0B9
:1039B000DF48844208D0DF48844205D0DE48844294
:1039C00002D0DE48844200D105E040F2C311AFF2DC
:1039D000FC00FCF747FC4FF63F70054201D105B1F2
:1039E00005E04FF4E271AFF21410FCF73BFC0EB1AE
:1039F000012E00D105E040F2C511AFF22810FCF70E
:103A000031FC1EB1A08A2843A08202E0A08AA8430C
:103A1000A08270BD70B504460D46C44884420BD0E8
:103A2000C348844208D0C348844205D0C248844277
:103A300002D0C248844200D105E040F2DF11AFF26B
:103A40006C10FCF70FFC0F2D00DC05E04FF4F0715B
:103A5000AFF28010FCF706FC208A4FF6F0710840A8
:103A60002082208A2843208270BD70B504460D460E
:103A7000AE4884420BD0AE48844208D0AD48844260
:103A800005D0AD48844202D0AC48844200D105E064
:103A90004FF4FB71AFF2C410FCF7E4FB15B1B5F5C0
:103AA000006F00D105E040F2F711AFF2D810FCF73B
:103AB000D9FBA0894FF2FF710840A081A08928435B
:103AC000A08170BD70B504460D46984884420BD065
:103AD0009748844208D09748844205D0964884424B
:103AE00002D09648844200D105E040F20921AFF2AD
:103AF0001C20FCF7B7FB0DB1012D00D105E040F211
:103B00000A21AFF23020FCF7ADFB25B1A08940F0CF
:103B10000200A08104E0A0894FF6FD710840A08159
:103B200070BD70B504460D46804884420BD0804875
:103B3000844208D07F48844205D07F48844202D026
:103B40007E48844200D105E040F22621AFF27C207D
:103B5000FCF788FB0DB1202D00D105E040F22721B4
:103B6000AFF29020FCF77EFB208A4FF6DF71084011
:103B70002082208A2843208270BD70B504460D46FD
:103B80006A4884420BD06A48844208D0694884421B
:103B900005D06948844202D06848844200D105E0DB
:103BA00040F23921AFF2D420FCF75CFB0DB1012DBE
:103BB00000D105E040F23A21AFF2E820FCF752FBD9
:103BC00025B1208A40F48040208204E0208A4BF610
:103BD000FF710840208270BD70B504460D46534801
:103BE00084420BD05248844208D05248844205D0C7
:103BF0005148844202D05148844200D105E040F24D
:103C00005321AFF23030FCF72DFBB5F5007F00DA21
:103C100005E04FF41571AFF24430FCF723FBC5F318
:103C20000800A08070BD10B50446404884420BD007
:103C30003F48844208D03F48844205D03E488442F1
:103C400002D03E48844200D105E04FF41971AFF232
:103C50007C30FCF707FBA088C0F3080010BD10B54E
:103C60000446324884420BD03148844208D031485F
:103C7000844205D03048844202D03048844200D18A
:103C800005E04FF41D71AFF2B430FCF7EBFAA089F8
:103C900040F00100A08110BD70B504460D462348D8
:103CA000844205D02248844202D02248844200D176
:103CB00005E04FF42171AFF2E430FCF7D3FA208B2A
:103CC000C0B22083208B40EA0520208370BD70B5F0
:103CD00004460D46154884420BD01548844208D04E
:103CE0001448844205D01448844202D013488442C8
:103CF00000D105E04FF42671AFF22840FCF7B2FA8C
:103D0000208B00F47F402083208B2843208370BDCC
:103D100070B504460D460548844205D004488442E7
:103D200002D0044884420BD110E00000003801406A
:103D30000044004000480040004C0040005000405B
:103D400040F2AB21AFF27440FCF78CFA0DB1012DBB
:103D500000D105E04FF42B71AFF28840FCF782FAF6
:103D600025B1A08A40F02000A08204E0A08A4FF68E
:103D7000DF710840A08270BD70B504460D46F8485A
:103D8000844205D0F748844202D0F748844200D1EB
:103D900005E04FF43171AFF2C440FCF763FA0DB1A6
:103DA000012D00D105E040F2C521AFF2D840FCF76B
:103DB00059FA25B1A08A40F01000A08204E0A08A40
:103DC0004FF6EF710840A08270BD70B504460D46F5
:103DD000E34884420BD0E348844208D0E24884425E
:103DE00005D0E248844202D0E148844200D105E097
:103DF00040F2DE21AFF22450FCF734FA0DB1012D70
:103E000000D105E040F2DF21AFF23850FCF72AFA8A
:103E100025B1A08A40F00800A08204E0A08A4FF6F5
:103E2000F7710840A08270BD70B504460D46CC48BD
:103E300084420BD0CB48844208D0CB48844205D082
:103E4000CA48844202D0CA48844200D105E040F208
:103E5000FD21AFF28050FCF705FA0DB1012D00D124
:103E600005E040F2FE21AFF29450FCF7FBF925B1DA
:103E7000A08940F40040A08103E0A089C0F30E00B7
:103E8000A08170BD70B504460D46B54884420BD084
:103E9000B448844208D0B448844205D0B348844230
:103EA00002D0B348844200D105E04FF44671AFF22E
:103EB000DC50FCF7D7F90DB1012D00D105E040F23F
:103EC0001931AFF2F050FCF7CDF925B1A08A40F4DA
:103ED0000060A08204E0A08A4FF2FF710840A08237
:103EE00070BD70B504460D469D4884420BD09D4878
:103EF000844208D09C48844205D09C48844202D029
:103F00009B48844200D105E040F23531AFF23C607D
:103F1000FCF7A8F9042D00D005B905E040F23631D0
:103F2000AFF25060FCF79EF9A08A4FF6FB71084093
:103F3000A082A08A2843A08270BD70B504460D46B9
:103F4000874884420BD08748844208D08648844200
:103F500005D08648844202D08548844200D105E0DD
:103F60004FF45271AFF29460FCF77CF90DB1012D62
:103F700000D105E040F24931AFF2A860FCF772F9D8
:103F800025B1A08A40F00200A08204E0A08A4FF68A
:103F9000FD710840A08270BD70B505460C46002634
:103FA0006F4885420BD06F48854208D06E488542E5
:103FB00005D06E48854202D06D48854200D105E0AB
:103FC00040F26E31AFF2F460FCF74CF9012C13D0E3
:103FD000802C11D0402C0FD0202C0DD0102C0BD0C9
:103FE000B4F5807F08D0B4F5007F05D0082C03D04D
:103FF000042C01D0022C00D105E040F26F31AFF269
:104000002C70FCF72FF9B4F5007F0FD1544885428E
:1040100005D05448854202D05348854200D105E07E
:1040200040F27331AFF25470FCF71CF9288820423B
:1040300001D0012600E00026304670BD70B5044670
:104040000D46474884420BD04648844208D0464833
:10405000844205D04548844202D04548844200D17C
:1040600005E040F29E31AFF29470FCF7FBF84FF69A
:104070009F40054201D105B105E040F29F31AFF20A
:10408000AC70FCF7EFF805F40070B0F5007F0FD1CD
:104090003348844205D03348844202D032488442B7
:1040A00000D105E040F2A331AFF2D870FCF7DAF8A6
:1040B000E843208070BD2DE9F04705460C460027F7
:1040C0000026B046B146264885420BD02548854299
:1040D00008D02548854205D02448854202D024488E
:1040E000854200D105E040F2C131AFF61800FCF77F
:1040F000B9F8282C1FD0A4F5E06027381BD0A4F510
:10410000C060263817D0A4F5A060253813D0A4F5D8
:10411000806024380FD0A4F5006046380BD0B0F58D
:10412000927008D0B4F5587F05D0B4F5187F02D04E
:10413000B4F5B07F00D105E040F2C231AFF66C00BB
:10414000FCF790F8A4F510606A3819D1044885424C
:1041500005D00448854202D0034885420AD10FE0C9
:10416000003801400044004000480040004C00403E
:104170000050004040F2C631AFF6A800FCF772F8DC
:10418000C4F3421804F01F06012000FA06F6B8F145
:10419000010F02D1A889064007E0B8F1020F02D151
:1041A000288A064001E0A88A06402712012000FA6A
:1041B00007F7288807401EB117B14FF0010901E049
:1041C0004FF000094846BDE8F0872DE9F04104466C
:1041D0000D4600260027244884420BD02348844201
:1041E00008D02348844205D02248844202D0224885
:1041F000844200D105E040F20A41AFF62810FCF7F6
:1042000031F8A5F5C06026380AD0A5F5A06025389C
:1042100006D0A5F50060463802D0B0F5927000D106
:1042200005E040F20B41AFF65410FCF71BF8A5F582
:1042300010606A380FD10C48844205D00B48844284
:1042400002D00B48844200D105E040F20F41AFF6A6
:104250007C10FCF707F82E120120B04087B2F8431B
:104260002080BDE8F081000000380140004400409B
:1042700000480040004C00400050004010B504468B
:10428000F74884422AD0F6481430844226D0F448B5
:104290002830844222D0F2483C3084421ED0F0487C
:1042A000503084421AD0EE486430844216D0EC4834
:1042B0007830844212D0EB4884420FD0E948143061
:1042C00084420BD0E7482830844207D0E5483C3090
:1042D000844203D0E3485030844200D103E06F2190
:1042E000E1A0FBF7BFFF20684FF6FE710840206099
:1042F000002020606060A060E060D948844208D15E
:10430000D7480838406840F00F00D5490839486060
:104310008AE0D3481430844208D1D1480838406834
:1043200040F0F000CE49083948607DE0CC482830A4
:10433000844208D1CA480838406840F47060C849CF
:104340000839486070E0C6483C30844208D1C4480F
:104350000838406840F47040C1490839486063E05B
:10436000BF485030844208D1BD480838406840F406
:104370007020BB490839486056E0B948643084422F
:1043800008D1B7480838406840F47000B44908398B
:10439000486049E0B2487830844208D1B0480838D3
:1043A000406840F07060AE49083948603CE0AD4874
:1043B000844206D1001F006840F00F00211F0860F2
:1043C00032E0A8481430844208D1A648001F006893
:1043D00040F0F000A349091F086025E0A1482830FB
:1043E000844208D19F48001F006840F470609D49D6
:1043F000091F086018E09B483C30844208D1994866
:10440000001F006840F470409649091F08600BE0E7
:1044100094485030844207D19248001F006840F40D
:1044200070209049091F086010BD70B505460C4604
:1044300000268B4885422AD089481430854226D0F0
:1044400087482830854222D085483C3085421ED09E
:104450008348503085421AD081486430854216D056
:104460007F487830854212D07E4885420FD07D4803
:10447000143085420BD07B482830854207D07948DC
:104480003C30854203D077485030854200D103E06C
:10449000CF2175A0FBF7E6FEA068102801D0A06828
:1044A00000B903E0D02170A0FBF7DCFEE06820B18A
:1044B000E068B0F5803F00D203E0D1216AA0FBF7AD
:1044C000D1FE2069402801D0206900B903E0D22143
:1044D00065A0FBF7C7FE6069802801D0606900B95C
:1044E00003E0D32160A0FBF7BDFEA06938B1A0694D
:1044F000B0F5807F03D0A069B0F5007F00D103E064
:10450000D42159A0FBF7AEFEE06938B1E069B0F5FF
:10451000806F03D0E069B0F5006F00D103E0D521D2
:1045200051A0FBF79FFE206A202801D0206A00B925
:1045300003E0D6214CA0FBF795FE606AB0F5405F22
:1045400009D0606AB0F5005F05D0606AB0F5805FA1
:1045500001D0606A00B903E0D72143A0FBF782FED7
:10456000A06AB0F5804F01D0A06A00B903E0D8215D
:104570003DA0FBF777FE2E6847F6F0708643216A70
:10458000A06808432169084361690843A169084399
:10459000E1690843616A0843A16A084306432E6043
:1045A000E06868602068A8606068E86070BD00210D
:1045B000016041608160C160016141618161C161EF
:1045C000016241628162704770B504460D4624481D
:1045D00084422AD022481430844226D020482830F1
:1045E000844222D01E483C3084421ED01C485030A9
:1045F00084421AD01A486430844216D01848783061
:10460000844212D0174884420FD016481430844296
:104610000BD014482830844207D012483C308442E2
:1046200003D010485030844200D104E040F22911F8
:104630000DA0FBF717FE0DB1012D00D104E04FF4E2
:10464000957109A0FBF70EFE25B1206840F001002E
:10465000206004E020684FF6FE710840206070BDC5
:1046600008000240080402404C6962726172696588
:10467000735C53544D3332463130785F5374645019
:1046800065726970685F4472697665725C737263A3
:104690005C73746D3332663130785F646D612E63A4
:1046A0000000000070B504460D461646FE488442E0
:1046B0002AD0FD481430844226D0FB48283084425A
:1046C00022D0F9483C3084421ED0F7485030844212
:1046D0001AD0F5486430844216D0F34878308442CA
:1046E00012D0F24884420FD0F048143084420BD0EC
:1046F000EE482830844207D0EC483C30844203D056
:10470000EA485030844200D105E040F24911AFF24E
:10471000A800FBF7A7FD35F00E0001D105B105E0BB
:104720004FF4A571AFF2C000FBF79CFD0EB1012E56
:1047300000D105E040F24B11AFF2D400FBF792FD3F
:104740001EB120682843206002E02068A843206052
:1047500070BD70B504460D46D34884422AD0D24875
:104760001430844226D0D0482830844222D0CE480B
:104770003C3084421ED0CC48503084421AD0CA48C3
:104780006430844216D0C8487830844212D0C7487A
:1047900084420FD0C548143084420BD0C34828301F
:1047A000844207D0C1483C30844203D0BF485030D7
:1047B000844200D105E04FF4B271AFF25410FBF720
:1047C00051FD656070BD10B50446B74884422AD0DB
:1047D000B5481430844226D0B3482830844222D0D1
:1047E000B1483C3084421ED0AF48503084421AD089
:1047F000AD486430844216D0AB487830844212D041
:10480000AA4884420FD0A948143084420BD0A7484C
:104810002830844207D0A5483C30844203D0A348C6
:104820005030844200D105E04FF4BB71AFF2C810A4
:10483000FBF718FD606880B210BD70B50446002516
:104840000026012C7ED0022C7CD0042C7AD0082C9F
:104850007ED0102C7CD0202C7AD0402C78D0802C8C
:1048600076D0B4F5807F73D0B4F5007F70D0B4F506
:10487000806F6DD0B4F5006F6AD0B4F5805F67D0FB
:10488000B4F5005F64D0B4F5804F61D0B4F5004F4B
:104890005ED0B4F5803F5BD0B4F5003F58D0B4F59E
:1048A000802F55D0B4F5002F52D0B4F5801F4FD0D3
:1048B000B4F5001F4CD0B4F5800F49D0B4F5000F0B
:1048C00046D0B4F1807F43D0B4F1007F40D0B4F142
:1048D000806F3DD0B4F1006F3AD07548844237D034
:1048E000A4F18050801E33D0801E31D0001F2FD005
:1048F00008382DD010382BD0203829D0403827D078
:104900006B48FF30844223D06A48844220D06A48F2
:1049100084421DD0694884421AD0B4F1102F17D0B8
:104920004FEAF030844213D06548844210D0654885
:1049300084420DD0644884420AD06448844207D03F
:10494000634800E004E0844202D06248844200D11F
:1049500005E040F2B711AFF2F020FBF783FC14F052
:10496000805F03D051480838066802E04E48083896
:104970000668264201D0012500E00025284670BDCA
:1049800010B5044614F0704F02D05348044201D1D0
:1049900004B105E040F20E21AFF23430FBF762FCC7
:1049A00014F0805F03D04148001F046002E03E48DD
:1049B0000838446010BD70B5044600250026012C5F
:1049C00070D0022C6ED0042C6CD0082C6AD0102C25
:1049D00068D0202C66D0402C64D0802C62D0B4F5F6
:1049E000807F5FD0B4F5007F5CD0B4F5806F59D084
:1049F000B4F5006F56D0B4F5805F53D0B4F5005FC6
:104A00007FD0B4F5804F7CD0B4F5004F79D0B4F5A9
:104A1000803F76D0B4F5003F73D0B4F5802F70D0CE
:104A2000B4F5002F6DD0B4F5801F6AD0B4F5001F27
:104A300067D0B4F5800F64D0B4F5000F61D0B4F145
:104A4000807F5ED0B4F1007F5BD0B4F1806F58D02E
:104A5000B4F1006F55D01648844252D0A4F1805072
:104A6000801E4ED0801E4CD0001F4AD0083848D03F
:104A7000103846D0203844D0403842D00C48FF305F
:104A800084423ED00B4884423BD00B48844238D00D
:104A90000A48844235D0B4F1102F32D04FEAF030BA
:104AA00084421BE02DE000000800024008040240A0
:104AB00001000010000200100004001000080010A7
:104AC00000400010008000100000011000000210E3
:104AD00000000410000008100000F0EF11D0214881
:104AE00084420ED0204884420BD02048844208D013
:104AF0001F48844205D01F48844202D01E48844289
:104B000000D105E040F25921AFF2A440FBF7AAFB27
:104B100014F0805F02D01948066801E01848066862
:104B2000264201D0012500E00025284670BD10B5C1
:104B3000044614F0704F02D01248044201D104B16F
:104B400005E040F2AF21AFF2E040FBF78BFB14F041
:104B5000805F03D00948001D046001E008484460FC
:104B600010BD000000400010008000100000011087
:104B700000000210000004100000081000040240B1
:104B8000000002400000F0EF10B50446B4F5E06FFD
:104B90000BD0B4F5C06F08D0B4F5A06F05D0B4F554
:104BA000806F02D0B4F5407F00D103E063215EA0A6
:104BB000FBF758FB684820436849086010BD2DE9A1
:104BC000F0410446002500270F26E07810B1E07878
:104BD000012800D103E0752153A0FBF743FB607867
:104BE000102800DA03E076214FA0FBF73BFBA0780A
:104BF000102800DA03E077214BA0FBF733FBE078C5
:104C000008B35648006800F4E060C0F5E060050AAB
:104C1000C5F10407EE40607800FA07F5A07830404F
:104C200005432D014E4822788554207800F01F015D
:104C300001208840217849114FF0E02202EB8101E8
:104C4000C1F8000109E0207800F01F010120884030
:104C500044492278521141F82200BDE8F08170B534
:104C600004460D46B4F1005F02D0B4F1006F00D1EC
:104C700003E09F212CA0FBF7F5FA3B48854200D2C8
:104C800003E0A02128A0FBF7EDFA384905EA01006E
:104C900020433249091F086070BD70B504460D46B7
:104CA000102C03D0042C01D0022C00D103E0B2213F
:104CB0001DA0FBF7D7FA0DB1012D00D103E0B32100
:104CC00019A0FBF7CFFA3DB12448001D006820432E
:104CD0002249091D086006E02048001D0068A04325
:104CE0001E49091D086070BD10B50446042C01D092
:104CF000601D00D103E0CA210BA0FBF7B3FA042C1E
:104D000008D14FF0E020006940F004004FF0E021AE
:104D1000086107E04FF0E020006920F004004FF048
:104D2000E021086110BD00004C6962726172696522
:104D3000735C53544D3332463130785F5374645052
:104D400065726970685F4472697665725C737263DC
:104D50005C6D6973632E63000000FA050CED00E0E2
:104D600000E400E080E100E0FFFF0F0080FFFF1F94
:104D70000948804709480047FEE7FEE7FEE7FEE7EF
:104D8000FEE7FEE7FEE7FEE7FEE7FEE7044805492B
:104D9000054A064B704700008117000831010008E2
:104DA000180C002018120020180E0020180E0020E9
:104DB000704719480068704770B5044604F0A6F8BB
:104DC000054615480460284604F0A4F870BD10B5E7
:104DD00011480068401C1049086003F0D3FA0446EB
:104DE000A06C401EA064A06C18B9606CA06403F0B5
:104DF000A1FB03F0B4FE10BD0146002902DA4FF01A
:104E0000FF3007E064224A4302F2E7324FF47A733C
:104E100092FBF3F0704700009800002000207047DC
:104E200000207047002070470020704710B5094CE3
:104E300002E020688047241D07488442F9D310BD52
:104E400010B5054C02E020688047241D03488442C9
:104E5000F9D310BDC0AA0008C4AA0008C8AA000857
:104E60002DE9F041064603F08DFA08B103F035F95B
:104E7000A74D6C6810E0A4F10C07082231463846B3
:104E800001F0ABFE38B903F07DFA08B103F033F955
:104E90003846BDE8F0812468281D8442EBD103F038
:104EA00071FA08B103F027F90020F2E770B5044663
:104EB0000D46164614B94FF0FF3070BD2846FFF777
:104EC000CFFF10B14FF0FF30F7E72A460721204609
:104ED00002F0B9FEE6820020A076208300BFECE756
:104EE00010B5044624B94D228A498BA002F0F3F98B
:104EF000204602F0CEFE002010BD0020704770B5A5
:104F00000446002524B99A22874983A002F0E3F9D8
:104F1000606A90B1A07D10F0100F0ED12046616A3A
:104F2000884705462DB12A46214680A002F0F3F8B5
:104F300003E0E08A40F01000E082284670BD70B5C2
:104F400004460E46002524B9BD22864972A002F00F
:104F5000C2F9A07D10F0100F11D1606A58B120463F
:104F6000616A8847054635B12A4621466FA002F09E
:104F7000D2F8284670BDE08A40F01000E082A07DA3
:104F800010F0080F06D0207E10F0080F02D06FF04E
:104F90000600EFE7A06A28B131462046A26A904792
:104FA000054603E040F60F70304020830DB1A81D88
:104FB0000DD1208B40F008002083A07E401CA076FD
:104FC000A07E20B9EB22674967A002F084F9284649
:104FD000D0E770B50446002524B9FD2267494EA0EC
:104FE00002F079F9A07E10B94FF0FF3070BDA07EBD
:104FF000401EA076A07E08B10020F7E7E06A18B155
:105000002046E16A884705460DB1A81D01D1002060
:1050100020832846EAE72DE9F04104460D4616466E
:105020001F462CB94FF4937255493BA002F053F937
:10503000A07E30B94FF0FF3001F0C2FC0020BDE887
:10504000F081206B38B13B46324629462046D4F8E1
:1050500030C0E047F3E76FF0050001F0B1FC00203D
:10506000EDE72DE9F04104460D4616461F462CB9E2
:105070004FF4A672434928A002F02DF9A07E30B962
:105080004FF0FF3001F09CFC0020BDE8F081606B28
:1050900038B13B46324629462046D4F834C0E04772
:1050A000F3E76FF0050001F08BFC0020EDE770B531
:1050B00004460D4616462CB94FF4B672324916A076
:1050C00002F009F9A06B28B1324629462046A36BAD
:1050D000984770BD6FF00500FBE770B504460D46BC
:1050E0002CB940F2851229490BA002F0F4F8E561D1
:1050F000002070BD70B504460D462CB94FF4CD723A
:10510000234905A002F0E7F82562002070BD0000E9
:105110004801002056A3000864657620213D2052F6
:10512000545F4E554C4C00006BA30008546F20692F
:105130006E697469616C697A652064657669636516
:105140003A2573206661696C65642E205468652079
:105150006572726F7220636F6465206973202564C5
:105160000A0000007AA300086465762D3E72656629
:105170005F636F756E7420213D20300089A30008A5
:1051800099A30008A8A30008B8A30008CAA30008B0
:10519000E4A300083B490860704770B544E000BFD5
:1051A00003F0B4FE064601F0F1FB40B1364937A0EA
:1051B00001F0B1FF652234493DA002F08CF8304681
:1051C00003F0A8FE00BF03F0A1FE054600F051F871
:1051D000E0B138480068A0F1140404F11400D0E9EB
:1051E00000215160D0E9001211604060006000BFF2
:1051F000A06F10B12046A16F8847204602F0D1FD74
:10520000012807D1284603F085FE70BD284603F02B
:1052100081FEFAE7284603F07DFEA06A02F0A3FAB9
:10522000204602F094FD00BF00F023F80028B6D11C
:1052300000BFEAE707E01348006810B111480068B2
:105240008047FFF7AAFFF6E71FB520201F21C20005
:10525000194BCDE90032CDE902100023174A18A1FD
:10526000194803F06AF8184803F0C1F81FBD164842
:10527000704710490868884201D00120704700201B
:10528000FCE700009C000020FEA3000846756E634A
:1052900074696F6E5B25735D207368616C6C206E42
:1052A0006F74207573656420696E204953520A003B
:1052B000300000008C010020180900203552000841
:1052C0007469646C650000009808002042681160F1
:1052D00042684A604160086070472DE9F041054628
:1052E0000C469046204603F053F9B8F1000F03D066
:1052F000B8F1010F23D105E004F114012846FFF7AE
:10530000E5FF1CE02E680FE0A6F1140794F83500C5
:1053100097F83510884206DA04F1140107F11400F9
:10532000FFF7D4FF02E03668AE42EDD100BFAE42D7
:1053300004D104F114012846FFF7C8FF00BF00BFE5
:105340000020BDE8F08170B505460EE003F0DEFDFB
:1053500006462868A0F114044FF0FF302063204671
:1053600003F013F8304603F0D5FD284601F0B2FAF9
:105370000028EBD0002070BD2DE9F04104460D4619
:1053800016461F4624B9D822FD49FEA001F0A3FF0E
:105390002A460121204602F056FC204601F0A2FADE
:1053A000A68367720020BDE8F08110B5044624B9D9
:1053B000F522F849F3A001F08EFF04F11400FFF785
:1053C000C2FF204602F065FC002010BD2DE9F0412F
:1053D00005460E46174600BF03F098FD804601F0D3
:1053E000D5FA48B1EC49EDA001F095FE40F211125A
:1053F000E949F3A001F06FFF404603F08BFD00BFC9
:105400002946012002F061FC044614B92046BDE89B
:10541000F081204601F066FAA68367722046F6E71F
:1054200070B5044600BF03F071FD054601F0AEFA09
:1054300048B1E449D9A001F06EFE4FF49872E149F9
:10544000DFA001F048FF284603F064FD00BF2CB93F
:105450004FF49972DB49CBA001F03DFF04F1140039
:10546000FFF771FF204602F072FC002070BD2DE9AD
:10547000F34105462DB940F24D12D349C1A001F0C8
:105480002AFF00BFD148006818B12846CF490968F3
:10549000884700BF03F03AFD064600BF00BFA88B57
:1054A000002806DDA88B401EA883304603F032FD9D
:1054B00057E0019830B9304603F02CFD6FF0010041
:1054C000BDE8FC8100BF03F021FD074602F05AFF52
:1054D00048B9BD49BEA001F01EFE40F26D12BA49A6
:1054E000B7A001F0F8FE00BF03F010FD804601F008
:1054F0004DFA48B1B449A9A001F00DFE40F26D1279
:10550000B149AFA001F0E7FE404603F003FD00BF44
:10551000384603F0FFFC00BF02F034FF04460020D1
:10552000206300BF00BF6A7A214605F11400FFF72F
:10553000D4FE019800280BDD00BF00BF01AA0021A6
:1055400004F14C0003F0E5FA04F14C0003F027FAF3
:10555000304603F0DFFC02F01BFD206B08B1206B2E
:10556000AEE700BFA848006818B12846A6490968F8
:10557000884700BF0020A3E710B50446002120465D
:10558000FFF775FF10BD70B5044600BF9F48006867
:1055900018B120469D490968884700BF002503F0DF
:1055A000B5FC064600BF00BF04F1140001F092F9FB
:1055B00028B904F1140001F09DF9012502E0A08B47
:1055C000401CA083304603F0A5FC012D01D102F060
:1055D000DFFC002070BD2DE9F04104460E46154663
:1055E0002CB94FF4F2728A4966A001F074FE012EC4
:1055F00010D12F4603F08AFC804604F11400FFF717
:10560000A2FEA783404603F085FC02F0C1FC002007
:10561000BDE8F0814FF0FF30FAE770B504460D4663
:1056200016462CB940F20F227A497BA001F053FEB6
:105630002A460221204602F006FB204601F052F9DC
:105640000120A08300202062FF20A0770020E077C7
:10565000667270BD10B504462CB940F22E22734913
:105660006DA001F038FE04F11400FFF76CFE204637
:1056700002F00FFB002010BD2DE9F04105460E465B
:1056800000BF03F043FC074601F080F948B16849C8
:1056900042A001F040FD40F24922654948A001F0D6
:1056A0001AFE384603F036FC00BF2946022002F0FD
:1056B0000CFB044614B92046BDE8F081204601F0F9
:1056C00011F90120A08300202062FF20A077002094
:1056D000E07766722046EFE770B5044600BF03F03E
:1056E00015FC054601F052F948B152492BA001F0D2
:1056F00012FD40F26A224F4931A001F0ECFD28462C
:1057000003F008FC00BF2CB94FF41B72494942A0BA
:1057100001F0E1FD04F11400FFF715FE204602F050
:1057200016FB002070BD2DE9F341044600BF03F0D5
:10573000EDFB074602F026FE48B93F4924A001F0E0
:10574000EAFC4FF422723C491DA001F0C4FD00BFE9
:1057500003F0DCFB804601F019F948B136490FA08F
:1057600001F0D9FC4FF42272334915A001F0B3FDCA
:10577000404603F0CFFB00BF384603F0CBFB5DE0B3
:1057800014A4000873656D20213D2052545F4E55CE
:105790004C4C000020A400082EA4000846756E633F
:1057A00074696F6E5B25735D207368616C6C206E2D
:1057B0006F74207573656420696E204953520A0026
:1057C000300000003CA400084AA40008700100203A
:1057D00046756E6374696F6E5B25735D20736861D7
:1057E0006C6C206E6F742062652075736564206236
:1057F00065666F7265207363686564756C65722099
:1058000073746172740A0000740100207801002032
:1058100056A4000865A400086D7574657820213DC4
:105820002052545F4E554C4C0000000073A40008F9
:1058300083A4000893A40008A3A4000800BF34B9FF
:1058400040F28A22F749AFF2300001F044FD02F045
:1058500099FD054603F05AFB064600BFF248006872
:1058600018B12046F0490968884700BF00BF00BF53
:1058700000202863206AA84203D1E07F401CE07723
:105880004EE000BFA08B00280ADDA08B401EA08345
:10589000256295F83500A077E07F401CE0773FE077
:1058A000019848B96FF001002863304603F032FBDD
:1058B0006FF00100BDE8FC8100BF00BF95F8350026
:1058C000216A91F83510884205DA05F13502022186
:1058D000206A02F03BFF627A294604F11400FFF7C8
:1058E000FCFC019800280BDD00BF00BF01AA0021CD
:1058F00005F14C0003F00DF905F14C0003F04FF8F1
:10590000304603F007FB02F043FB286B28B1286BFD
:10591000093000D1B6E7286BCCE703F0F7FA06466A
:10592000304603F0F7FA00BFC048006818B12046BF
:10593000BE490968884700BF0020BBE72DE9F04752
:105940000446002600BF03F0E1FA804602F01AFD8B
:1059500058B9B749AFF2881001F0DDFB40F21132BF
:10596000B349AFF2A41001F0B6FC00BF03F0CEFAC9
:10597000814601F00BF858B1AD49AFF2E01001F0EB
:10598000CAFB40F21132AA49AFF2CC1001F0A3FCDD
:10599000484603F0BFFA00BF404603F0BBFA00BF21
:1059A00002F0F0FC054603F0B1FA074600BF00BF65
:1059B00000BFA048006818B120469E490968884782
:1059C00000BF206AA84209D04FF0FF302863384654
:1059D00003F0A0FA4FF0FF30BDE8F087E07F401EF3
:1059E000E077E07F08BBA07F216A91F835108842FC
:1059F00005D004F11E020221206A02F0A7FE04F184
:105A0000140000F067FF88B96069A0F1140500BFB9
:105A100000BF256295F83500A077E07F401CE07755
:105A200004F1140000F066FF012606E0A08B401C84
:105A3000A08300202062FF20A077384603F06AFA96
:105A4000012E01D102F0A4FA0020C5E703464FF071
:105A5000FF30704770B504460D4616462CB940F22B
:105A60007F32754975A001F036FC2A460321204695
:105A700002F0E9F86672204600F034FF0020E06191
:105A800070BD10B504462CB940F29B3270496BA032
:105A900001F021FC04F11400FFF755FC204602F050
:105AA000F8F8002010BD2DE9F04105460E4600BF74
:105AB00003F02CFA074600F069FF58B16549AFF2D0
:105AC000243001F028FB4FF46D726249AFF21030C0
:105AD00001F001FC384603F01DFA00BF29460320FF
