:020000040800F2
:1000000018120020BD4D0008B5030008FF8F00083E
:10001000B7030008BB030008BF030008000000008E
:10002000000000000000000000000000C303000802
:10003000C503000800000000878F00083303000894
:10004000D74D0008D74D0008D74D0008D74D000800
:10005000D74D0008D74D0008D74D0008D74D0008F0
:10006000D74D0008D74D0008D74D0008D74D0008E0
:10007000D74D0008D5080008D74D00083308000800
:1000800057080008D74D0008D74D0008C9030008DD
:10009000C7030008D74D0008D74D0008D74D00080A
:1000A000D74D0008D74D0008D74D0008D74D0008A0
:1000B000D74D0008D74D0008D74D0008D74D000890
:1000C000D74D0008D74D0008D74D0008D74D000880
:1000D000D74D0008210800084508000869080008F5
:1000E000D74D0008D74D0008D74D0008D74D000860
:1000F000D74D0008D74D0008D74D0008D74D000850
:10010000D74D0008D74D0008D74D0008D74D00083F
:10011000D74D0008D74D0008D74D0008D74D00082F
:10012000D74D0008D74D0008D74D0008D74D00081F
:1001300000F002F800F05AF80AA090E8000C82449F
:100140008344AAF10107DA4501D100F04FF8AFF27C
:10015000090EBAE80F0013F0010F18BFFB1A43F0A5
:1001600001031847B4A90000D4A900000A444FF0C5
:10017000000C10F8013B13F0070408BF10F8014B06
:100180001D1108BF10F8015B641E05D010F8016B4B
:10019000641E01F8016BF9D113F0080F1EBF10F8AF
:1001A000014BAD1C0C1B09D16D1E58BF01F801CBD2
:1001B000FAD505E014F8016B01F8016B6D1EF9D555
:1001C0009142D6D37047000000230024002500266A
:1001D000103A28BF78C1FBD8520728BF30C148BFAA
:1001E0000B6070471FB51FBD10B510BD0AF06FF84A
:1001F0001146FFF7F7FF00F062F80AF08DF803B43C
:10020000FFF7F2FF03BC0AF091F80000002804D0C9
:1002100090FAA0F0B0FA80F0401C704710B5044688
:1002200004F034FE00F015F900F0CEFE01F0FCF908
:1002300001F0DDF810BD1CB54FF400510A4802F082
:10024000B1FE142008210B020022CDE90010AFF20C
:10025000330106A008F047F9044614B1204608F01F
:10026000ECF800201CBD000000100140696E6974AC
:100270000000000004460D4614A006F072FF21465F
:100280001CA006F06EFF29461FA006F06AFF00BF03
:10029000FEE710B500F055F806F093FF1F4920481F
:1002A00007F01CF907F06CFE08F0CEFC08F0D8FC53
:1002B000FFF7C1FF04F0EEFF07F07EFE10BD10B5A2
:1002C00008F04AFEFFF7E5FF002010BD0A0D205799
:1002D000726F6E6720706172616D657465722076F1
:1002E000616C7565206465746563746564206F6E08
:1002F0000D0A00002020202020202066696C652047
:100300002025730D0A000000202020202020206CD2
:10031000696E65202025640D0A0000000050002051
:100320001812002010B500214FF0006004F0BDFC51
:1003300010BD10B506F022FB04F06FFD06F035FB92
:1003400010BD70B5FFF7EEFF154800686422B0FBE2
:10035000F2F1481EB0F1807F00D319E0481E4FF043
:10036000E022506150170F22002806DA13010D4CCD
:1003700000F00F052D1F635502E013010A4C2354B2
:1003800000BF00204FF0E02290610720106100BF05
:1003900000F017FB05A006F059FF04F06DFD70BDDD
:1003A0007000002018ED00E000E400E07561727458
:1003B00031000000704700BFFEE700BFFEE700BF4E
:1003C000FEE77047704770477047000008B501218D
:1003D000102001F07AFD10208DF8030003208DF825
:1003E00002004FF40050ADF800006946254802F0C5
:1003F000D1FB4FF40051234802F0D4FD08BD10B5E5
:1004000004462CB94FF400511E4802F0CBFD00E029
:1004100000BF00BF10BD10B504462CB94FF4005109
:10042000184802F094FD00E000BF00BF10BD00249A
:10043000FFF7CCFF0CE0641C0020FFF7E0FF322048
:1004400008F0A4F90020FFF7E6FF322008F09EF93B
:10045000F1E71FB5052014214FF400720A4BCDE9D6
:100460000032CDE902100023084A09A1094807F02B
:100470008AFF044614B9074807F0DFFF204604B09E
:1004800010BD000000100140C40100202F0400082E
:100490006C656400C40300207FB505460C4625B991
:1004A0004A22F649F6A006F03CFF24B94B22F34954
:1004B000F8A006F036FFEE6B20680090207900F07F
:1004C0000F00082803D10020ADF8040008E02079CF
:1004D00000F00F00092803D14FF48050ADF804005C
:1004E0002079C0F3011018B90020ADF8060007E02C
:1004F0002079C0F30110012802D14003ADF80600B5
:100500002079C0F3811018B90020ADF8080011E07F
:100510002079C0F38110012804D14FF4C060ADF8F8
:10052000080007E02079C0F38110022802D14002C0
:10053000ADF808000020ADF80C000C20ADF80A0062
:100540006946306803F039F80121306803F079F921
:10055000002004B070BD70B58CB00546EC6BEE6C3D
:10056000A86CC0F38F216161012240F22441206810
:1005700003F094F90121084601F07CFC01210220DE
:1005800001F078FCA06803F09FFE2068001D019038
:100590003068029000200390A86CC0F38F20049074
:1005A00000200590802006900020079008902020D1
:1005B000099000020A9000200B9001A9A06803F0A6
:1005C0005AFFE06804F002FA01220221A06804F058
:1005D0008FF801224021206803F009FA0121A06868
:1005E00004F018F8207C8DF8000000208DF8010040
:1005F0008DF8020001208DF80300684604F005FB29
:100600000CB070BD2DE9F04105460E461746B846C0
:1006100025B97422A3499AA006F083FEEC6B032E41
:100620002AD0102E13D0112E2DD194F9040000F0F1
:100630001F02012191409C4A430942F8231000BF48
:10064000002240F22551206803F028F91BE094F9BC
:10065000040000F01F020121914042094FF0E02305
:1006600003EB8202C2F8001100BF012240F22551C3
:10067000206803F013F906E0B8F5007F02D12846A0
:10068000FFF769FF00BF00BF0020BDE8F08170B533
:1006900005460E4625B99522844979A006F041FE0B
:1006A000EC6B288B10F4806F16D02068008810F057
:1006B000800F08D1012240F22661206803F0EEF895
:1006C0004FF0FF3070BD20688680012240F2266125
:1006D000206803F0E3F807E02068868000BF206808
:1006E000008810F0400FFAD00120EBE770B5044607
:1006F00024B9B0226E4962A006F013FEE56B4FF0FC
:10070000FF362868008810F0200F02D02868808803
:10071000C6B2304670BD2DE9F0410546EC6B08F0DD
:100720001BFC8046A06804F074F861690E1AA06989
:10073000371AA661404608F013FC2FB1032040EAA7
:100740000721284609F0DDF8206803F092FAE068F6
:1007500004F03CF9BDE8F0812DE9F0410546EC6B71
:1007600008F0FAFB0746D4E905100E1A0021A16132
:10077000384608F0F5FB2EB1032040EA0621284652
:1007800009F0BFF8E06804F021F9BDE8F08170B528
:100790000546EC6B24B9F622464947A006F0C1FD98
:1007A00040F22551206803F0ACFC68B101212068BB
:1007B00003F018FC18B90121284609F0A2F840F20C
:1007C0002551206803F027FD40F22441206803F002
:1007D00098FC10B12846FFF79EFF40F22661206882
:1007E00003F08FFC90B1288B10F4806F03D00221AE
:1007F000284609F086F8002240F22661206803F0BE
:100800004DF840F22661206803F005FD08212068BC
:1008100003F0E8FB012802D12846FFF767FF70BD0F
:1008200010B506F0ABF82848FFF7B1FF06F0BDF8A9
:1008300010BD10B506F0A2F82348FFF78DFF06F0B3
:10084000B4F810BD10B506F099F82048FFF79FFFE7
:1008500006F0ABF810BD10B506F090F81B48FFF796
:100860007BFF06F0A2F810BD10B506F087F8184817
:10087000FFF78DFF06F099F810BD000050A30008A7
:1008800073657269616C20213D2052545F4E554C56
:100890004C00000063666720213D2052545F4E5596
:1008A0004C4C000060A3000880E100E06EA300084B
:1008B00079A3000884A300087561727420213D208B
:1008C00052545F4E554C4C004404002098040020C4
:1008D000EC04002010B506F051F86048FFF73CFF2B
:1008E00006F063F810BD10B50121052001F0EDFA06
:1008F0000121880301F0E9FA0121052001F0E5FA60
:100900000121480401F00AFB0121092001F0DDFA70
:100910000121880401F002FB10BD08B502208DF80A
:10092000020004208DF803000002ADF800006946C3
:100930004B4802F02FF918208DF803004FF4007097
:10094000ADF800006946464802F024F904208DF80D
:1009500003000820ADF800006946414802F01AF98A
:1009600018208DF803000420ADF8000069463C48CB
:1009700002F010F904208DF803004002ADF80000E9
:100980006946384802F006F918208DF803004FF444
:100990008060ADF800006946324802F0FBF808BDFF
:1009A00038B5044620798DF8000000208DF801004C
:1009B00001208DF802008DF80300684604F025F947
:1009C00038BD1CB5284903C9CDE90001FFF78BFFED
:1009D000FFF7A3FF254C4FF4E13000902448254950
:1009E00008640846DDE90012C0E911122046FFF74D
:1009F000D7FF234640F203721FA11E4808F058FF9C
:100A00001F4C4FF4E130009019481E490864084615
:100A1000DDE90012C0E911122046FFF7C1FF2346AD
:100A200040F2037218A1174808F042FF184C4FF427
:100A3000E13000900E48094908640846DDE90012DB
:100A4000C0E911122046FFF7ABFF234640F20372C4
:100A500010A1024808F02CFF1CBD0000EC0400208F
:100A600000080140000C014090A300080000002095
:100A70003CA300084404002075617274310000003A
:100A80001C00002098040020756172743200000080
:100A900038000020756172743300000000B587B023
:100AA0000121082001F011FA0121880301F036FA32
:100AB000C020ADF8180010208DF81B0003208DF821
:100AC0001A0006A9FE4802F065F84FF48070ADF8F0
:100AD000180028208DF81B0006A9F94802F05AF8E2
:100AE0004FF4E071F64802F05DFA4FF46040ADF863
:100AF000180018208DF81B0006A9F14802F04AF8EA
:100B00004FF46041EE4802F022FA0020ADF80400F4
:100B10004FF48270ADF806000020ADF80800ADF883
:100B20000A00ADF80C004FF40070ADF80E00102074
:100B3000ADF810000020ADF812000720ADF8140049
:100B400001A9E04801F01AFB0121DE4801F0A9FCEF
:100B50000020DD4908604FF00100DC49C1F89C012C
:100B600007B000BD70B50546002405E0601CC4B2A6
:100B7000C82C01DD002070BD0221D24801F0C7FE63
:100B80000028F3D02946CF4801F070FD002405E08D
:100B9000601CC4B2C82C01DD0020ECE70121C9486B
:100BA00001F0B5FE0028F3D0C64801F074FDC0B2D4
:100BB000E1E72DE9F04107460D4616460020C449FD
:100BC00008603846FFF7CEFF8046002405E0FF208E
:100BD000FFF7C8FF2855601CC4B2B442F7DB012000
:100BE000BB4908604046BDE8F0812DE9F041074669
:100BF0000C4615460020B64908603846FFF7B2FF9C
:100C00008046002605E014F8010BFFF7ABFF701CCF
:100C1000C6B2AE42F7DB0120AD4908604046BDE8F0
:100C2000F08110B504466CB1082C0BD0102C09D003
:100C3000182C07D0202C05D0282C03D0302C01D024
:100C4000382C00D103E05521A2A0FFF713FB9D48EB
:100C500000884FF6C77108409A4908800846008806
:100C6000204308800121974801F01BFC10BD1CB5F2
:100C70009DA103C9CDE900010820FFF7D2FF05229D
:100C800069463020FFF7B1FF052269461020FFF7C3
:100C900090FF002406E01DF80400A52800D003E022
:100CA000601CC4B2052CF6DB00BF052C01D001206E
:100CB0001CBD0020FCE770B505460C4600208449A9
:100CC00008602846FFF74EFF06462046FFF74AFF1A
:100CD00001207E49C1F89C01304670BD70B50446C4
:100CE00000207B4908602046FFF73CFFFF20FFF70C
:100CF00039FF054601207549C1F89C01284670BDA1
:100D000070B505460020704908604FF02002294662
:100D10004FF0A000FFF769FF01206C49C1F898016E
:100D200000BF734800680028FBD14FF00700FFF7B1
:100D3000D5FF044621462720FFF7BDFF14F0100F12
:100D400008D0FF21E120FFF7B6FF6AA006F009FAFC
:100D5000102070BD14F0200F01D02020F9E7FF20F3
:100D6000F7E770B504460720FFF7B8FF05462946A8
:100D70002720FFF7A0FF15F0400F0AD020222146C0
:100D80006120FFF716FFFF21E220FFF794FF00200C
:100D900070BD0120FCE710B500204B4908604FF002
:100DA000050259494FF02A00FFF71FFF01212120BA
:100DB000FFF781FF01212220FFF77DFF2821252059
:100DC000FFF779FF20213120FFF775FF0F21262043
:100DD000FFF771FF0F212020FFF76DFF01203B4936
:100DE000C1F8980110BD10B50020374908604FF0D8
:100DF000050246494FF03000FFF7F7FE0522424951
:100E00002A20FFF7F2FE01212120FFF754FF0121E4
:100E10002220FFF750FF1A212420FFF74CFF282142
:100E20002520FFF748FF0F212620FFF744FF0E2162
:100E30002020FFF740FF01202449C1F8980110BD90
:100E400010B500243248407932494979884210D09F
:100E50002F48407930B1002000F013FC2EA006F09E
:100E600080F905E0002000F026FC2FA006F079F9BB
:100E700001242748807927498979884210D024485D
:100E8000807930B1012000F0FCFB2BA006F069F95D
:100E900005E0012000F00FFC2BA006F062F9012410
:100EA00064B100241A4840791A4948711848807979
:100EB000887117484079284948714FE056E0000092
:100EC000000C0140003800409881214200802142FE
:100ED0009C812142647269766572735C6E726632BF
:100EE000346C30312E630000A5A5A5A5A500000037
:100EF0002081214274785F6572726F722C206D615F
:100F0000785F74780D0A00009DA3000898A300087C
:100F1000600500208005002072656C617930206FCB
:100F20006E210D0A0000000072656C617930206F3F
:100F30006666210D0A00000072656C617931206FD0
:100F40006E210D0A0000000072656C617931206F1E
:100F50006666210D0A0000004005002026488079C1
:100F6000887126A006F0FDF8012010BD0020FCE7E6
:100F700010B52148FFF7F5FEFFF762FF0446BCB14C
:100F800001202449C870FFF72EFF2248FFF7B8FE62
:100F90000446202C05D0052007F0F8FB1D48FFF77C
:100FA000AFFE21461CA006F0DCF80024FFF7F3FE9C
:100FB00010BDFFF773FDFFF7EEFE04E0FFF7D8FF6B
:100FC000052007F0E3FBF9E71FB5052014214FF4D6
:100FD0000072154BCDE90032CDE902100023134A0F
:100FE00013A1164807F0CFF9044614B9134807F0C7
:100FF00024FA204604B010BD60050020636F6E74B3
:10100000726F6C2064617461206368616E676564EF
:10101000210D0A004005002074785F7374617465C7
:101020003A202578200D0A00A0050020B30F000803
:101030006E726632346C303100000000A007002070
:1010400070B504460025002600BF1AE005EB4503F5
:10105000626802EBC302928991B205EB45036268B4
:1010600002EBC302906801F05AFE40B905EB45015E
:10107000606810F8311001208840304386B2681C47
:10108000C5B22078A842E1DC304670BD70B5054697
:1010900000240026FE480078401CFD4908700846E0
:1010A0000078032804DB002008700120F94908704B
:1010B000F8480078012852D10020F64908702846E7
:1010C000FFF7BEFF0446F448007830B101280BD08A
:1010D000022819D0032841D138E024B1EF48048018
:1010E0000120ED49087039E0EC480088844207D1BE
:1010F0000220E9490870E948008840F4805602E07F
:101100000020E549087029E0E448008884420AD0BC
:101110000020E1490870E2490880E048008840F476
:101120000056304670BDDE480088401CDC4908800F
:1011300008460088642808DB002008800320D64980
:10114000087044F400463046ECE707E0D3480088D6
:10115000844202D00020D049087000BF00BF0020A8
:10116000E0E770B50546002400262846FFF78EFF0D
:10117000064606B970BD16F4005F1DD0002418E0C5
:1011800004EB4401686810F83110012088403042B7
:101190000DD004EB4401686800EBC100006930B178
:1011A00004EB4402696801EBC20108698047601CD6
:1011B000C4B22878A042E3DC16F4004F1DD000240E
:1011C00018E004EB4401686810F8311001208840F1
:1011D00030420DD004EB4401686800EBC100406967
:1011E00030B104EB4402696801EBC20148698047F1
:1011F000601CC4B22878A042E3DC00BFBAE710B597
:101200000446A848FFF7ADFF10BD08B50220012332
:101210000022A5490090A5A007F0B5FBA6490860EB
:101220000846006818B10846006807F0DEFB08BDF4
:101230002DE9F04387B007460C4615461E46DDE90A
:101240000E890294039504969C480078401C40B295
:101250009A490870C0B28DF80400CDF81480CDF81A
:10126000189097480078401C95490870182201A9E9
:10127000384608F0F7FF07B0BDE8F08338B50446FC
:10128000002504B938BD8E480078207020780C28DD
:1012900001DD0C202070002522E005EB450261688D
:1012A00001EBC2014868012100F00FFE03208DF818
:1012B000020048208DF8030005EB4501606800EB53
:1012C000C100808980B2ADF8000005EB450261687D
:1012D00001EBC2018868694601F05CFC681CC5B27C
:1012E0002078A842D9DCFFF790FF00BFCAE710B50D
:1012F00074A005F036FF10BD10B577A005F031FFE2
:1013000010BD10B579A005F02CFF0020FFF783F881
:1013100010BD10B57AA005F024FF0020FFF76FF88C
:1013200010BD10B57B480078401C7A4908707AA03F
:1013300005F017FF7749087800EBD0714910B0EB42
:10134000410106D1002000F09CF901207D4948713F
:1013500005E0002000F0AFF900207A49487110BD87
:1013600010B579A005F0FDFE10BD10B57B480078E2
:10137000401C7A4908707AA005F0F3FE7749087896
:1013800000EBD0714910B0EB410106D1012000F013
:1013900078F901206B49887105E0012000F08BF994
:1013A00000206849887110BD10B578A005F0D9FEFD
:1013B00010BD10B57A480078401C7949087079A0B2
:1013C00005F0CFFE7649087800EBD0714910B0EBFC
:1013D000410103D1022000F054F902E0022000F0A4
:1013E0006AF910BD10B57AA005F0BBFE10BD00B5BE
:1013F00089B0AFF2FB00AFF209110123794ACDE9C0
:101400000010042103A8FFF713FF182203A9764850
:1014100008F028FFAFF20510AFF219114FF4806306
:10142000724ACDE90010082103A8FFF701FF182236
:1014300003A96D48183008F015FFAFF2DB00AFF2DA
:101440001D114FF40063694ACDE90010082103A87B
:10145000FFF7EEFE182203A96348303008F002FFC0
:10146000AFF2BB00AFF2FD010223604ACDE90010EC
:10147000082103A8FFF7DCFE182203A95A484830C8
:1014800008F0F0FEAFF2A300AFF2D9010123AFE004
:101490006800002055000020560000205A0000205F
:1014A0005800002060000020FF1100086B65795F84
:1014B00074696D65720000006C0000205C00002003
:1014C000540000206B6579312073686F727420704E
:1014D00072657373210D0A006B657931206C6F6E34
:1014E00067207072657373210D0A00006B65793295
:1014F0002073686F7274207072657373210D0A0017
:101500006B657932206C6F6E672070726573732122
:101510000D0A00005D0000206B6579332073686F51
:1015200072742070726573732C2072656C617930EF
:10153000206368616E6765207374617465210D0AAC
:1015400000000000600500206B657933206C6F6E31
:1015500067207072657373210D0A00005E00002021
:101560006B6579342073686F727420707265737361
:101570002C2072656C617931206368616E6765202B
:101580007374617465210D0A000000006B65793485
:10159000206C6F6E67207072657373210D0A0000F6
:1015A0005F0000206B6579352073686F727420705E
:1015B000726573732C2072656C6179322063686187
:1015C0006E6765207374617465210D0A0000000068
:1015D0006B657935206C6F6E67207072657373214F
:1015E0000D0A00000008014020080020000C014006
:1015F0000A4ACDE90010082103A8FFF719FE1822B6
:1016000003A9074808F02EFE0548603805494860E0
:101610000846FFF733FE09B000BD0000000C014092
:10162000800800206000002008B50121082000F09B
:101630004CFC10208DF8030003208DF802002020C0
:10164000ADF800006946294801F0A4FA1020ADF871
:1016500000006946254801F09DFA0820ADF8000019
:101660006946224801F096FA2021204801F09AFCB0
:1016700010211E4801F096FC08211C4801F092FC44
:1016800008BD10B5044624B1012C07D0022C0FD19F
:1016900009E02021154801F05AFC0AE01021134806
:1016A00001F055FC05E00821104801F050FC00E075
:1016B00000BF00BF10BD10B5044624B1012C07D0F7
:1016C000022C0FD109E02021084801F06BFC0AE050
:1016D0001021064801F066FC05E00821034801F0EE
:1016E00061FC00E000BF00BF10BD0000000C014025
:1016F0000CB50020019000906B48006840F48030E9
:101700006949086000BF6848006800F40030009034
:101710000198401C0190009818B90198B0F5A06F8D
:10172000F1D16148006810F4003F02D00120009020
:1017300001E0002000900098012842D15B48006839
:1017400040F01000594908600846006820F0030086
:1017500008600846006840F002000860524840688F
:10176000514948600846406848600846406840F46F
:10177000806048600846406820F47C104860084655
:10178000406840F4E81048600846006840F0807007
:10179000086000BF4448006810F0007FFAD042485B
:1017A000406820F00300404948600846406840F027
:1017B0000200486000BF3C48406800F00C00082868
:1017C000F9D10CBD10B5FFF793FF10BD10B5364829
:1017D000006840F001003449086008464068344918
:1017E00008403149486008460068324908402E499F
:1017F00008600846006820F48020086008464068B9
:1018000020F4FE0048604FF41F008860FFF7DAFF05
:101810004FF000602849086010BD10B5002100207D
:101820000022214B5B6803F00C0121B1042906D092
:10183000082928D107E0214B214C236027E01F4BCA
:101840001F4C236023E0184B5B6803F47010164BA9
:101850005B6803F48032022303EB904022B9194BFA
:101860004343174C23600DE00F4B5B6813F4003FBC
:1018700004D0144B4343124C236003E00F4B43430B
:101880000F4C236003E00D4B0D4C236000BF00BFE5
:10189000054B5B68C3F303130B4CE15C084B1B68FF
:1018A000CB40074C236010BD0010024000200240D6
:1018B0000000FFF8FFFFF6FE08ED00E000127A00DE
:1018C0007000002000093D0074000020FE48006800
:1018D00040F00100FC49086008464068FB490840A8
:1018E000F949486008460068F9490840F649086027
:1018F0000846006820F4802008600846406820F40C
:10190000FE0048604FF41F008860704710B5044621
:101910002CB1B4F5803F02D0B4F5802F00D104E0A3
:1019200040F21111EBA0FEF7A5FCE748006820F497
:101930008030E54908600846006820F4802008608F
:10194000B4F5803F03D0B4F5802F0ED106E0DE4819
:10195000006840F48030DC49086007E0DA4800683D
:1019600040F4A020D849086000E000BF00BF10BDCF
:101970002DE9F0410446002500260027212C13D034
:10198000312C11D0392C0FD0412C0DD0612C0BD023
:101990007A2C09D07B2C07D07C2C05D07D2C03D051
:1019A0007E2C01D07F2C00D104E040F23451C9A03C
:1019B000FEF760FC6511012D02D1C348066806E000
:1019C000022D02D1C048066A01E0BF48466A04F011
:1019D0001F050120A840304201D0012700E0002768
:1019E0003846BDE8F08138B500200090002400257D
:1019F00000BF3120FFF7BCFF05460098401C009057
:101A00000098B0F5A06F01D0002DF2D03120FFF783
:101A1000AFFF08B1012400E00024204638BD70B5B6
:101A2000044600251F2C00DC04E04FF4A971A9A096
:101A3000FEF720FCA448056825F0F80545EAC40532
:101A4000056070BD10B504460CB1012C00D104E056
:101A500040F265119FA0FEF70DFCAD48046010BD7B
:101A600070B505460C4600262DB1B5F5803F02D075
:101A7000B5F5403F00D104E040F27F1195A0FEF79C
:101A8000F9FB4CB3B4F5802F26D0B4F5002F23D04A
:101A9000B4F5402F20D0B4F5801F1DD0B4F5A01FA1
:101AA0001AD0B4F5C01F17D0B4F5E01F14D0B4F5A8
:101AB000001F11D0B4F5101F0ED0B4F5201F0BD0AD
:101AC000B4F5301F08D0B4F5401F05D0B4F5501F51
:101AD00002D0B4F5601F00D104E04FF4C0717DA0C6
:101AE000FEF7C8FB7848466826F47C1645EA0400F1
:101AF00006437548466070BD10B504460CB1012C14
:101B000000D104E04FF4CA7172A0FEF7B3FB804825
:101B1000046610BD70B5044600251CB1012C01D02F
:101B2000022C00D104E04FF40E716AA0FEF7A2FB74
:101B30006548456825F003052543456070BD62484A
:101B4000406800F00C00704770B5044600257CB179
:101B5000802C0DD0902C0BD0A02C09D0B02C07D00D
:101B6000C02C05D0D02C03D0E02C01D0F02C00D11B
:101B700004E04FF4197157A0FEF77CFB524845680A
:101B800025F0F0052543456070BD70B5044600257D
:101B90005CB1B4F5806F08D0B4F5A06F05D0B4F592
:101BA000C06F02D0B4F5E06F00D104E040F27E21B6
:101BB00048A0FEF75FFB4448456825F4E0652543EF
:101BC000456070BD70B5044600255CB1B4F5806F0A
:101BD00008D0B4F5A06F05D0B4F5C06F02D0B4F54D
:101BE000E06F00D104E04FF426713AA0FEF742FB0B
:101BF0003548456825F4605545EAC405456070BD23
:101C000070B504460D4614F0E00F01D104B104E0B4
:101C100040F2BF212FA0FEF72DFB0DB1012D00D109
:101C200004E04FF430712BA0FEF724FB2DB12648C1
:101C3000407A20432449487204E02348407AA04374
:101C40002149487270BD10B504460CB1012C00D179
:101C500004E040F2DB211FA0FEF70CFB2D480460DE
:101C600010BD70B50446002544B1B4F5804F05D0D1
:101C7000B4F5004F02D0B4F5404F00D104E040F27B
:101C8000023114A0FEF7F6FA0F48456825F44045E6
:101C90002543456070BD10B504461CB1012C01D030
:101CA000042C00D104E04FF450710AA0FEF7E2FAD0
:101CB000002019490870044981F82000012C2DD01A
:101CC000042C33D12EE00000001002400000FFF889
:101CD000FFFFF6FE4C69627261726965735C535472
:101CE0004D3332463130785F537464506572697099
:101CF000685F4472697665725C7372635C73746D5D
:101D00003332663130785F7263632E630000000007
:101D100000004242D8004242201002400120F44913
:101D2000087004E00520F249087000E000BF00BF21
:101D300010BD10B504460CB1012C00D105E040F2F5
:101D40006131AFF27000FEF795FAEA48046010BD09
:101D500010B50446B4F5807F05D0B4F5007F02D0FD
:101D6000B4F5407F00D105E040F27231AFF29C0043
:101D7000FEF780FADE482038006A2043DC4920392B
:101D8000086210BD10B504460CB1012C00D105E06D
:101D90004FF46071AFF2C400FEF76CFAD5484438D6
:101DA000046010BD30B50021002200240023D04D76
:101DB000203D6D6805F00C0121B1042905D00829EA
:101DC00026D105E0CC4D056025E0CB4D056022E035
:101DD000C74D203D6D6805F47012C54D203D6D68FE
:101DE00005F48034022505EB92421CB9C34D5543DE
:101DF00005600CE0BE4D203D6D6815F4003F03D03A
:101E0000BE4D5543056002E0BB4D5543056002E001
:101E1000B94D056000BF00BFB54D203D6D6805F0B0
:101E2000F0010909B64D6B5C0568DD404560B04DB9
:101E3000203D6D6805F4E061090AB14D6B5C4568B1
:101E4000DD408560AA4D203D6D6805F46051C90AEA
:101E5000AB4D6B5C4568DD40C560A54D203D6D68B0
:101E600005F44041890BA74D6B5CC568B5FBF3F5E4
:101E7000056130BD70B504460D4640F2575034EA56
:101E8000000001D104B105E040F22B41AFF2BC10DB
:101E9000FEF7F0F90DB1012D00D105E040F22C4123
:101EA000AFF2D010FEF7E6F93DB191482038406915
:101EB00020438F492039486106E08D482038406929
:101EC000A0438B492039486170BD70B504460D466A
:101ED0008D48044201D104B105E040F24A41AFF21D
:101EE0000C20FEF7C7F90DB1012D00D105E040F23D
:101EF0004B41AFF22020FEF7BDF93DB17C482038C0
:101F0000806920437A492039886106E07848203882
:101F10008069A04376492039886170BD70B5044658
:101F20000D467A48044201D104B105E040F269410E
:101F3000AFF26020FEF79EF90DB1012D00D105E052
:101F400040F26A41AFF27420FEF794F93DB168485F
:101F50002038C069204366492039C86106E06448DA
:101F60002038C069A04362492039C86170BD70B58E
:101F700004460D466448044201D104B105E040F234
:101F8000A441AFF2B020FEF775F90DB1012D00D1DB
:101F900005E040F2A541AFF2C420FEF76BF93DB178
:101FA00053482038C068204351492039C86006E0B2
:101FB0004F482038C068A0434D492039C86070BDE3
:101FC00070B504460D465148044201D104B105E004
:101FD00040F2C341AFF20430FEF74CF90DB1012DD0
:101FE00000D105E040F2C441AFF21830FEF742F9EB
:101FF0003DB13F482038006920433D492039086100
:1020000006E03B4820380069A0433949203908617F
:1020100070BD10B504460CB1012C00D105E04FF4A1
:102020009B61AFF25030FEF725F93248403804602A
:1020300010BD10B504460CB1012C00D105E040F2F2
:10204000E541AFF27030FEF715F93148C46410BDB8
:1020500010B504463CB1052C05D0042C03D0062C49
:1020600001D0072C00D105E040F20551AFF29C30C1
:10207000FEF700F91E482038C47110BD1C482038F6
:10208000406A40F080701A4920394862704770B544
:1020900004460025012C09D0022C07D0042C05D0C1
:1020A000082C03D0102C01D0802C00D105E040F288
:1020B0007E51AFF2E030FEF7DDF80D482038806841
:1020C000204201D0012500E00025284670BD10B552
:1020D000044614F0600F01D104B105E040F2AB51A9
:1020E000AFF21040FEF7C6F801482038847210BDE8
:1020F000201002408004424200127A0000093D0094
:1021000084000020940000200200C0FF00360181FE
:102110000000424210B50446FA48844205D0FA480D
:10212000844202D0F948844200D103E07A21F8A029
:10213000FEF7A0F8F348844208D101218014FFF78C
:1021400016FF0021A014FFF712FF16E0EE488442AC
:1021500008D101210014FFF733FF00212014FFF7FD
:102160002FFF0AE0E948844207D10121C013FFF79D
:1021700027FF0021E013FFF723FF10BD70B50546D0
:102180000C460026DF48854205D0DF48854202D054
:10219000DE48854200D103E0A321DDA0FEF76AF806
:1021A000208858B12088B0F5806F07D02088B0F51E
:1021B000004F03D02088B0F5404F00D103E0A621A6
:1021C000D3A0FEF757F86088B0F5827F01D0608811
:1021D00000B903E0A721CEA0FEF74CF8A088B0F527
:1021E000006F01D0A08800B903E0A821C8A0FEF7C5
:1021F00041F8E08810B1E088022800D103E0A9216D
:10220000C3A0FEF737F8208910B12089012800D13A
:1022100003E0AA21BEA0FEF72DF86089B0F5007F8B
:1022200001D0608900B903E0AB21B9A0FEF722F824
:10223000A089A0B1A089082811D0A08910280ED0AB
:10224000A08918280BD0A089202808D0A089282888
:1022500005D0A089302802D0A089382800D103E019
:10226000AC21ABA0FEF706F8E08910B1E089802828
:1022700000D103E0AD21A6A0FDF7FCFF208A0128D4
:1022800000DB03E0AE21A2A0FDF7F4FF2E8806F4E8
:102290004156208861880843A1880843E1880843A3
:1022A0002189084361890843A1890843E1890843DA
:1022B00006432E80A88B4FF2FF710840A883208A26
:1022C000288270BD2DE9F04F85B005460C464FF0D1
:1022D000000902274FF000084FF0010B0026B2461C
:1022E0008948854202D08948854200D103E0E32134
:1022F00087A0FDF7BFFF208858B12088B0F5807F08
:1023000007D02088B0F5007F03D02088B0F5407F4B
:1023100000D103E0E4217EA0FDF7ACFF608858B156
:102320006088102808D06088202805D06088302870
:1023300002D06088B02800D103E0E52174A0FDF749
:1023400099FFA08840B1A088012805D0A088032863
:1023500002D0A088052800D103E0E6216CA0FDF79B
:1023600089FFE088B0F5007F01D0E08800B903E084
:10237000E72167A0FDF77EFFA068B0F5FA5F03D301
:102380007249A068884202D9A068022800D103E0FF
:10239000E8215FA0FDF76EFFA08910B1A089082891
:1023A00000D103E0E9215AA0FDF764FFA88B4FF2AA
:1023B00040010840A88302202884B5F81C90A0683A
:1023C000022803D14FF00008022738E0A08810B996
:1023D0004FF0010B01E04FF0020B4B48854200D15A
:1023E00000E000BF6846FFF7DDFCDDF800A0E088F4
:1023F000B0F5007F0AD14FEA1A2000EB80004000C0
:10240000A168B0FBF1F0401D86B20BE04FEA4B1023
:10241000BAFBF0F000EB80004000A168B0FBF1F0E7
:10242000401D86B20A20B6FBF0F606F00108A6EBC6
:102430000800C0F34F074FF6FF7000EA0828022F8C
:1024400001DBFF2F02DD02274FF00008E08840EAA1
:10245000080038432884A088A1890843618808437C
:102460002188084340F4006040EA0909A5F81C905F
:1024700005B0BDE8F08F0021018041808180C180DE
:10248000018141818181C181072101827047002141
:10249000018041808180C180022181600021818191
:1024A000704770B504460D461648844205D016485C
:1024B000844202D01548844200D104E04FF4D77121
:1024C00013A0FDF7D7FE0DB1012D00D104E040F2BD
:1024D000AF110FA0FDF7CEFE25B1208840F04000DF
:1024E000208004E020884FF6BF710840208070BD36
:1024F00070B504460D460448844202D00348844225
:1025000026D12BE00030014000380040003C004064
:102510004C69627261726965735C53544D33324623
:102520003130785F5374645065726970685F4472CB
:10253000697665725C7372635C73746D3332663195
:1025400030785F7370692E630000000000EE0200B7
:102550004FF4E371AFF24800FDF78CFE0DB1012D91
:1025600000D105E040F2C711AFF25C00FDF782FE3A
:1025700025B1A08B40F48060A08304E0A08B4FF6CF
:10258000FF310840A08370BD2DE9F04104460D469F
:1025900016464FF000080027F648844205D0F6485A
:1025A000844202D0F548844200D105E04FF4F37133
:1025B000AFF2A400FDF75EFE0EB1012E00D105E0E2
:1025C00040F2E711AFF2B800FDF754FE712D03D0D1
:1025D000602D01D0502D00D105E04FF4F471AFF221
:1025E000D000FDF747FE4FEA2518012000FA08F059
:1025F00087B21EB1A0883843A08002E0A088B8430B
:10260000A080BDE8F08170B504460D461646D94855
:10261000844205D0D848844202D0D848844200D1B0
:1026200005E04FF40371AFF21810FDF723FE0EB171
:10263000012E00D105E040F20D21AFF22C10FDF784
:1026400019FE4FF6FC70054201D105B105E040F2DC
:102650000E21AFF24410FDF70DFE1EB1A0882843F5
:10266000A08002E0A088A843A08070BD70B5044699
:102670000D46C048844205D0BF48844202D0BF48BE
:10268000844200D105E040F22621AFF27C10FDF734
:10269000F1FDA58170BD10B50446B648844205D051
:1026A000B548844202D0B548844200D105E040F2EA
:1026B0003621AFF2A410FDF7DDFDA08910BD70B585
:1026C00004460D46AB48844205D0AB48844202D054
:1026D000AA48844200D105E04FF41271AFF2D01045
:1026E000FDF7C8FDB5F5807F03D0A5F57E40FF3826
:1026F00000D105E040F24921AFF2EC10FDF7BAFD40
:10270000A5F57E40FF3804D0208840F480702080FA
:1027100004E020884FF6FF610840208070BD70B54E
:1027200004460D469348844205D09348844202D023
:102730009248844200D105E04FF41871AFF2302086
:10274000FDF798FD0DB1012D00D105E040F26121AA
:10275000AFF24420FDF78EFD25B1A08840F00400C3
:10276000A08004E0A0884FF6FB710840A08070BDF7
:1027700070B504460D467F48844205D07E488442A9
:1027800002D07E48844200D105E040F27A21AFF2C7
:102790008020FDF76FFDB5F5006F00D005B905E0AD
:1027A00040F27B21AFF29820FDF764FD20884FF2C4
:1027B000FF710840208020882843208070BD10B51C
:1027C00004466C48844205D06B48844202D06B4872
:1027D000844200D105E040F28A21AFF2CC20FDF71F
:1027E00049FD208840F48050208010BD70B504461B
:1027F0000D466048844205D05F48844202D05F485D
:10280000844200D105E040F29A21AFF2FC20FDF7AE
:1028100031FD0DB1012D00D105E040F29B21AFF259
:102820001030FDF727FD25B1208840F400502080AE
:1028300004E020884DF6FF710840208070BD70B51F
:1028400004460D4600264B48844205D04A4884423F
:1028500002D04A48844200D105E040F2B521AFF2EF
:102860005030FDF707FD0DB1012D00D105E040F21C
:10287000B621AFF26430FDF7FDFC012D01D0268BAF
:1028800000E0A68A304670BD10B50446394884423F
:1028900005D03948844202D03848844200D105E04E
:1028A00040F2CD21AFF29830FDF7E4FC208A10BD54
:1028B00070B504460D462F48844205D02E48844208
:1028C00002D02E48844200D105E040F2DF21AFF271
:1028D000C030FDF7CFFCA5F53F40FF3802D0B5F57D
:1028E000804F00D105E04FF43871AFF2DC30FDF7D6
:1028F000C1FCB5F5804F04D1208840F48040208091
:1029000004E020884BF6FF710840208070BD70B550
:1029100005460C4600261748854205D016488542D4
:1029200002D01648854200D105E040F20231AFF2F4
:102930002040FDF79FFC802C0DD0402C0BD0202C8C
:1029400009D0102C07D0082C05D0042C03D0022C61
:1029500001D0012C00D105E040F20331AFF250402C
:10296000FDF788FC2889204201D0012600E00026DE
:10297000304670BD0030014000380040003C00404F
:1029800070B504460D464348844205D0424884420F
:1029900002D04248844200D105E040F22731AFF234
:1029A0009040FDF767FC102D00D105E04FF44A710F
:1029B000AFF2A440FDF75EFCE843208170BD2DE935
:1029C000F04705460C460027B8460026B146314878
:1029D000854205D03048854202D03048854200D13A
:1029E00005E040F24331AFF2D840FDF743FC602CE4
:1029F00009D0712C07D0532C05D0542C03D0552C62
:102A000001D0562C00D105E04FF45171AFF20050C7
:102A1000FDF730FC04F00F01012088401FFA80F818
:102A200026110120B04086B2A88800EA060928894C
:102A300010EA080F04D0B9F1000F01D0012700E01F
:102A400000273846BDE8F08770B504460D460026DD
:102A50001048844205D01048844202D00F48844276
:102A600000D105E040F27731AFF25C50FDF702FC97
:102A7000542D00D105E04FF45E71AFF26C50FDF7BC
:102A8000F9FB05F00F010120884086B2F043208158
:102A900070BD00000030014000380040003C0040A4
:102AA00010B50446FC48844211D0FC4884420ED044
:102AB000FB4884420BD0FB48844208D0FA48844249
:102AC00005D0FA48844202D0F948844200D103E09C
:102AD0006F21F8A0FDF7CEFBEF48844208D1012119
:102AE0000420FFF744FA00210420FFF740FA46E0F3
:102AF000EA48844208D101210820FFF738FA002172
:102B00000820FFF734FA3AE0E548844208D1012171
:102B10001020FFF72CFA00211020FFF728FA2EE0F2
:102B2000E048844208D101212020FFF720FA00214B
:102B30002020FFF71CFA22E0DB48844208D1012163
:102B40004020FFF714FA00214020FFF710FA16E0AA
:102B5000D648844208D101218020FFF708FA0021DD
:102B60008020FFF704FA0AE0D148844207D101210E
:102B70008015FFF7FCF90021A015FFF7F8F910BD4B
:102B800010B501210846FFF7F2F900210120FFF7F7
:102B9000EEF910BD2DE9F05F05460C464FF0000937
:102BA000CA4600260027B046B346BB48854211D02E
:102BB000BA4885420ED0BA4885420BD0B948854202
:102BC00008D0B948854205D0B848854202D0B848F7
:102BD000854200D103E0B221B6A0FDF74BFBE078BF
:102BE000A0B1E078042811D0E07828280ED0E07851
:102BF00048280BD0E078142808D0E078102805D0B9
:102C0000E0781C2802D0E078182800D103E0B32136
:102C1000A8A0FDF72FFB002010B9208800B103E029
:102C2000B421A4A0FDF726FBE07800F00F09E078BE
:102C300010F0100F10D0A078012805D0A07802283D
:102C400002D0A078032800D103E0BB2199A0FDF7B2
:102C500011FBA07840EA0909207838B3D5F8008044
:102C600000261FE0012000FA06F7208800EA070A84
:102C7000BA4516D1B7000F2000FA07FB28EA0B0867
:102C800009FA07F040EA0808E078282803D1012073
:102C9000B040686105E0E078482802D10120B040EA
:102CA0002861761C082EDDD3C5F800802088FF2817
:102CB0002BDDD5F80480002623E006F10800012171
:102CC00001FA00F7208800EA070ABA4518D1B700D0
:102CD0000F2000FA07FB28EA0B0809FA07F040EA80
:102CE0000808E078282803D106F1080081406961CE
:102CF000E078482804D106F10800012181402961CB
:102D0000761C082ED9D3C5F80480BDE8F09F4FF695
:102D1000FF710180022181700421C170704770B57C
:102D200005460C4600265C48854211D05B4885422A
:102D30000ED05B4885420BD05A48854208D05A488D
:102D4000854205D05948854202D05948854200D174
:102D500004E04FF48F7157A0FDF78CFA012C25D0B9
:102D6000022C23D0042C21D0082C1FD0102C1DD0D5
:102D7000202C1BD0402C19D0802C17D0B4F5807F8C
:102D800014D0B4F5007F11D0B4F5806F0ED0B4F537
:102D9000006F0BD0B4F5805F08D0B4F5005F05D0AC
:102DA000B4F5804F02D0B4F5004F00D104E040F2FA
:102DB0001F1140A0FDF75EFAA868204201D001264D
:102DC00000E00026304670BD10B50446324884420B
:102DD00011D0324884420ED0314884420BD0314861
:102DE000844208D03048844205D03048844202D022
:102DF0002F48844200D104E04FF49A712DA0FDF7D2
:102E000039FAA06880B210BD70B505460C460026A0
:102E10002148854211D0214885420ED02048854264
:102E20000BD02048854208D01F48854205D01F4856
:102E3000854202D01E48854200D104E04FF4A271C1
:102E40001CA0FDF717FA012C25D0022C23D0042C4E
:102E500021D0082C1FD0102C1DD0202C1BD0402C92
:102E600019D0802C17D0B4F5807F14D0B4F5007F32
:102E700011D0B4F5806F0ED0B4F5006F0BD0B4F55F
:102E8000805F08D0B4F5005F05D0B4F5804F02D064
:102E9000B4F5004F2CD131E000080140000C014096
:102EA000001001400014014000180140001C0140C6
:102EB000002001404C69627261726965735C535411
:102EC0004D3332463130785F5374645065726970A7
:102ED000685F4472697665725C7372635C73746D6B
:102EE0003332663130785F6770696F2E630000009F
:102EF00040F24511AFF24400FDF7BCF9E86820420A
:102F000001D0012600E00026304670BD10B5044611
:102F1000FE48844211D0FE4884420ED0FD488442CF
:102F20000BD0FD48844208D0FC48844205D0FC48C0
:102F3000844202D0FB48844200D105E04FF4AD71D9
:102F4000AFF29000FDF796F9E06880B210BD70B561
:102F500004460D46ED48844211D0ED4884420ED01F
:102F6000EC4884420BD0EC48844208D0EB488442C1
:102F700005D0EB48844202D0EA48844200D105E003
:102F800040F26911AFF2D400FDF774F9002008B9DE
:102F900005B105E04FF4B571AFF2E800FDF76AF94D
:102FA000256170BD70B504460D46D848844211D0E5
:102FB000D74884420ED0D74884420BD0D6488442AA
:102FC00008D0D648844205D0D548844202D0D5489E
:102FD000844200D105E040F27911AFF22810FDF7EC
:102FE00049F9002008B905B105E04FF4BD71AFF211
:102FF0003C10FDF73FF9656170BD70B505460C46A4
:103000001646C248854211D0C14885420ED0C148FB
:1030100085420BD0C048854208D0C048854205D0C3
:10302000BF48854202D0BF48854200D105E040F24A
:103030008D11AFF28010FDF71DF9012C25D0022C67
:1030400023D0042C21D0082C1FD0102C1DD0202CD4
:103050001BD0402C19D0802C17D0B4F5807F14D011
:10306000B4F5007F11D0B4F5806F0ED0B4F5006FC9
:103070000BD0B4F5805F08D0B4F5005F05D0B4F58F
:10308000804F02D0B4F5004F00D105E04FF4C77176
:10309000AFF2E010FDF7EEF80EB1012E00D105E021
:1030A00040F28F11AFF2F410FDF7E4F80EB12C618D
:1030B00000E06C6170BD70B504460D4693488442D3
:1030C00011D0934884420ED0924884420BD092484B
:1030D000844208D09148844205D09148844202D06D
:1030E0009048844200D105E04FF4D271AFF23C2009
:1030F000FDF7C0F8E56070BD70B504460D464FF4AD
:1031000080368248844211D0814884420ED0814862
:1031100084420BD08048844208D08048844205D045
:103120007F48844202D07F48844200D105E040F2CB
:10313000B511AFF28020FDF79DF8002008B905B168
:1031400005E04FF4DB71AFF29420FDF793F82E43C6
:10315000A661A561A661A669A66970BD70B50546A0
:103160000C4600263DB1012D05D0022D03D0032DC4
:1031700001D0042D00D105E04FF4E971AFF2CC206D
:10318000FDF778F8ECB1012C1BD0022C19D0032CE0
:1031900017D0042C15D0052C13D0062C11D0072CD9
:1031A0000FD0082C0DD0092C0BD00A2C09D00B2CD9
:1031B00007D00C2C05D00D2C03D00E2C01D00F2CD9
:1031C00000D105E040F2D311AFF21830FDF752F80C
:1031D000554806684FF68070064046EA05162643B5
:1031E0005148066070BD10B504460CB1012C00D1E9
:1031F00005E04FF4F371AFF24430FDF73BF84B4874
:10320000C46110BD2DE9F04704460E460027B846BC
:103210000025A946012C77D0022C75D0042C73D040
:10322000082C71D0A4F5A01010386DD020386BD0C8
:10323000A4F5B010403867D0803865D03C4884424F
:1032400062D03C4884425FD03B4884425CD03B48DB
:10325000844259D03A48844256D0B4F5805F53D066
:10326000B4F5EA1F50D0B4F5EB1F4DD0B4F5004FC4
:103270004AD03448844247D0A4F50010801E7CD048
:10328000801E7AD0001F78D0083876D0B4F1201F85
:1032900073D0303871D02C4884426ED02B48844291
:1032A0006BD02B48844268D02A48844265D02A4893
:1032B000844262D0B4F5011F5FD0284884425CD0BC
:1032C000401C844259D0801C844256D0001D844248
:1032D00053D022480F3084424FD020481F308442C0
:1032E0004BD01E483F30844247D01C487F30844238
:1032F00043D01A48FF3084423FD0194884423CD022
:103300001848844239D02FE037E00000000801401F
:10331000000C014000100140001401400018014061
:10332000001C01400020014000000140000020423C
:1033300000011800000218000003180000081A001D
:10334000000C1A00010020000001300000023000D3
:103350000004300000112000002020000100008047
:1033600000020080000400806348844205D0634866
:10337000844202D06248844200D105E040F22A2112
:10338000AFF2D040FCF776FF0EB1012E00D105E080
:1033900040F22B21AFF2E440FCF76CFF04F0004058
:1033A000B0F1004F02D15748C56901E05548456862
:1033B000C4F30349A7B204F44010B0F5401F08D18C
:1033C00025F070654F48406820F070604D494860B6
:1033D00013E004F48010B0F5801F07D1032000FA39
:1033E00009F825EA080545F0706506E0600D000162
:1033F00007FA00F0854345F0706526B1600D0101C4
:1034000007FA01F0054304F00040B0F1004F02D18B
:103410003C48C56101E03B484560BDE8F08770B5B8
:1034200005460C4600265DB1012D09D0022D07D0BE
:10343000032D05D0042D03D0052D01D0062D00D17C
:1034400005E040F26521AFF29450FCF713FFECB1B8
:10345000012C1BD0022C19D0032C17D0042C15D012
:10346000052C13D0062C11D0072C0FD0082C0DD012
:10347000092C0BD00A2C09D00B2C07D00C2C05D012
:103480000D2C03D00E2C01D00F2C00D105E040F202
:103490006621AFF2E050FCF7EDFEA007010F0F2010
:1034A00000FA01F617480830A11050F82100B04387
:1034B00014490831A21041F822000846A11050F822
:1034C0002100A107090F05FA01F108430D49083150
:1034D000A21041F8220070BD10B504460CB1012CB9
:1034E00000D105E04FF41E71AFF23860FCF7C2FE68
:1034F0000548046010BD0000000800800010008036
:103500000020008000000140DC00204210B504468D
:10351000FE4884420BD0FE48844208D0FD488442D5
:1035200005D0FD48844202D0FC48844200D103E02B
:103530008521FBA0FCF79EFEF448844209D10121BD
:103540008803FEF714FD00214FF48040FEF70FFDC5
:1035500032E0EF48844209D101214804FEF730FDF2
:1035600000214FF40030FEF72BFD25E0E9488442AE
:1035700009D101218804FEF723FD00214FF48020AA
:10358000FEF71EFD18E0E448844209D10121C80479
:10359000FEF716FD00214FF40020FEF711FD0BE0B1
:1035A000DE48844208D101210805FEF709FD00210B
:1035B0004FF48010FEF704FD10BD2DE9F04786B0F2
:1035C00005460C460026B24600BFB1460027CF484C
:1035D00085420BD0CE48854208D0CE48854205D0E2
:1035E000CD48854202D0CD48854200D103E0B821C4
:1035F000CBA0FCF73FFE206820B1D8492068884264
:1036000000D203E0B921C6A0FCF734FEA08818B1AF
:10361000A088B0F5805F00D103E0BA21C0A0FCF71C
:1036200029FEE08858B1E088B0F5805F07D0E088D7
:10363000B0F5005F03D0E088B0F5405F00D103E053
:10364000BB21B7A0FCF716FE208938B12089B0F560
:10365000806F03D02089B0F5C06F00D103E0BC219A
:10366000AFA0FCF707FE60894FF6F371084202D164
:10367000608900B103E0BD21A9A0FCF7FBFDA08992
:1036800058B1A089B0F5807F07D0A089B0F5007F40
:1036900003D0A089B0F5407F00D103E0BE21A0A0F7
:1036A000FCF7E8FDA08968B19848854205D09848A4
:1036B000854202D09748854200D103E0C22198A0FC
:1036C000FCF7D8FD2F462E8A4CF6FF700640E088A6
:1036D00006432E82AE894EF6F3100640A08821895B
:1036E0000843618908430643AE81AE8A4FF6FF4026
:1036F0000640A0890643AE8201A8FEF753FB83482B
:10370000874202D1DDF810A001E0DDF80CA0A88905
:1037100010F4004F08D00AEBCA0000EB0A10216831
:103720004900B0FBF1F807E00AEBCA0000EB0A1011
:1037300021688900B0FBF1F86420B8FBF0F00601C5
:103740003009642101FB1089A88910F4004F08D0CA
:10375000322000EBC900B0FBF1F000F00700064397
:1037600008E0322000EB09106421B0FBF1F000F01A
:103770000F0006432E8106B0BDE8F0874FF41651C6
:10378000016000218180C18001810C2141810021E3
:103790008181704770B505460C4600265B4885421E
:1037A00005D05B48854202D05A48854200D104E0EA
:1037B0004FF499715AA0FCF75DFD208818B120885C
:1037C000B0F5006F00D104E040F2331154A0FCF7D3
:1037D00051FD608818B16088B0F5806F00D104E0B9
:1037E0004FF49A714EA0FCF745FDA08818B1A0884F
:1037F000B0F5007F00D104E040F2351148A0FCF79D
:1038000039FDE08818B1E088B0F5807F00D104E090
:103810004FF49B7142A0FCF72DFD2E8A4FF2FF0062
:103820000640208861880843A1880843E18808434E
:1038300006432E8270BD0021018041808180C180BD
:10384000704770B504460D46304884420BD030486E
:10385000844208D02F48844205D02F48844202D0A9
:103860002E48844200D104E04FF4B1712CA0FCF743
:1038700001FD0DB1012D00D104E040F2631128A03B
:10388000FCF7F8FC25B1A08940F40050A08104E0C9
:10389000A0894DF6FF710840A08170BD2DE9F04769
:1038A00005460C4617464FF00008C246C1460026A2
:1038B000164885420BD01648854208D015488542E7
:1038C00005D01548854202D01448854200D104E055
:1038D00040F2891112A0FCF7CDFC282C43D0A4F5AE
:1038E000E06027383FD0A4F5C06026383BD0A4F56F
:1038F000A060253837D0A4F58060243833D0A4F5F3
:10390000006046382FD0B0F5927029E000380140B1
:103910000044004000480040004C0040005000407F
:103920004C69627261726965735C53544D333246FF
:103930003130785F5374645065726970685F4472A7
:10394000697665725C7372635C73746D3332663171
:1039500030785F75736172742E63000021AA440091
:1039600001D0602C00D105E04FF4C571AFF25000DA
:10397000FCF780FC0FB1012F00D105E040F28B1164
:10398000AFF26400FCF776FCA4F510606A380FD142
:10399000F948854205D0F948854202D0F848854269
:1039A00000D105E040F28F11AFF28C00FCF762FC11
:1039B0002E46C4F3421804F01F0A012000FA0AF947
:1039C000B8F1010F01D10C3605E0B8F1020F01D1B9
:1039D000103600E0143627B1306840EA0900306044
:1039E00003E0306820EA09003060BDE8F08770B578
:1039F00004460D461646E04884420BD0DF48844218
:103A000008D0DF48844205D0DE48844202D0DE4838
:103A1000844200D105E040F2C311AFF2FC00FCF794
:103A200029FC4FF63F70054201D105B105E04FF486
:103A3000E271AFF21410FCF71DFC0EB1012E00D1A3
:103A400005E040F2C511AFF22810FCF713FC1EB1DF
:103A5000A08A2843A08202E0A08AA843A08270BD69
:103A600070B504460D46C44884420BD0C348844216
:103A700008D0C348844205D0C248844202D0C2481C
:103A8000844200D105E040F2DF11AFF26C10FCF788
:103A9000F1FB0F2D00DC05E04FF4F071AFF2801068
:103AA000FCF7E8FB208A4FF6F07108402082208A5C
:103AB0002843208270BD70B504460D46AE4884424E
:103AC0000BD0AE48844208D0AD48844205D0AD4802
:103AD000844202D0AC48844200D105E04FF4FB712F
:103AE000AFF2C410FCF7C6FB15B1B5F5006F00D1FD
:103AF00005E040F2F711AFF2D810FCF7BBFBA0894C
:103B00004FF2FF710840A081A0892843A08170BDB9
:103B100070B504460D46984884420BD097488442BD
:103B200008D09748844205D09648844202D09648EF
:103B3000844200D105E040F20921AFF21C20FCF7DD
:103B400099FB0DB1012D00D105E040F20A21AFF241
:103B50003020FCF78FFB25B1A08940F00200A08146
:103B600004E0A0894FF6FD710840A08170BD70B5DA
:103B700004460D46804884420BD08048844208D0D9
:103B80007F48844205D07F48844202D07E488442E8
:103B900000D105E040F22621AFF27C20FCF76AFB61
:103BA0000DB1202D00D105E040F22721AFF2902089
:103BB000FCF760FB208A4FF6DF7108402082208AE4
:103BC0002843208270BD70B504460D466A48844281
:103BD0000BD06A48844208D06948844205D06948BD
:103BE000844202D06848844200D105E040F2392185
:103BF000AFF2D420FCF73EFB0DB1012D00D105E062
:103C000040F23A21AFF2E820FCF734FB25B1208ADC
:103C100040F48040208204E0208A4BF6FF71084087
:103C2000208270BD70B504460D46534884420BD0C7
:103C30005248844208D05248844205D051488442B8
:103C400002D05148844200D105E040F25321AFF246
:103C50003030FCF70FFBB5F5007F00DA05E04FF4DC
:103C60001571AFF24430FCF705FBC5F30800A080E6
:103C700070BD10B50446404884420BD03F48844292
:103C800008D03F48844205D03E48844202D03E4896
:103C9000844200D105E04FF41971AFF27C30FCF79B
:103CA000E9FAA088C0F3080010BD10B504463248F8
:103CB00084420BD03148844208D03148844205D038
:103CC0003048844202D03048844200D105E04FF4AD
:103CD0001D71AFF2B430FCF7CDFAA08940F00100BD
:103CE000A08110BD70B504460D462348844205D01E
:103CF0002248844202D02248844200D105E04FF499
:103D00002171AFF2E430FCF7B5FA208BC0B220830A
:103D1000208B40EA0520208370BD70B504460D4617
:103D2000154884420BD01548844208D01448844278
:103D300005D01448844202D01348844200D105E0E3
:103D40004FF42671AFF22840FCF794FA208B00F470
:103D50007F402083208B2843208370BD70B50446AC
:103D60000D460548844205D00448844202D00448E8
:103D700084420BD110E000000038014000440040B4
:103D800000480040004C00400050004040F2AB2191
:103D9000AFF27440FCF76EFA0DB1012D00D105E0D1
:103DA0004FF42B71AFF28840FCF764FA25B1A08A7A
:103DB00040F02000A08204E0A08A4FF6DF710840A6
:103DC000A08270BD70B504460D46F848844205D007
:103DD000F748844202D0F748844200D105E04FF40E
:103DE0003171AFF2C440FCF745FA0DB1012D00D19D
:103DF00005E040F2C521AFF2D840FCF73BFA25B10F
:103E0000A08A40F01000A08204E0A08A4FF6EF7173
:103E10000840A08270BD70B504460D46E348844258
:103E20000BD0E348844208D0E248844205D0E248FF
:103E3000844202D0E148844200D105E040F2DE2114
:103E4000AFF22450FCF716FA0DB1012D00D105E0B8
:103E500040F2DF21AFF23850FCF70CFA25B1A08A0E
:103E600040F00800A08204E0A08A4FF6F7710840F5
:103E7000A08270BD70B504460D46CC4884420BD07C
:103E8000CB48844208D0CB48844205D0CA488442FB
:103E900002D0CA48844200D105E040F2FD21AFF2D1
:103EA0008050FCF7E7F90DB1012D00D105E040F29B
:103EB000FE21AFF29450FCF7DDF925B1A08940F462
:103EC0000040A08103E0A089C0F30E00A08170BD76
:103ED00070B504460D46B54884420BD0B4488442C0
:103EE00008D0B448844205D0B348844202D0B348D5
:103EF000844200D105E04FF44671AFF2DC50FCF78C
:103F0000B9F90DB1012D00D105E040F21931AFF240
:103F1000F050FCF7AFF925B1A08A40F40060A08210
:103F200004E0A08A4FF2FF710840A08270BD70B516
:103F300004460D469D4884420BD09D48844208D0DB
:103F40009C48844205D09C48844202D09B488442CD
:103F500000D105E040F23531AFF23C60FCF78AF960
:103F6000042D00D005B905E040F23631AFF25060C3
:103F7000FCF780F9A08A4FF6FB710840A082A08A66
:103F80002843A08270BD70B504460D468748844220
:103F90000BD08748844208D08648844205D08648A2
:103FA000844202D08548844200D105E04FF452712A
:103FB000AFF29460FCF75EF90DB1012D00D105E080
:103FC00040F24931AFF2A860FCF754F925B1A08A5C
:103FD00040F00200A08204E0A08A4FF6FD71084084
:103FE000A08270BD70B505460C4600266F4885421C
:103FF0000BD06F48854208D06E48854205D06E4888
:10400000854202D06D48854200D105E040F26E3114
:10401000AFF2F460FCF72EF9012C13D0802C11D0F4
:10402000402C0FD0202C0DD0102C0BD0B4F5807F5D
:1040300008D0B4F5007F05D0082C03D0042C01D0A3
:10404000022C00D105E040F26F31AFF22C70FCF78A
:1040500011F9B4F5007F0FD15448854205D054487A
:10406000854202D05348854200D105E040F27331C9
:10407000AFF25470FCF7FEF82888204201D00126E8
:1040800000E00026304670BD70B504460D46474836
:1040900084420BD04648844208D04648844205D02A
:1040A0004548844202D04548844200D105E040F2B0
:1040B0009E31AFF29470FCF7DDF84FF69F40054259
:1040C00001D105B105E040F29F31AFF2AC70FCF7D1
:1040D000D1F805F40070B0F5007F0FD13348844269
:1040E00005D03348844202D03248844200D105E0F2
:1040F00040F2A331AFF2D870FCF7BCF8E84320805F
:1041000070BD2DE9F04705460C4600270026B04655
:10411000B146264885420BD02548854208D025481F
:10412000854205D02448854202D02448854200D1EA
:1041300005E040F2C131AFF61800FCF79BF8282CDF
:104140001FD0A4F5E06027381BD0A4F5C060263846
:1041500017D0A4F5A060253813D0A4F580602438CA
:104160000FD0A4F5006046380BD0B0F5927008D09F
:10417000B4F5587F05D0B4F5187F02D0B4F5B07F00
:1041800000D105E040F2C231AFF66C00FCF772F8E6
:10419000A4F510606A3819D10448854205D0044856
:1041A000854202D0034885420AD10FE00038014021
:1041B0000044004000480040004C004000500040D7
:1041C00040F2C631AFF6A800FCF754F8C4F3421829
:1041D00004F01F06012000FA06F6B8F1010F02D123
:1041E000A889064007E0B8F1020F02D1288A0640EC
:1041F00001E0A88A06402712012000FA07F7288864
:1042000007401EB117B14FF0010901E04FF000095E
:104210004846BDE8F0872DE9F04104460D460026EA
:104220000027244884420BD02348844208D02348E6
:10423000844205D02248844202D02248844200D1E0
:1042400005E040F20A41AFF62810FCF713F8A5F597
:10425000C06026380AD0A5F5A060253806D0A5F59F
:104260000060463802D0B0F5927000D105E040F20F
:104270000B41AFF65410FBF7FDFFA5F510606A384F
:104280000FD10C48844205D00B48844202D00B4821
:10429000844200D105E040F20F41AFF67C10FBF7FD
:1042A000E9FF2E120120B04087B2F8432080BDE81C
:1042B000F081000000380140004400400048004008
:1042C000004C00400050004010B50446F7488442BE
:1042D0002AD0F6481430844226D0F448283084424C
:1042E00022D0F2483C3084421ED0F0485030844204
:1042F0001AD0EE486430844216D0EC4878308442BC
:1043000012D0EB4884420FD0E948143084420BD0DD
:10431000E7482830844207D0E5483C30844203D047
:10432000E3485030844200D103E06F21E1A0FBF765
:10433000A1FF20684FF6FE71084020600020206039
:104340006060A060E060D948844208D1D74808384E
:10435000406840F00F00D549083948608AE0D348EA
:104360001430844208D1D1480838406840F0F00049
:10437000CE49083948607DE0CC482830844208D1D5
:10438000CA480838406840F47060C8490839486035
:1043900070E0C6483C30844208D1C44808384068C0
:1043A00040F47040C1490839486063E0BF4850306C
:1043B000844208D1BD480838406840F47020BB49A9
:1043C0000839486056E0B9486430844208D1B7489B
:1043D0000838406840F47000B4490839486049E042
:1043E000B2487830844208D1B0480838406840F07C
:1043F0007060AE49083948603CE0AD48844206D15F
:10440000001F006840F00F00211F086032E0A8483C
:104410001430844208D1A648001F006840F0F00024
:10442000A349091F086025E0A1482830844208D12B
:104430009F48001F006840F470609D49091F086094
:1044400018E09B483C30844208D19948001F00681E
:1044500040F470409649091F08600BE094485030C2
:10446000844207D19248001F006840F470209049B0
:10447000091F086010BD70B505460C4600268B4824
:1044800085422AD089481430854226D08748283072
:10449000854222D085483C3085421ED0834850302A
:1044A00085421AD081486430854216D07F487830E2
:1044B000854212D07E4885420FD07D481430854217
:1044C0000BD07B482830854207D079483C30854264
:1044D00003D077485030854200D103E0CF2175A04A
:1044E000FBF7C8FEA068102801D0A06800B903E05F
:1044F000D02170A0FBF7BEFEE06820B1E068B0F507
:10450000803F00D203E0D1216AA0FBF7B3FE20690F
:10451000402801D0206900B903E0D22165A0FBF753
:10452000A9FE6069802801D0606900B903E0D32149
:1045300060A0FBF79FFEA06938B1A069B0F5807F4D
:1045400003D0A069B0F5007F00D103E0D42159A0C9
:10455000FBF790FEE06938B1E069B0F5806F03D0F9
:10456000E069B0F5006F00D103E0D52151A0FBF761
:1045700081FE206A202801D0206A00B903E0D621FC
:104580004CA0FBF777FE606AB0F5405F09D0606A27
:10459000B0F5005F05D0606AB0F5805F01D0606A59
:1045A00000B903E0D72143A0FBF764FEA06AB0F591
:1045B000804F01D0A06A00B903E0D8213DA0FBF7ED
:1045C00059FE2E6847F6F0708643216AA0680843BA
:1045D0002169084361690843A1690843E169084307
:1045E000616A0843A16A084306432E60E068686078
:1045F0002068A8606068E86070BD002101604160CB
:104600008160C160016141618161C161016241629A
:104610008162704770B504460D46244884422AD012
:1046200022481430844226D020482830844222D0A8
:104630001E483C3084421ED01C48503084421AD060
:104640001A486430844216D018487830844212D018
:10465000174884420FD01648143084420BD01448B7
:104660002830844207D012483C30844203D010489E
:104670005030844200D104E040F229110DA0FBF734
:10468000F9FD0DB1012D00D104E04FF4957109A0A1
:10469000FBF7F0FD25B1206840F00100206004E048
:1046A00020684FF6FE710840206070BD080002408F
:1046B000080402404C69627261726965735C53540C
:1046C0004D3332463130785F53746450657269708F
:1046D000685F4472697665725C7372635C73746D53
:1046E0003332663130785F646D612E630000000004
:1046F00070B504460D461646FE4884422AD0FD4851
:104700001430844226D0FB482830844222D0F94815
:104710003C3084421ED0F748503084421AD0F548CD
:104720006430844216D0F3487830844212D0F24884
:1047300084420FD0F048143084420BD0EE48283029
:10474000844207D0EC483C30844203D0EA485030E1
:10475000844200D105E040F24911AFF2A800FBF716
:1047600089FD35F00E0001D105B105E04FF4A571CA
:10477000AFF2C000FBF77EFD0EB1012E00D105E0C7
:1047800040F24B11AFF2D400FBF774FD1EB120686C
:104790002843206002E02068A843206070BD70B507
:1047A00004460D46D34884422AD0D248143084426D
:1047B00026D0D0482830844222D0CE483C30844293
:1047C0001ED0CC48503084421AD0CA48643084424B
:1047D00016D0C8487830844212D0C74884420FD0DF
:1047E000C548143084420BD0C3482830844207D0D7
:1047F000C1483C30844203D0BF485030844200D18D
:1048000005E04FF4B271AFF25410FBF733FD656071
:1048100070BD10B50446B74884422AD0B54814305C
:10482000844226D0B3482830844222D0B1483C305C
:1048300084421ED0AF48503084421AD0AD48643014
:10484000844216D0AB487830844212D0AA488442C1
:104850000FD0A948143084420BD0A7482830844296
:1048600007D0A5483C30844203D0A348503084424E
:1048700000D105E04FF4BB71AFF2C810FBF7FAFCB2
:10488000606880B210BD70B5044600250026012C7A
:104890007ED0022C7CD0042C7AD0082C7ED0102C18
:1048A0007CD0202C7AD0402C78D0802C76D0B4F5D7
:1048B000807F73D0B4F5007F70D0B4F5806F6DD079
:1048C000B4F5006F6AD0B4F5805F67D0B4F5005FCF
:1048D00064D0B4F5804F61D0B4F5004F5ED0B4F52C
:1048E000803F5BD0B4F5003F58D0B4F5802F55D051
:1048F000B4F5002F52D0B4F5801F4FD0B4F5001F8F
:104900004CD0B4F5800F49D0B4F5000F46D0B4F1C7
:10491000807F43D0B4F1007F40D0B4F1806F3DD0B0
:10492000B4F1006F3AD07548844237D0A4F180507A
:10493000801E33D0801E31D0001F2FD008382DD0DC
:1049400010382BD0203829D0403827D06B48FF3082
:10495000844223D06A48844220D06A4884421DD0D1
:10496000694884421AD0B4F1102F17D04FEAF030C2
:10497000844213D06548844210D0654884420DD0EB
:10498000644884420AD06448844207D0634800E007
:1049900004E0844202D06248844200D105E040F243
:1049A000B711AFF2F020FBF765FC14F0805F03D085
:1049B00051480838066802E04E4808380668264222
:1049C00001D0012500E00025284670BD10B5044641
:1049D00014F0704F02D05348044201D104B105E0F5
:1049E00040F20E21AFF23430FBF744FC14F0805F4C
:1049F00003D04148001F046002E03E48083844608C
:104A000010BD70B5044600250026012C70D0022C84
:104A10006ED0042C6CD0082C6AD0102C68D0202CBE
:104A200066D0402C64D0802C62D0B4F5807F5FD0FB
:104A3000B4F5007F5CD0B4F5806F59D0B4F5006F49
:104A400056D0B4F5805F53D0B4F5005F7FD0B4F595
:104A5000804F7CD0B4F5004F79D0B4F5803F76D04C
:104A6000B4F5003F73D0B4F5802F70D0B4F5002FAB
:104A70006DD0B4F5801F6AD0B4F5001F67D0B4F5CF
:104A8000800F64D0B4F5000F61D0B4F1807F5ED0A8
:104A9000B4F1007F5BD0B4F1806F58D0B4F1006FF7
:104AA00055D01648844252D0A4F18050801E4ED07A
:104AB000801E4CD0001F4AD0083848D0103846D04D
:104AC000203844D0403842D00C48FF3084423ED099
:104AD0000B4884423BD00B48844238D00A48844279
:104AE00035D0B4F1102F32D04FEAF03084421BE0C1
:104AF0002DE0000008000240080402400100001000
:104B00000002001000040010000800100040001017
:104B100000800010000001100000021000000410CE
:104B2000000008100000F0EF11D0214884420ED0A0
:104B3000204884420BD02048844208D01F48844239
:104B400005D01F48844202D01E48844200D105E0AF
:104B500040F25921AFF2A440FBF78CFB14F0805FC8
:104B600002D01948066801E018480668264201D0BC
:104B7000012500E00025284670BD10B5044614F05C
:104B8000704F02D01248044201D104B105E040F256
:104B9000AF21AFF2E040FBF76DFB14F0805F03D074
:104BA0000948001D046001E00848446010BD000091
:104BB00000400010008000100000011000000210F2
:104BC0000000041000000810000402400000024031
:104BD0000000F0EF10B50446B4F5E06F0BD0B4F56B
:104BE000C06F08D0B4F5A06F05D0B4F5806F02D0C7
:104BF000B4F5407F00D103E063215EA0FBF73AFBF0
:104C0000684820436849086010BD2DE9F04104461A
:104C1000002500270F26E07810B1E078012800D1A8
:104C200003E0752153A0FBF725FB6078102800DA1C
:104C300003E076214FA0FBF71DFBA078102800DAD7
:104C400003E077214BA0FBF715FBE07808B356484B
:104C5000006800F4E060C0F5E060050AC5F10407F3
:104C6000EE40607800FA07F5A078304005432D014A
:104C70004E4822788554207800F01F01012088409A
:104C8000217849114FF0E02202EB8101C1F80001C7
:104C900009E0207800F01F01012088404449227873
:104CA000521141F82200BDE8F08170B504460D466E
:104CB000B4F1005F02D0B4F1006F00D103E09F2196
:104CC0002CA0FBF7D7FA3B48854200D203E0A02195
:104CD00028A0FBF7CFFA384905EA01002043324902
:104CE000091F086070BD70B504460D46102C03D036
:104CF000042C01D0022C00D103E0B2211DA0FBF74F
:104D0000B9FA0DB1012D00D103E0B32119A0FBF7D1
:104D1000B1FA3DB12448001D006820432249091D15
:104D2000086006E02048001D0068A0431E49091DD8
:104D3000086070BD10B50446042C01D0601D00D180
:104D400003E0CA210BA0FBF795FA042C08D14FF021
:104D5000E020006940F004004FF0E021086107E026
:104D60004FF0E020006920F004004FF0E0210861DE
:104D700010BD00004C69627261726965735C5354C6
:104D80004D3332463130785F5374645065726970C8
:104D9000685F4472697665725C7372635C6D697397
:104DA000632E63000000FA050CED00E000E400E073
:104DB00080E100E0FFFF0F0080FFFF1F09488047F0
:104DC00009480047FEE7FEE7FEE7FEE7FEE7FEE7ED
:104DD000FEE7FEE7FEE7FEE704480549054A064B05
:104DE00070470000CD17000831010008180C0020A2
:104DF00018120020180E0020180E002070471948C5
:104E00000068704770B5044604F0A6F805461548DA
:104E10000460284604F0A4F870BD10B5114800687D
:104E2000401C1049086003F0D3FA0446A06C401EF1
:104E3000A064A06C18B9606CA06403F0A1FB03F03F
:104E4000B4FE10BD0146002902DA4FF0FF3007E042
:104E500064224A4302F2E7324FF47A7392FBF3F092
:104E60007047000098000020002070470020704725
:104E7000002070470020704710B5094C02E0206800
:104E80008047241D07488442F9D310BD10B5054C56
:104E900002E020688047241D03488442F9D310BDF6
:104EA0000CAB000810AB000814AB00082DE9F04172
:104EB000064603F08DFA08B103F035F9A74D6C688A
:104EC00010E0A4F10C0708223146384601F0ABFE91
:104ED00038B903F07DFA08B103F033F93846BDE87C
:104EE000F0812468281D8442EBD103F071FA08B1E7
:104EF00003F027F90020F2E770B504460D46164688
:104F000014B94FF0FF3070BD2846FFF7CFFF10B146
:104F10004FF0FF30F7E72A460721204602F0B9FE9E
:104F2000E6820020A076208300BFECE710B504469F
:104F300024B94D228A498BA002F0F3F9204602F0F1
:104F4000CEFE002010BD0020704770B5044600253D
:104F500024B99A22874983A002F0E3F9606A90B1EC
:104F6000A07D10F0100F0ED12046616A88470546DB
:104F70002DB12A46214680A002F0F3F803E0E08A32
:104F800040F01000E082284670BD70B504460E4621
:104F9000002524B9BD22864972A002F0C2F9A07D85
:104FA00010F0100F11D1606A58B12046616A88472D
:104FB000054635B12A4621466FA002F0D2F82846B0
:104FC00070BDE08A40F01000E082A07D10F0080F74
:104FD00006D0207E10F0080F02D06FF00600EFE739
:104FE000A06A28B131462046A26A9047054603E0F0
:104FF00040F60F70304020830DB1A81D0DD1208BDD
:1050000040F008002083A07E401CA076A07E20B93E
:10501000EB22674967A002F084F92846D0E770B513
:105020000446002524B9FD2267494EA002F079F913
:10503000A07E10B94FF0FF3070BDA07E401EA0765C
:10504000A07E08B10020F7E7E06A18B12046E16AC7
:10505000884705460DB1A81D01D1002020832846B0
:10506000EAE72DE9F04104460D4616461F462CB9E5
:105070004FF4937255493BA002F053F9A07E30B92A
:105080004FF0FF3001F0C2FC0020BDE8F081206B42
:1050900038B13B46324629462046D4F830C0E04776
:1050A000F3E76FF0050001F0B1FC0020EDE72DE91A
:1050B000F04104460D4616461F462CB94FF4A67221
:1050C000434928A002F02DF9A07E30B94FF0FF30FF
:1050D00001F09CFC0020BDE8F081606B38B13B46DC
:1050E000324629462046D4F834C0E047F3E76FF053
:1050F000050001F08BFC0020EDE770B504460D467D
:1051000016462CB94FF4B672324916A002F009F9CE
:10511000A06B28B1324629462046A36B984770BD44
:105120006FF00500FBE770B504460D462CB940F260
:10513000851229490BA002F0F4F8E561002070BD4A
:1051400070B504460D462CB94FF4CD72234905A025
:1051500002F0E7F82562002070BD00004801002041
:10516000A2A3000864657620213D2052545F4E556D
:105170004C4C0000B7A30008546F20696E69746935
:10518000616C697A65206465766963653A25732088
:105190006661696C65642E20546865206572726F63
:1051A0007220636F64652069732025640A00000023
:1051B000C6A300086465762D3E7265665F636F75F1
:1051C0006E7420213D203000D5A30008E5A300081F
:1051D000F4A3000804A4000816A4000830A40008E2
:1051E0003B490860704770B544E000BF03F0B4FE6F
:1051F000064601F0F1FB40B1364937A001F0B1FF9E
:10520000652234493DA002F08CF8304603F0A8FE38
:1052100000BF03F0A1FE054600F051F8E0B13848A8
:105220000068A0F1140404F11400D0E900215160D9
:10523000D0E9001211604060006000BFA06F10B1A3
:105240002046A16F8847204602F0D1FD012807D1F2
:10525000284603F085FE70BD284603F081FEFAE77C
:10526000284603F07DFEA06A02F0A3FA204602F071
:1052700094FD00BF00F023F80028B6D100BFEAE794
:1052800007E01348006810B1114800688047FFF735
:10529000AAFFF6E71FB520201F21C200194BCDE958
:1052A0000032CDE902100023174A18A1194803F073
:1052B0006AF8184803F0C1F81FBD16487047104936
:1052C0000868884201D0012070470020FCE70000F8
:1052D0009C0000204AA4000846756E6374696F6ED6
:1052E0005B25735D207368616C6C206E6F74207534
:1052F00073656420696E204953520A003000000033
:105300008C01002018090020815200087469646C27
:1053100065000000980800204268116042684A60F9
:105320004160086070472DE9F04105460C46904603
:10533000204603F053F9B8F1000F03D0B8F1010F84
:1053400023D105E004F114012846FFF7E5FF1CE036
:105350002E680FE0A6F1140794F8350097F8351081
:10536000884206DA04F1140107F11400FFF7D4FFB4
:1053700002E03668AE42EDD100BFAE4204D104F186
:1053800014012846FFF7C8FF00BF00BF0020BDE89A
:10539000F08170B505460EE003F0DEFD0646286894
:1053A000A0F114044FF0FF302063204603F013F8FF
:1053B000304603F0D5FD284601F0B2FA0028EBD0C4
:1053C000002070BD2DE9F04104460D4616461F46EB
:1053D00024B9D822FD49FEA001F0A3FF2A460121ED
:1053E000204602F056FC204601F0A2FAA68367721E
:1053F0000020BDE8F08110B5044624B9F522F84933
:10540000F3A001F08EFF04F11400FFF7C2FF204665
:1054100002F065FC002010BD2DE9F04105460E4666
:10542000174600BF03F098FD804601F0D5FA48B159
:10543000EC49EDA001F095FE40F21112E949F3A00C
:1054400001F06FFF404603F08BFD00BF29460120AD
:1054500002F061FC044614B92046BDE8F081204604
:1054600001F066FAA68367722046F6E770B5044637
:1054700000BF03F071FD054601F0AEFA48B1E44902
:10548000D9A001F06EFE4FF49872E149DFA001F05F
:1054900048FF284603F064FD00BF2CB94FF4997211
:1054A000DB49CBA001F03DFF04F11400FFF771FFD1
:1054B000204602F072FC002070BD2DE9F341054644
:1054C0002DB940F24D12D349C1A001F02AFF00BF0F
:1054D000D148006818B12846CF490968884700BFFD
:1054E00003F03AFD064600BF00BFA88B002806DD8A
:1054F000A88B401EA883304603F032FD57E0019888
:1055000030B9304603F02CFD6FF00100BDE8FC819E
:1055100000BF03F021FD074602F05AFF48B9BD491C
:10552000BEA001F01EFE40F26D12BA49B7A001F014
:10553000F8FE00BF03F010FD804601F04DFA48B1BF
:10554000B449A9A001F00DFE40F26D12B149AFA01F
:1055500001F0E7FE404603F003FD00BF384603F0CC
:10556000FFFC00BF02F034FF04460020206300BFB0
:1055700000BF6A7A214605F11400FFF7D4FE0198B6
:1055800000280BDD00BF00BF01AA002104F14C0080
:1055900003F0E5FA04F14C0003F027FA304603F07B
:1055A000DFFC02F01BFD206B08B1206BAEE700BFF3
:1055B000A848006818B12846A6490968884700BF6E
:1055C0000020A3E710B5044600212046FFF775FF31
:1055D00010BD70B5044600BF9F48006818B1204652
:1055E0009D490968884700BF002503F0B5FC0646C1
:1055F00000BF00BF04F1140001F092F928B904F1D2
:10560000140001F09DF9012502E0A08B401CA0834D
:10561000304603F0A5FC012D01D102F0DFFC002093
:1056200070BD2DE9F04104460E4615462CB94FF4E5
:10563000F2728A4966A001F074FE012E10D12F4645
:1056400003F08AFC804604F11400FFF7A2FEA78352
:10565000404603F085FC02F0C1FC0020BDE8F0816B
:105660004FF0FF30FAE770B504460D4616462CB9E8
:1056700040F20F227A497BA001F053FE2A46022114
:10568000204602F006FB204601F052F90120A083DB
:1056900000202062FF20A0770020E077667270BDB6
:1056A00010B504462CB940F22E2273496DA001F0CA
:1056B00038FE04F11400FFF76CFE204602F00FFBE9
:1056C000002010BD2DE9F04105460E4600BF03F055
:1056D00043FC074601F080F948B1684942A001F057
:1056E00040FD40F24922654948A001F01AFE3846C3
:1056F00003F036FC00BF2946022002F00CFB0446F2
:1057000014B92046BDE8F081204601F011F90120CE
:10571000A08300202062FF20A0770020E07766723F
:105720002046EFE770B5044600BF03F015FC0546C0
:1057300001F052F948B152492BA001F012FD40F29C
:105740006A224F4931A001F0ECFD284603F008FC25
:1057500000BF2CB94FF41B72494942A001F0E1FD92
:1057600004F11400FFF715FE204602F016FB00209E
:1057700070BD2DE9F341044600BF03F0EDFB074681
:1057800002F026FE48B93F4924A001F0EAFC4FF49C
:1057900022723C491DA001F0C4FD00BF03F0DCFBF8
:1057A000804601F019F948B136490FA001F0D9FC43
:1057B0004FF42272334915A001F0B3FD404603F0C7
:1057C000CFFB00BF384603F0CBFB5DE060A40008D0
:1057D00073656D20213D2052545F4E554C4C0000A6
:1057E0006CA400087AA4000846756E6374696F6E35
:1057F0005B25735D207368616C6C206E6F7420751F
:1058000073656420696E204953520A00300000001D
:1058100088A4000896A400087001002046756E63F5
:1058200074696F6E5B25735D207368616C6C206EAC
:105830006F742062652075736564206265666F729F
:1058400065207363686564756C657220737461723A
:10585000740A00007401002078010020A2A400084E
:10586000B1A400086D7574657820213D2052545F05
:105870004E554C4C00000000BFA40008CFA4000807
:10588000DFA40008EFA4000800BF34B940F28A2268
:10589000F749AFF2300001F044FD02F099FD0546F2
:1058A00003F05AFB064600BFF248006818B12046D4
:1058B000F0490968884700BF00BF00BF0020286387
:1058C000206AA84203D1E07F401CE0774EE000BF91
:1058D000A08B00280ADDA08B401EA083256295F8CE
:1058E0003500A077E07F401CE0773FE0019848B9A1
:1058F0006FF001002863304603F032FB6FF00100C7
:10590000BDE8FC8100BF00BF95F83500216A91F821
:105910003510884205DA05F135020221206A02F0CD
:105920003BFF627A294604F11400FFF7FCFC019862
:1059300000280BDD00BF00BF01AA002105F14C00CB
:1059400003F00DF905F14C0003F04FF8304603F079
:1059500007FB02F043FB286B28B1286B093000D10C
:10596000B6E7286BCCE703F0F7FA0646304603F0BB
:10597000F7FA00BFC048006818B12046BE49096860
:10598000884700BF0020BBE72DE9F047044600260A
:1059900000BF03F0E1FA804602F01AFD58B9B7499A
:1059A000AFF2881001F0DDFB40F21132B349AFF2E3
:1059B000A41001F0B6FC00BF03F0CEFA814601F05E
:1059C0000BF858B1AD49AFF2E01001F0CAFB40F25C
:1059D0001132AA49AFF2CC1001F0A3FC484603F003
:1059E000BFFA00BF404603F0BBFA00BF02F0F0FC74
:1059F000054603F0B1FA074600BF00BF00BFA0484C
:105A0000006818B120469E490968884700BF206A8F
:105A1000A84209D04FF0FF302863384603F0A0FABF
:105A20004FF0FF30BDE8F087E07F401EE077E07F79
:105A300008BBA07F216A91F83510884205D004F197
:105A40001E020221206A02F0A7FE04F1140000F0F9
:105A500067FF88B96069A0F1140500BF00BF256227
:105A600095F83500A077E07F401CE07704F1140042
:105A700000F066FF012606E0A08B401CA0830020FA
:105A80002062FF20A077384603F06AFA012E01D188
:105A900002F0A4FA0020C5E703464FF0FF3070473C
:105AA00070B504460D4616462CB940F27F32754952
:105AB00075A001F036FC2A460321204602F0E9F8E1
:105AC0006672204600F034FF0020E06170BD10B522
:105AD00004462CB940F29B3270496BA001F021FCC6
