:020000040800F2
:10000000280C002001370008A503000843790008E8
:10001000A7030008AB030008AF03000800000000BE
:10002000000000000000000000000000B303000812
:10003000B503000800000000CB7800082303000887
:100040001B3700081B3700081B3700081B37000848
:100050001B3700081B3700081B3700081B37000838
:100060001B3700081B3700081B3700081B37000828
:100070001B370008F90700081B370008570700085E
:100080007B0700081B3700081B370008B90300086E
:10009000B70300081B3700081B3700081B37000890
:1000A0001B3700081B3700081B3700081B370008E8
:1000B0001B3700081B3700081B3700081B370008D8
:1000C0001B3700081B3700081B3700081B370008C8
:1000D0001B37000845070008690700088D0700085E
:1000E0001B3700081B3700081B3700081B370008A8
:1000F0001B3700081B3700081B3700081B37000898
:100100001B3700081B3700081B3700081B37000887
:100110001B3700081B3700081B3700081B37000877
:100120001B3700081B3700081B3700081B37000867
:1001300000F002F800F05AF80AA090E8000C82449F
:100140008344AAF10107DA4501D100F04FF8AFF27C
:10015000090EBAE80F0013F0010F18BFFB1A43F0A5
:100160000103184788920000A89200000A444FF04B
:10017000000C10F8013B13F0070408BF10F8014B06
:100180001D1108BF10F8015B641E05D010F8016B4B
:10019000641E01F8016BF9D113F0080F1EBF10F8AF
:1001A000014BAD1C0C1B09D16D1E58BF01F801CBD2
:1001B000FAD505E014F8016B01F8016B6D1EF9D555
:1001C0009142D6D37047000000230024002500266A
:1001D000103A28BF78C1FBD8520728BF30C148BFAA
:1001E0000B6070471FB51FBD10B510BD08F0DFFCD8
:1001F0001146FFF7F7FF00F05AF808F0FDFC03B4D2
:10020000FFF7F2FF03BC08F001FD0000002804D056
:1002100090FAA0F0B0FA80F0401C704710B5044688
:1002200003F0D6FA10BD1CB54FF400510A4801F096
:100230005BFB14200821CC230022CDE90010AFF293
:10024000230106A006F0F1FD044614B1204606F095
:1002500096FD00201CBD000000100140696E69740D
:100260000000000004460D4614A005F01CFC2146C9
:100270001CA005F018FC29461FA005F014FC00BFC7
:10028000FEE710B500F055F805F03DFC1F49204889
:1002900005F0C6FD06F016FB07F078F907F082F9C5
:1002A000FFF7C1FF03F098FC06F028FB10BD10B566
:1002B00007F0F4FAFFF7E5FF002010BD0A0D205704
:1002C000726F6E6720706172616D65746572207601
:1002D000616C7565206465746563746564206F6E18
:1002E0000D0A00002020202020202066696C652057
:1002F0002025730D0A000000202020202020206CE3
:10030000696E65202025640D0A00000000000120B0
:10031000280C002010B500214FF0006003F067F9B1
:1003200010BD10B504F0CCFF03F019FA04F0DFFFA4
:1003300010BD70B5FFF7EEFF154800686422B0FBF2
:10034000F2F1481EB0F1807F00D319E0481E4FF053
:10035000E022506150170F22002806DA13010D4CDD
:1003600000F00F052D1F635502E013010A4C2354C2
:1003700000BF00204FF0E02290610720106100BF15
:1003800000F0B1FA05A005F003FC03F017FA70BD08
:100390005400002018ED00E000E400E07561727484
:1003A00031000000704700BFFEE700BFFEE700BF5E
:1003B000FEE7704770477047704700007FB50546FD
:1003C0000C4625B94A22F649F6A005F04CFC24B9A2
:1003D0004B22F349F8A005F046FCEE6B2068009034
:1003E000207900F00F00082803D10020ADF80400A8
:1003F00008E0207900F00F00092803D14FF4805065
:10040000ADF804002079C0F3011018B90020ADF850
:10041000060007E02079C0F30110012802D1400353
:10042000ADF806002079C0F3811018B90020ADF8AE
:10043000080011E02079C0F38110012804D14FF4A5
:10044000C060ADF8080007E02079C0F381100228F1
:1004500002D14002ADF808000020ADF80C000C20DD
:10046000ADF80A006946306801F049FD01213068A5
:1004700001F089FE002004B070BD70B58CB0054657
:10048000EC6BEE6CA86CC0F38F216161012240F22D
:100490002441206801F0A4FE0121084600F052FE2C
:1004A0000121022000F04EFEA06802F0AFFB2068A0
:1004B000001D01903068029000200390A86CC0F3EA
:1004C0008F20049000200590802006900020079047
:1004D00008902020099000020A9000200B9001A9AA
:1004E000A06802F06AFCE06802F012FF012202211B
:1004F000A06802F09FFD01224021206801F019FF51
:100500000121A06802F028FD207C8DF80000002069
:100510008DF801008DF8020001208DF80300684677
:1005200003F015F80CB070BD2DE9F04105460E46FC
:100530001746B84625B97422A3499AA005F093FB43
:10054000EC6B032E2AD0102E13D0112E2DD194F93E
:10055000040000F01F02012191409C4A430942F827
:10056000231000BF002240F22551206801F038FE20
:100570001BE094F9040000F01F02012191404209A0
:100580004FF0E02303EB8202C2F8001100BF01220A
:1005900040F22551206801F023FE06E0B8F5007F07
:1005A00002D12846FFF769FF00BF00BF0020BDE869
:1005B000F08170B505460E4625B99522844979A08B
:1005C00005F051FBEC6B288B10F4806F16D020687F
:1005D000008810F0800F08D1012240F226612068C7
:1005E00001F0FEFD4FF0FF3070BD206886800122D3
:1005F00040F22661206801F0F3FD07E02068868064
:1006000000BF2068008810F0400FFAD00120EBE70F
:1006100070B5044624B9B0226E4962A005F023FBF0
:10062000E56B4FF0FF362868008810F0200F02D0ED
:1006300028688088C6B2304670BD2DE9F041054675
:10064000EC6B07F02BF98046A06802F084FD61692D
:100650000E1AA069371AA661404607F023F92FB198
:10066000032040EA0721284607F0EDFD206801F04D
:10067000A2FFE06802F04CFEBDE8F0812DE9F041F8
:100680000546EC6B07F00AF90746D4E905100E1A87
:100690000021A161384607F005F92EB1032040EA98
:1006A0000621284607F0CFFDE06802F031FEBDE8E4
:1006B000F08170B50546EC6B24B9F622464947A097
:1006C00005F0D1FA40F22551206802F0BCF968B17A
:1006D0000121206802F028F918B90121284607F005
:1006E000B2FD40F22551206802F037FA40F2244171
:1006F000206802F0A8F910B12846FFF79EFF40F2EB
:100700002661206802F09FF990B1288B10F4806F69
:1007100003D00221284607F096FD002240F2266110
:10072000206801F05DFD40F22661206802F015FAB4
:100730000821206802F0F8F8012802D12846FFF7C6
:1007400067FF70BD10B504F0BBFD2848FFF7B1FF8F
:1007500004F0CDFD10BD10B504F0B2FD2348FFF745
:100760008DFF04F0C4FD10BD10B504F0A9FD2048B4
:10077000FFF79FFF04F0BBFD10BD10B504F0A0FD16
:100780001B48FFF77BFF04F0B2FD10BD10B504F06D
:1007900097FD1848FFF78DFF04F0A9FD10BD00007C
:1007A000308C000873657269616C20213D205254C1
:1007B0005F4E554C4C00000063666720213D20527F
:1007C000545F4E554C4C0000408C000880E100E026
:1007D0004E8C0008598C0008648C00087561727496
:1007E00020213D2052545F4E554C4C00A801002062
:1007F000FC0100205002002010B504F061FD6048AB
:10080000FFF73CFF04F073FD10BD10B5012105207A
:1008100000F0C3FC0121880300F0BFFC012105208A
:1008200000F0BBFC0121480400F0E0FC012109209C
:1008300000F0B3FC0121880400F0D8FC10BD08B51D
:1008400002208DF8020004208DF803000002ADF8AC
:10085000000069464B4800F03FFE18208DF8030069
:100860004FF40070ADF800006946464800F034FED1
:1008700004208DF803000820ADF8000069464148C7
:1008800000F02AFE18208DF803000420ADF80000C7
:1008900069463C4800F020FE04208DF80300400229
:1008A000ADF800006946384800F016FE18208DF8B3
:1008B00003004FF48060ADF800006946324800F054
:1008C0000BFE08BD38B5044620798DF800000020E5
:1008D0008DF8010001208DF802008DF803006846B4
:1008E00002F035FE38BD1CB5284903C9CDE9000129
:1008F000FFF78BFFFFF7A3FF254C4FF4E13000908B
:100900002448254908640846DDE90012C0E91112AF
:100910002046FFF7D7FF234640F203721FA11E486F
:1009200007F068FC1F4C4FF4E130009019481E4955
:1009300008640846DDE90012C0E911122046FFF7FD
:10094000C1FF234640F2037218A1174807F052FC7A
:10095000184C4FF4E13000900E48094908640846ED
:10096000DDE90012C0E911122046FFF7ABFF234674
:1009700040F2037210A1024807F03CFC1CBD0000CD
:100980005002002000080140000C0140708C00085B
:10099000000000201C8C0008A80100207561727402
:1009A000310000001C000020FC0100207561727401
:1009B00032000000380000207561727433000000BE
:1009C0000CB50020019000906B48006840F4803026
:1009D0006949086000BF6848006800F40030009072
:1009E0000198401C0190009818B90198B0F5A06FCB
:1009F000F1D16148006810F4003F02D0012000905E
:100A000001E0002000900098012842D15B48006876
:100A100040F01000594908600846006820F00300C3
:100A200008600846006840F00200086052484068CC
:100A3000514948600846406848600846406840F4AC
:100A4000806048600846406820F47C104860084692
:100A5000406840F4E81048600846006840F0807044
:100A6000086000BF4448006810F0007FFAD0424898
:100A7000406820F00300404948600846406840F064
:100A80000200486000BF3C48406800F00C000828A5
:100A9000F9D10CBD10B5FFF793FF10BD10B5364866
:100AA000006840F001003449086008464068344955
:100AB00008403149486008460068324908402E49DC
:100AC00008600846006820F48020086008464068F6
:100AD00020F4FE0048604FF41F008860FFF7DAFF43
:100AE0004FF000602849086010BD10B500210020BB
:100AF0000022214B5B6803F00C0121B1042906D0D0
:100B0000082928D107E0214B214C236027E01F4B07
:100B10001F4C236023E0184B5B6803F47010164BE6
:100B20005B6803F48032022303EB904022B9194B37
:100B30004343174C23600DE00F4B5B6813F4003FF9
:100B400004D0144B4343124C236003E00F4B434348
:100B50000F4C236003E00D4B0D4C236000BF00BF22
:100B6000054B5B68C3F303130B4CE15C084B1B683C
:100B7000CB40074C236010BD001002400020024013
:100B80000000FFF8FFFFF6FE08ED00E000127A001B
:100B90005400002000093D0058000020FE48006875
:100BA00040F00100FC49086008464068FB490840E5
:100BB000F949486008460068F9490840F649086064
:100BC0000846006820F4802008600846406820F449
:100BD000FE0048604FF41F008860704710B504465F
:100BE0002CB1B4F5803F02D0B4F5802F00D104E0E1
:100BF00040F21111EBA0FFF735FBE748006820F445
:100C00008030E54908600846006820F480200860CC
:100C1000B4F5803F03D0B4F5802F0ED106E0DE4856
:100C2000006840F48030DC49086007E0DA4800687A
:100C300040F4A020D849086000E000BF00BF10BD0C
:100C40002DE9F0410446002500260027212C13D071
:100C5000312C11D0392C0FD0412C0DD0612C0BD060
:100C60007A2C09D07B2C07D07C2C05D07D2C03D08E
:100C70007E2C01D07F2C00D104E040F23451C9A079
:100C8000FFF7F0FA6511012D02D1C348066806E0AE
:100C9000022D02D1C048066A01E0BF48466A04F04E
:100CA0001F050120A840304201D0012700E00027A5
:100CB0003846BDE8F08138B50020009000240025BA
:100CC00000BF3120FFF7BCFF05460098401C009094
:100CD0000098B0F5A06F01D0002DF2D03120FFF7C1
:100CE000AFFF08B1012400E00024204638BD70B5F4
:100CF000044600251F2C00DC04E04FF4A971A9A0D4
:100D0000FFF7B0FAA448056825F0F80545EAC405E0
:100D1000056070BD10B504460CB1012C00D104E093
:100D200040F265119FA0FFF79DFAAD48046010BD29
:100D300070B505460C4600262DB1B5F5803F02D0B2
:100D4000B5F5403F00D104E040F27F1195A0FFF7D8
:100D500089FA4CB3B4F5802F26D0B4F5002F23D0F8
:100D6000B4F5402F20D0B4F5801F1DD0B4F5A01FDE
:100D70001AD0B4F5C01F17D0B4F5E01F14D0B4F5E5
:100D8000001F11D0B4F5101F0ED0B4F5201F0BD0EA
:100D9000B4F5301F08D0B4F5401F05D0B4F5501F8E
:100DA00002D0B4F5601F00D104E04FF4C0717DA003
:100DB000FFF758FA7848466826F47C1645EA04009E
:100DC00006437548466070BD10B504460CB1012C51
:100DD00000D104E04FF4CA7172A0FFF743FA8048D3
:100DE000046610BD70B5044600251CB1012C01D06D
:100DF000022C00D104E04FF40E716AA0FFF732FA22
:100E00006548456825F003052543456070BD624887
:100E1000406800F00C00704770B5044600257CB1B6
:100E2000802C0DD0902C0BD0A02C09D0B02C07D04A
:100E3000C02C05D0D02C03D0E02C01D0F02C00D158
:100E400004E04FF4197157A0FFF70CFA52484568B7
:100E500025F0F0052543456070BD70B504460025BA
:100E60005CB1B4F5806F08D0B4F5A06F05D0B4F5CF
:100E7000C06F02D0B4F5E06F00D104E040F27E21F3
:100E800048A0FFF7EFF94448456825F4E06525439D
:100E9000456070BD70B5044600255CB1B4F5806F47
:100EA00008D0B4F5A06F05D0B4F5C06F02D0B4F58A
:100EB000E06F00D104E04FF426713AA0FFF7D2F9B9
:100EC0003548456825F4605545EAC405456070BD60
:100ED00070B504460D4614F0E00F01D104B104E0F2
:100EE00040F2BF212FA0FFF7BDF90DB1012D00D1B8
:100EF00004E04FF430712BA0FFF7B4F92DB1264870
:100F0000407A20432449487204E02348407AA043B1
:100F10002149487270BD10B504460CB1012C00D1B6
:100F200004E040F2DB211FA0FFF79CF92D4804608C
:100F300010BD70B50446002544B1B4F5804F05D00E
:100F4000B4F5004F02D0B4F5404F00D104E040F2B8
:100F5000023114A0FFF786F90F48456825F4404593
:100F60002543456070BD10B504461CB1012C01D06D
:100F7000042C00D104E04FF450710AA0FFF772F97D
:100F8000002019490870044981F82000012C2DD057
:100F9000042C33D12EE00000001002400000FFF8C6
:100FA000FFFFF6FE4C69627261726965735C5354AF
:100FB0004D3332463130785F5374645065726970D6
:100FC000685F4472697665725C7372635C73746D9A
:100FD0003332663130785F7263632E630000000045
:100FE00000004242D8004242201002400120F44951
:100FF000087004E00520F249087000E000BF00BF5F
:1010000010BD10B504460CB1012C00D105E040F232
:101010006131AFF27000FFF725F9EA48046010BDB6
:1010200010B50446B4F5807F05D0B4F5007F02D03A
:10103000B4F5407F00D105E040F27231AFF29C0080
:10104000FFF710F9DE482038006A2043DC492039D8
:10105000086210BD10B504460CB1012C00D105E0AA
:101060004FF46071AFF2C400FFF7FCF8D548443884
:10107000046010BD30B50021002200240023D04DB3
:10108000203D6D6805F00C0121B1042905D0082927
:1010900026D105E0CC4D056025E0CB4D056022E072
:1010A000C74D203D6D6805F47012C54D203D6D683B
:1010B00005F48034022505EB92421CB9C34D55431B
:1010C00005600CE0BE4D203D6D6815F4003F03D077
:1010D000BE4D5543056002E0BB4D5543056002E03F
:1010E000B94D056000BF00BFB54D203D6D6805F0EE
:1010F000F0010909B64D6B5C0568DD404560B04DF7
:10110000203D6D6805F4E061090AB14D6B5C4568EE
:10111000DD408560AA4D203D6D6805F46051C90A27
:10112000AB4D6B5C4568DD40C560A54D203D6D68ED
:1011300005F44041890BA74D6B5CC568B5FBF3F521
:10114000056130BD70B504460D4640F2575034EA93
:10115000000001D104B105E040F22B41AFF2BC1018
:10116000FFF780F80DB1012D00D105E040F22C41D0
:10117000AFF2D010FFF776F83DB1914820384069C2
:1011800020438F492039486106E08D482038406966
:10119000A0438B492039486170BD70B504460D46A7
:1011A0008D48044201D104B105E040F24A41AFF25A
:1011B0000C20FFF757F80DB1012D00D105E040F2EA
:1011C0004B41AFF22020FFF74DF83DB17C4820386D
:1011D000806920437A492039886106E078482038C0
:1011E0008069A04376492039886170BD70B5044696
:1011F0000D467A48044201D104B105E040F269414C
:10120000AFF26020FFF72EF80DB1012D00D105E0FF
:1012100040F26A41AFF27420FFF724F83DB168480C
:101220002038C069204366492039C86106E0644817
:101230002038C069A04362492039C86170BD70B5CB
:1012400004460D466448044201D104B105E040F271
:10125000A441AFF2B020FFF705F80DB1012D00D188
:1012600005E040F2A541AFF2C420FEF7FBFF3DB11F
:1012700053482038C068204351492039C86006E0EF
:101280004F482038C068A0434D492039C86070BD20
:1012900070B504460D465148044201D104B105E041
:1012A00040F2C341AFF20430FEF7DCFF0DB1012D77
:1012B00000D105E040F2C441AFF21830FEF7D2FF92
:1012C0003DB13F482038006920433D49203908613D
:1012D00006E03B4820380069A043394920390861BD
:1012E00070BD10B504460CB1012C00D105E04FF4DF
:1012F0009B61AFF25030FEF7B5FF324840380460D2
:1013000010BD10B504460CB1012C00D105E040F22F
:10131000E541AFF27030FEF7A5FF3148C46410BD5F
:1013200010B504463CB1052C05D0042C03D0062C86
:1013300001D0072C00D105E040F20551AFF29C30FE
:10134000FEF790FF1E482038C47110BD1C4820389D
:10135000406A40F080701A4920394862704770B581
:1013600004460025012C09D0022C07D0042C05D0FE
:10137000082C03D0102C01D0802C00D105E040F2C5
:101380007E51AFF2E030FEF76DFF0D4820388068E7
:10139000204201D0012500E00025284670BD10B58F
:1013A000044614F0600F01D104B105E040F2AB51E6
:1013B000AFF21040FEF756FF01482038847210BD8E
:1013C000201002408004424200127A0000093D00D1
:1013D00068000020780000200200C0FF0036018174
:1013E0000000424210B50446FC48844211D0FC483B
:1013F00084420ED0FB4884420BD0FB48844208D084
:10140000FA48844205D0FA48844202D0F94884421E
:1014100000D103E06F21F8A0FEF724FFEF488442DB
:1014200008D101210420FFF70AFF00210420FFF763
:1014300006FF46E0EA48844208D101210820FFF770
:10144000FEFE00210820FFF7FAFE3AE0E54884425C
:1014500008D101211020FFF7F2FE00211020FFF734
:10146000EEFE2EE0E048844208D101212020FFF763
:10147000E6FE00212020FFF7E2FE22E0DB48844266
:1014800008D101214020FFF7DAFE00214020FFF7BC
:10149000D6FE16E0D648844208D101218020FFF70D
:1014A000CEFE00218020FFF7CAFE0AE0D148844228
:1014B00007D101218015FFF7C2FE0021A015FFF71B
:1014C000BEFE10BD10B501210846FFF7B8FE002191
:1014D0000120FFF7B4FE10BD2DE9F05F05460C4674
:1014E0004FF00009CA4600260027B046B346BB4865
:1014F000854211D0BA4885420ED0BA4885420BD0F9
:10150000B948854208D0B948854205D0B8488542D7
:1015100002D0B848854200D103E0B221B6A0FEF760
:10152000A1FEE078A0B1E078042811D0E078282866
:101530000ED0E07848280BD0E078142808D0E07866
:10154000102805D0E0781C2802D0E078182800D1B7
:1015500003E0B321A8A0FEF785FE002010B9208883
:1015600000B103E0B421A4A0FEF77CFEE07800F017
:101570000F09E07810F0100F10D0A078012805D0E6
:10158000A078022802D0A078032800D103E0BB2174
:1015900099A0FEF767FEA07840EA0909207838B3E1
:1015A000D5F8008000261FE0012000FA06F7208809
:1015B00000EA070ABA4516D1B7000F2000FA07FB68
:1015C00028EA0B0809FA07F040EA0808E07828281A
:1015D00003D10120B040686105E0E078482802D1DD
:1015E0000120B0402861761C082EDDD3C5F80080AC
:1015F0002088FF282BDDD5F80480002623E006F1A3
:101600000800012101FA00F7208800EA070ABA451C
:1016100018D1B7000F2000FA07FB28EA0B0809FAD7
:1016200007F040EA0808E078282803D106F108000E
:1016300081406961E078482804D106F10800012161
:1016400081402961761C082ED9D3C5F80480BDE8F5
:10165000F09F4FF6FF710180022181700421C1705B
:10166000704770B505460C4600265C48854211D08F
:101670005B4885420ED05B4885420BD05A48854274
:1016800008D05A48854205D05948854202D0594869
:10169000854200D104E04FF48F7157A0FEF7E2FDC0
:1016A000012C25D0022C23D0042C21D0082C1FD0B3
:1016B000102C1DD0202C1BD0402C19D0802C17D0E2
:1016C000B4F5807F14D0B4F5007F11D0B4F5806FED
:1016D0000ED0B4F5006F0BD0B4F5805F08D0B4F530
:1016E000005F05D0B4F5804F02D0B4F5004F00D1B3
:1016F00004E040F21F1140A0FEF7B4FDA8682042AC
:1017000001D0012600E00026304670BD10B5044629
:101710003248844211D0324884420ED0314884424B
:101720000BD03148844208D03048844205D030483C
:10173000844202D02F48844200D104E04FF49A71D1
:101740002DA0FEF78FFDA06880B210BD70B50546D4
:101750000C4600262148854211D0214885420ED0F2
:10176000204885420BD02048854208D01F4885423A
:1017700005D01F48854202D01E48854200D104E0B2
:101780004FF4A2711CA0FEF76DFD012C25D0022C98
:1017900023D0042C21D0082C1FD0102C1DD0202C9D
:1017A0001BD0402C19D0802C17D0B4F5807F14D0DA
:1017B000B4F5007F11D0B4F5806F0ED0B4F5006F92
:1017C0000BD0B4F5805F08D0B4F5005F05D0B4F558
:1017D000804F02D0B4F5004F2CD131E00008014019
:1017E000000C0140001001400014014000180140AD
:1017F000001C0140002001404C6962726172696501
:10180000735C53544D3332463130785F53746450B7
:1018100065726970685F4472697665725C73726341
:101820005C73746D3332663130785F6770696F2E28
:101830006300000040F24511AFF24400FEF712FDD4
:10184000E868204201D0012600E00026304670BD45
:1018500010B50446FE48844211D0FE4884420ED0A2
:10186000FD4884420BD0FD48844208D0FC488442A5
:1018700005D0FC48844202D0FB48844200D105E0F8
:101880004FF4AD71AFF29000FEF7ECFCE06880B26F
:1018900010BD70B504460D46ED48844211D0ED48A8
:1018A00084420ED0EC4884420BD0EC48844208D0ED
:1018B000EB48844205D0EB48844202D0EA48844297
:1018C00000D105E040F26911AFF2D400FEF7CAFC86
:1018D000002008B905B105E04FF4B571AFF2E8009A
:1018E000FEF7C0FC256170BD70B504460D46D848B2
:1018F000844211D0D74884420ED0D74884420BD0BE
:10190000D648844208D0D648844205D0D54884427F
:1019100002D0D548844200D105E040F27911AFF2FF
:101920002810FEF79FFC002008B905B105E04FF430
:10193000BD71AFF23C10FEF795FC656170BD70B5EE
:1019400005460C461646C248854211D0C14885421C
:101950000ED0C14885420BD0C048854208D0C0484F
:10196000854205D0BF48854202D0BF48854200D19C
:1019700005E040F28D11AFF28010FEF773FC012CF0
:1019800025D0022C23D0042C21D0082C1FD0102CC1
:101990001DD0202C1BD0402C19D0802C17D0B4F592
:1019A000807F14D0B4F5007F11D0B4F5806F0ED0D5
:1019B000B4F5006F0BD0B4F5805F08D0B4F5005FCC
:1019C00005D0B4F5804F02D0B4F5004F00D105E04A
:1019D0004FF4C771AFF2E010FEF744FC0EB1012ED8
:1019E00000D105E040F28F11AFF2F410FEF73AFC9F
:1019F0000EB12C6100E06C6170BD70B504460D46FF
:101A00009348844211D0934884420ED09248844235
:101A10000BD09248844208D09148844205D0914826
:101A2000844202D09048844200D105E04FF4D27144
:101A3000AFF23C20FEF716FCE56070BD70B50446C1
:101A40000D464FF480368248844211D0814884424A
:101A50000ED0814884420BD08048844208D0804810
:101A6000844205D07F48844202D07F48844200D11E
:101A700005E040F2B511AFF28020FEF7F3FB002045
:101A800008B905B105E04FF4DB71AFF29420FEF721
:101A9000E9FB2E43A661A561A661A669A66970BD92
:101AA00070B505460C4600263DB1012D05D0022D2E
:101AB00003D0032D01D0042D00D105E04FF4E971CE
:101AC000AFF2CC20FEF7CEFBECB1012C1BD0022CE8
:101AD00019D0032C17D0042C15D0052C13D0062CAC
:101AE00011D0072C0FD0082C0DD0092C0BD00A2CAC
:101AF00009D00B2C07D00C2C05D00D2C03D00E2CAC
:101B000001D00F2C00D105E040F2D311AFF2183014
:101B1000FEF7A8FB554806684FF68070064046EA77
:101B2000051626435148066070BD10B504460CB139
:101B3000012C00D105E04FF4F371AFF24430FEF711
:101B400091FB4B48C46110BD2DE9F04704460E4699
:101B50000027B8460025A946012C77D0022C75D065
:101B6000042C73D0082C71D0A4F5A01010386DD0BF
:101B700020386BD0A4F5B010403867D0803865D0DD
:101B80003C48844262D03C4884425FD03B48844217
:101B90005CD03B48844259D03A48844256D0B4F590
:101BA000805F53D0B4F5EA1F50D0B4F5EB1F4DD091
:101BB000B4F5004F4AD03448844247D0A4F5001011
:101BC000801E7CD0801E7AD0001F78D0083876D056
:101BD000B4F1201F73D0303871D02C4884426ED0BD
:101BE0002B4884426BD02B48844268D02A488442D8
:101BF00065D02A48844262D0B4F5011F5FD02848DE
:101C000084425CD0401C844259D0801C844256D00F
:101C1000001D844253D022480F3084424FD02048C8
:101C20001F3084424BD01E483F30844247D01C486E
:101C30007F30844243D01A48FF3084423FD0194855
:101C400084423CD01848844239D02FE037E000006D
:101C500000080140000C0140001001400014014048
:101C600000180140001C014000200140000001401C
:101C700000002042000118000002180000031800B4
:101C800000081A00000C1A000100200000013000BA
:101C9000000230000004300000112000002020006D
:101CA000010000800002008000040080634884423C
:101CB00005D06348844202D06248844200D105E0E6
:101CC00040F22A21AFF2D040FEF7CCFA0EB1012E3D
:101CD00000D105E040F22B21AFF2E440FEF7C2FA5A
:101CE00004F00040B0F1004F02D15748C56901E04F
:101CF00055484568C4F30349A7B204F44010B0F551
:101D0000401F08D125F070654F48406820F0706092
:101D10004D49486013E004F48010B0F5801F07D1EE
:101D2000032000FA09F825EA080545F0706506E089
:101D3000600D000107FA00F0854345F0706526B19B
:101D4000600D010107FA01F0054304F00040B0F115
:101D5000004F02D13C48C56101E03B484560BDE809
:101D6000F08770B505460C4600265DB1012D09D0FF
:101D7000022D07D0032D05D0042D03D0052D01D051
:101D8000062D00D105E040F26521AFF29450FEF738
:101D900069FAECB1012C1BD0022C19D0032C17D0FE
:101DA000042C15D0052C13D0062C11D0072C0FD0E5
:101DB000082C0DD0092C0BD00A2C09D00B2C07D0E5
:101DC0000C2C05D00D2C03D00E2C01D00F2C00D1E3
:101DD00005E040F26621AFF2E050FEF743FAA007BB
:101DE000010F0F2000FA01F617480830A11050F833
:101DF0002100B04314490831A21041F822000846DE
:101E0000A11050F82100A107090F05FA01F10843BC
:101E10000D490831A21041F8220070BD10B50446EA
:101E20000CB1012C00D105E04FF41E71AFF2386007
:101E3000FEF718FA0548046010BD00000008008095
:101E4000001000800020008000000140DC002042E3
:101E500010B50446FE4884420BD0FE48844208D0A8
:101E6000FD48844205D0FD48844202D0FC488442AB
:101E700000D103E08521FBA0FEF7F4F9F448844289
:101E800009D101218803FFF7DAF900214FF48040DE
:101E9000FFF7D5F932E0EF48844209D10121480427
:101EA000FFF7F6F900214FF40030FFF7F1F925E0D4
:101EB000E948844209D101218804FFF7E9F90021AA
:101EC0004FF48020FFF7E4F918E0E448844209D198
:101ED0000121C804FFF7DCF900214FF40020FFF7CF
:101EE000D7F90BE0DE48844208D101210805FFF74D
:101EF000CFF900214FF48010FFF7CAF910BD2DE98A
:101F0000F04786B005460C460026B24600BFB146F3
:101F10000027CF4885420BD0CE48854208D0CE4816
:101F2000854205D0CD48854202D0CD48854200D1BA
:101F300003E0B821CBA0FEF795F9206820B1D8497D
:101F40002068884200D203E0B921C6A0FEF78AF9D2
:101F5000A08818B1A088B0F5805F00D103E0BA2155
:101F6000C0A0FEF77FF9E08858B1E088B0F5805F47
:101F700007D0E088B0F5005F03D0E088B0F5405F9F
:101F800000D103E0BB21B7A0FEF76CF9208938B17E
:101F90002089B0F5806F03D02089B0F5C06F00D1E3
:101FA00003E0BC21AFA0FEF75DF960894FF6F37145
:101FB000084202D1608900B103E0BD21A9A0FEF76B
:101FC00051F9A08958B1A089B0F5807F07D0A089C8
:101FD000B0F5007F03D0A089B0F5407F00D103E0C9
:101FE000BE21A0A0FEF73EF9A08968B198488542BD
:101FF00005D09848854202D09748854200D103E039
:10200000C22198A0FEF72EF92F462E8A4CF6FF70BB
:102010000640E08806432E82AE894EF6F310064055
:10202000A08821890843618908430643AE81AE8AAE
:102030004FF6FF400640A0890643AE8201A8FFF795
:1020400019F88348874202D1DDF810A001E0DDF8DD
:102050000CA0A88910F4004F08D00AEBCA0000EBCE
:102060000A1021684900B0FBF1F807E00AEBCA004A
:1020700000EB0A1021688900B0FBF1F86420B8FB7E
:10208000F0F006013009642101FB1089A88910F4E1
:10209000004F08D0322000EBC900B0FBF1F000F097
:1020A0000700064308E0322000EB09106421B0FB72
:1020B000F1F000F00F0006432E8106B0BDE8F08776
:1020C0004FF41651016000218180C18001810C21F3
:1020D000418100218181704770B505460C4600267C
:1020E0005B48854205D05B48854202D05A4885420C
:1020F00000D104E04FF499715AA0FEF7B3F820889C
:1021000018B12088B0F5006F00D104E040F233111F
:1021100054A0FEF7A7F8608818B16088B0F5806F0A
:1021200000D104E04FF49A714EA0FEF79BF8A0880E
:1021300018B1A088B0F5007F00D104E040F235115D
:1021400048A0FEF78FF8E08818B1E088B0F5807FEE
:1021500000D104E04FF49B7142A0FEF783F82E8A71
:102160004FF2FF000640208861880843A188084399
:10217000E188084306432E8270BD00210180418022
:102180008180C180704770B504460D463048844256
:102190000BD03048844208D02F48844205D02F48C5
:1021A000844202D02E48844200D104E04FF4B17141
:1021B0002CA0FEF757F80DB1012D00D104E040F23C
:1021C000631128A0FEF74EF825B1A08940F4005015
:1021D000A08104E0A0894DF6FF710840A08170BD88
:1021E0002DE9F04705460C4617464FF00008C24659
:1021F000C1460026164885420BD01648854208D0B5
:102200001548854205D01548854202D014488542BC
:1022100000D104E040F2891112A0FEF723F8282C27
:1022200043D0A4F5E06027383FD0A4F5C06026383D
:102230003BD0A4F5A060253837D0A4F580602438C1
:1022400033D0A4F5006046382FD0B0F5927029E065
:10225000003801400044004000480040004C00406D
:10226000005000404C69627261726965735C53543E
:102270004D3332463130785F537464506572697003
:10228000685F4472697665725C7372635C73746DC7
:102290003332663130785F75736172742E6300007B
:1022A00021AA440001D0602C00D105E04FF4C57193
:1022B000AFF25000FDF7D6FF0FB1012F00D105E0BE
:1022C00040F28B11AFF26400FDF7CCFFA4F5106073
:1022D0006A380FD1F948854205D0F948854202D0C5
:1022E000F848854200D105E040F28F11AFF28C0032
:1022F000FDF7B8FF2E46C4F3421804F01F0A012070
:1023000000FA0AF9B8F1010F01D10C3605E0B8F175
:10231000020F01D1103600E0143627B1306840EAD0
:102320000900306003E0306820EA09003060BDE851
:10233000F08770B504460D461646E04884420BD03F
:10234000DF48844208D0DF48844205D0DE4884421A
:1023500002D0DE48844200D105E040F2C311AFF262
:10236000FC00FDF77FFF4FF63F70054201D105B13C
:1023700005E04FF4E271AFF21410FDF773FF0EB1F8
:10238000012E00D105E040F2C511AFF22810FDF793
:1023900069FF1EB1A08A2843A08202E0A08AA84358
:1023A000A08270BD70B504460D46C44884420BD06F
:1023B000C348844208D0C348844205D0C2488442FE
:1023C00002D0C248844200D105E040F2DF11AFF2F2
:1023D0006C10FDF747FF0F2D00DC05E04FF4F071A6
:1023E000AFF28010FDF73EFF208A4FF6F0710840F3
:1023F0002082208A2843208270BD70B504460D4695
:10240000AE4884420BD0AE48844208D0AD488442E6
:1024100005D0AD48844202D0AC48844200D105E0EA
:102420004FF4FB71AFF2C410FDF71CFF15B1B5F509
:10243000006F00D105E040F2F711AFF2D810FDF7C0
:1024400011FFA0894FF2FF710840A081A0892843A5
:10245000A08170BD70B504460D46984884420BD0EB
:102460009748844208D09748844205D096488442D1
:1024700002D09648844200D105E040F20921AFF233
:102480001C20FDF7EFFE0DB1012D00D105E040F25B
:102490000A21AFF23020FDF7E5FE25B1A08940F01A
:1024A0000200A08104E0A0894FF6FD710840A081E0
:1024B00070BD70B504460D46804884420BD08048FC
:1024C000844208D07F48844205D07F48844202D0AD
:1024D0007E48844200D105E040F22621AFF27C2004
:1024E000FDF7C0FE0DB1202D00D105E040F22721FF
:1024F000AFF29020FDF7B6FE208A4FF6DF7108405C
:102500002082208A2843208270BD70B504460D4683
:102510006A4884420BD06A48844208D069488442A1
:1025200005D06948844202D06848844200D105E061
:1025300040F23921AFF2D420FDF794FE0DB1012D08
:1025400000D105E040F23A21AFF2E820FDF78AFE23
:1025500025B1208A40F48040208204E0208A4BF696
:10256000FF710840208270BD70B504460D46534887
:1025700084420BD05248844208D05248844205D04D
:102580005148844202D05148844200D105E040F2D3
:102590005321AFF23030FDF765FEB5F5007F00DA6C
:1025A00005E04FF41571AFF24430FDF75BFEC5F363
:1025B0000800A08070BD10B50446404884420BD08E
:1025C0003F48844208D03F48844205D03E48844278
:1025D00002D03E48844200D105E04FF41971AFF2B9
:1025E0007C30FDF73FFEA088C0F3080010BD10B599
:1025F0000446324884420BD03148844208D03148E6
:10260000844205D03048844202D03048844200D110
:1026100005E04FF41D71AFF2B430FDF723FEA08941
:1026200040F00100A08110BD70B504460D4623485E
:10263000844205D02248844202D02248844200D1FC
:1026400005E04FF42171AFF2E430FDF70BFE208B73
:10265000C0B22083208B40EA0520208370BD70B576
:1026600004460D46154884420BD01548844208D0D4
:102670001448844205D01448844202D0134884424E
:1026800000D105E04FF42671AFF22840FDF7EAFDD6
:10269000208B00F47F402083208B2843208370BD53
:1026A00070B504460D460548844205D0044884426E
:1026B00002D0044884420BD110E0000000380140F1
:1026C0000044004000480040004C004000500040E2
:1026D00040F2AB21AFF27440FDF7C4FD0DB1012D06
:1026E00000D105E04FF42B71AFF28840FDF7BAFD41
:1026F00025B1A08A40F02000A08204E0A08A4FF615
:10270000DF710840A08270BD70B504460D46F848E0
:10271000844205D0F748844202D0F748844200D171
:1027200005E04FF43171AFF2C440FDF79BFD0DB1F0
:10273000012D00D105E040F2C521AFF2D840FDF7F0
:1027400091FD25B1A08A40F01000A08204E0A08A8B
:102750004FF6EF710840A08270BD70B504460D467B
:10276000E34884420BD0E348844208D0E2488442E4
:1027700005D0E248844202D0E148844200D105E01D
:1027800040F2DE21AFF22450FDF76CFD0DB1012DBA
:1027900000D105E040F2DF21AFF23850FDF762FDD5
:1027A00025B1A08A40F00800A08204E0A08A4FF67C
:1027B000F7710840A08270BD70B504460D46CC4844
:1027C00084420BD0CB48844208D0CB48844205D009
:1027D000CA48844202D0CA48844200D105E040F28F
:1027E000FD21AFF28050FDF73DFD0DB1012D00D16F
:1027F00005E040F2FE21AFF29450FDF733FD25B124
:10280000A08940F40040A08103E0A089C0F30E003D
:10281000A08170BD70B504460D46B54884420BD00A
:10282000B448844208D0B448844205D0B3488442B6
:1028300002D0B348844200D105E04FF44671AFF2B4
:10284000DC50FDF70FFD0DB1012D00D105E040F288
:102850001931AFF2F050FDF705FD25B1A08A40F423
:102860000060A08204E0A08A4FF2FF710840A082BD
:1028700070BD70B504460D469D4884420BD09D48FE
:10288000844208D09C48844205D09C48844202D0AF
:102890009B48844200D105E040F23531AFF23C6004
:1028A000FDF7E0FC042D00D005B905E040F236311B
:1028B000AFF25060FDF7D6FCA08A4FF6FB710840DE
:1028C000A082A08A2843A08270BD70B504460D4640
:1028D000874884420BD08748844208D08648844287
:1028E00005D08648844202D08548844200D105E064
:1028F0004FF45271AFF29460FDF7B4FC0DB1012DAD
:1029000000D105E040F24931AFF2A860FDF7AAFC22
:1029100025B1A08A40F00200A08204E0A08A4FF610
:10292000FD710840A08270BD70B505460C460026BA
:102930006F4885420BD06F48854208D06E4885426B
:1029400005D06E48854202D06D48854200D105E031
:1029500040F26E31AFF2F460FDF784FC012C13D02D
:10296000802C11D0402C0FD0202C0DD0102C0BD04F
:10297000B4F5807F08D0B4F5007F05D0082C03D0D3
:10298000042C01D0022C00D105E040F26F31AFF2EF
:102990002C70FDF767FCB4F5007F0FD154488542D9
:1029A00005D05448854202D05348854200D105E005
:1029B00040F27331AFF25470FDF754FC2888204286
:1029C00001D0012600E00026304670BD70B50446F7
:1029D0000D46474884420BD04648844208D04648BA
:1029E000844205D04548844202D04548844200D103
:1029F00005E040F29E31AFF29470FDF733FC4FF6E4
:102A00009F40054201D105B105E040F29F31AFF290
:102A1000AC70FDF727FC05F40070B0F5007F0FD116
:102A20003348844205D03348844202D0324884423D
:102A300000D105E040F2A331AFF2D870FDF712FCEF
:102A4000E843208070BD2DE9F04705460C4600277D
:102A50000026B046B146264885420BD0254885421F
:102A600008D02548854205D02448854202D0244814
:102A7000854200D105E040F2C131AFF61800FDF704
:102A8000F1FB282C1FD0A4F5E06027381BD0A4F55B
:102A9000C060263817D0A4F5A060253813D0A4F55F
:102AA000806024380FD0A4F5006046380BD0B0F514
:102AB000927008D0B4F5587F05D0B4F5187F02D0D5
:102AC000B4F5B07F00D105E040F2C231AFF66C0042
:102AD000FDF7C8FBA4F510606A3819D10448854297
:102AE00005D00448854202D0034885420AD10FE050
:102AF000003801400044004000480040004C0040C5
:102B00000050004040F2C631AFF6A800FDF7AAFB26
:102B1000C4F3421804F01F06012000FA06F6B8F1CB
:102B2000010F02D1A889064007E0B8F1020F02D1D7
:102B3000288A064001E0A88A06402712012000FAF0
:102B400007F7288807401EB117B14FF0010901E0CF
:102B50004FF000094846BDE8F0872DE9F0410446F2
:102B60000D4600260027244884420BD02348844287
:102B700008D02348844205D02248844202D022480B
:102B8000844200D105E040F20A41AFF62810FDF77B
:102B900069FBA5F5C06026380AD0A5F5A0602538E8
:102BA00006D0A5F50060463802D0B0F5927000D18D
:102BB00005E040F20B41AFF65410FDF753FBA5F5CD
:102BC00010606A380FD10C48844205D00B4884420B
:102BD00002D00B48844200D105E040F20F41AFF62D
:102BE0007C10FDF73FFB2E120120B04087B2F84366
:102BF0002080BDE8F0810000003801400044004022
:102C000000480040004C00400050004010B5044611
:102C1000F74884422AD0F6481430844226D0F4483B
:102C20002830844222D0F2483C3084421ED0F04802
:102C3000503084421AD0EE486430844216D0EC48BA
:102C40007830844212D0EB4884420FD0E9481430E7
:102C500084420BD0E7482830844207D0E5483C3016
:102C6000844203D0E3485030844200D103E06F2116
:102C7000E1A0FDF7F7FA20684FF6FE7108402060EA
:102C8000002020606060A060E060D948844208D1E4
:102C9000D7480838406840F00F00D54908394860E7
:102CA0008AE0D3481430844208D1D14808384068BB
:102CB00040F0F000CE49083948607DE0CC4828302B
:102CC000844208D1CA480838406840F47060C84956
:102CD0000839486070E0C6483C30844208D1C44896
:102CE0000838406840F47040C1490839486063E0E2
:102CF000BF485030844208D1BD480838406840F48D
:102D00007020BB490839486056E0B94864308442B5
:102D100008D1B7480838406840F47000B449083911
:102D2000486049E0B2487830844208D1B048083859
:102D3000406840F07060AE49083948603CE0AD48FA
:102D4000844206D1001F006840F00F00211F086078
:102D500032E0A8481430844208D1A648001F006819
:102D600040F0F000A349091F086025E0A148283081
:102D7000844208D19F48001F006840F470609D495C
:102D8000091F086018E09B483C30844208D19948EC
:102D9000001F006840F470409649091F08600BE06E
:102DA00094485030844207D19248001F006840F494
:102DB00070209049091F086010BD70B505460C468B
:102DC00000268B4885422AD089481430854226D077
:102DD00087482830854222D085483C3085421ED025
:102DE0008348503085421AD081486430854216D0DD
:102DF0007F487830854212D07E4885420FD07D488A
:102E0000143085420BD07B482830854207D0794862
:102E10003C30854203D077485030854200D103E0F2
:102E2000CF2175A0FDF71EFAA068102801D0A06878
:102E300000B903E0D02170A0FDF714FAE06820B1DA
:102E4000E068B0F5803F00D203E0D1216AA0FDF731
:102E500009FA2069402801D0206900B903E0D22195
:102E600065A0FDF7FFF96069802801D0606900B9AD
:102E700003E0D32160A0FDF7F5F9A06938B1A0699E
:102E8000B0F5807F03D0A069B0F5007F00D103E0EA
:102E9000D42159A0FDF7E6F9E06938B1E069B0F551
:102EA000806F03D0E069B0F5006F00D103E0D52159
:102EB00051A0FDF7D7F9206A202801D0206A00B977
:102EC00003E0D6214CA0FDF7CDF9606AB0F5405F74
:102ED00009D0606AB0F5005F05D0606AB0F5805F28
:102EE00001D0606A00B903E0D72143A0FDF7BAF929
:102EF000A06AB0F5804F01D0A06A00B903E0D821E4
:102F00003DA0FDF7AFF92E6847F6F0708643216AC1
:102F1000A06808432169084361690843A16908431F
:102F2000E1690843616A0843A16A084306432E60C9
:102F3000E06868602068A8606068E86070BD002193
:102F4000016041608160C160016141618161C16175
:102F5000016241628162704770B504460D462448A3
:102F600084422AD022481430844226D02048283077
:102F7000844222D01E483C3084421ED01C4850302F
:102F800084421AD01A486430844216D018487830E7
:102F9000844212D0174884420FD01648143084421D
:102FA0000BD014482830844207D012483C30844269
:102FB00003D010485030844200D104E040F229117F
:102FC0000DA0FDF74FF90DB1012D00D104E04FF434
:102FD000957109A0FDF746F925B1206840F0010080
:102FE000206004E020684FF6FE710840206070BD4C
:102FF00008000240080402404C696272617269650F
:10300000735C53544D3332463130785F537464509F
:1030100065726970685F4472697665725C73726329
:103020005C73746D3332663130785F646D612E632A
:103030000000000070B504460D461646FE48844266
:103040002AD0FD481430844226D0FB4828308442E0
:1030500022D0F9483C3084421ED0F7485030844298
:103060001AD0F5486430844216D0F3487830844250
:1030700012D0F24884420FD0F048143084420BD072
:10308000EE482830844207D0EC483C30844203D0DC
:10309000EA485030844200D105E040F24911AFF2D5
:1030A000A800FDF7DFF835F00E0001D105B105E00D
:1030B0004FF4A571AFF2C000FDF7D4F80EB1012EA8
:1030C00000D105E040F24B11AFF2D400FDF7CAF891
:1030D0001EB120682843206002E02068A8432060D9
:1030E00070BD70B504460D46D34884422AD0D248FC
:1030F0001430844226D0D0482830844222D0CE4892
:103100003C3084421ED0CC48503084421AD0CA4849
:103110006430844216D0C8487830844212D0C74800
:1031200084420FD0C548143084420BD0C3482830A5
:10313000844207D0C1483C30844203D0BF4850305D
:10314000844200D105E04FF4B271AFF25410FDF7A4
:1031500089F8656070BD10B50446B74884422AD02E
:10316000B5481430844226D0B3482830844222D057
:10317000B1483C3084421ED0AF48503084421AD00F
:10318000AD486430844216D0AB487830844212D0C7
:10319000AA4884420FD0A948143084420BD0A748D3
:1031A0002830844207D0A5483C30844203D0A3484D
:1031B0005030844200D105E04FF4BB71AFF2C8102B
:1031C000FDF750F8606880B210BD70B50446002568
:1031D0000026012C7ED0022C7CD0042C7AD0082C26
:1031E0007ED0102C7CD0202C7AD0402C78D0802C13
:1031F00076D0B4F5807F73D0B4F5007F70D0B4F58D
:10320000806F6DD0B4F5006F6AD0B4F5805F67D081
:10321000B4F5005F64D0B4F5804F61D0B4F5004FD1
:103220005ED0B4F5803F5BD0B4F5003F58D0B4F524
:10323000802F55D0B4F5002F52D0B4F5801F4FD059
:10324000B4F5001F4CD0B4F5800F49D0B4F5000F91
:1032500046D0B4F1807F43D0B4F1007F40D0B4F1C8
:10326000806F3DD0B4F1006F3AD07548844237D0BA
:10327000A4F18050801E33D0801E31D0001F2FD08B
:1032800008382DD010382BD0203829D0403827D0FE
:103290006B48FF30844223D06A48844220D06A4879
:1032A00084421DD0694884421AD0B4F1102F17D03F
:1032B0004FEAF030844213D06548844210D065480C
:1032C00084420DD0644884420AD06448844207D0C6
:1032D000634800E004E0844202D06248844200D1A6
:1032E00005E040F2B711AFF2F020FCF7BBFF14F09D
:1032F000805F03D051480838066802E04E4808381D
:103300000668264201D0012500E00025284670BD50
:1033100010B5044614F0704F02D05348044201D156
:1033200004B105E040F20E21AFF23430FCF79AFF11
:1033300014F0805F03D04148001F046002E03E4863
:103340000838446010BD70B5044600250026012CE5
:1033500070D0022C6ED0042C6CD0082C6AD0102CAB
:1033600068D0202C66D0402C64D0802C62D0B4F57C
:10337000807F5FD0B4F5007F5CD0B4F5806F59D00A
:10338000B4F5006F56D0B4F5805F53D0B4F5005F4C
:103390007FD0B4F5804F7CD0B4F5004F79D0B4F530
:1033A000803F76D0B4F5003F73D0B4F5802F70D055
:1033B000B4F5002F6DD0B4F5801F6AD0B4F5001FAE
:1033C00067D0B4F5800F64D0B4F5000F61D0B4F1CC
:1033D000807F5ED0B4F1007F5BD0B4F1806F58D0B5
:1033E000B4F1006F55D01648844252D0A4F18050F9
:1033F000801E4ED0801E4CD0001F4AD0083848D0C6
:10340000103846D0203844D0403842D00C48FF30E5
:1034100084423ED00B4884423BD00B48844238D093
:103420000A48844235D0B4F1102F32D04FEAF03040
:1034300084421BE02DE00000080002400804024026
:10344000010000100002001000040010000800102D
:103450000040001000800010000001100000021069
:1034600000000410000008100000F0EF11D0214807
:1034700084420ED0204884420BD02048844208D099
:103480001F48844205D01F48844202D01E4884420F
:1034900000D105E040F25921AFF2A440FCF7E2FE72
:1034A00014F0805F02D01948066801E018480668E9
:1034B000264201D0012500E00025284670BD10B548
:1034C000044614F0704F02D01248044201D104B1F6
:1034D00005E040F2AF21AFF2E040FCF7C3FE14F08C
:1034E000805F03D00948001D046001E00848446083
:1034F00010BD00000040001000800010000001100E
:103500000000021000000410000008100004024037
:10351000000002400000F0EF10B50446B4F5E06F83
:103520000BD0B4F5C06F08D0B4F5A06F05D0B4F5DA
:10353000806F02D0B4F5407F00D103E063215EA02C
:10354000FCF790FE684820436849086010BD2DE9EB
:10355000F0410446002500270F26E07810B1E078FE
:10356000012800D103E0752153A0FCF77BFE6078B1
:10357000102800DA03E076214FA0FCF773FEA07854
:10358000102800DA03E077214BA0FCF76BFEE0780F
:1035900008B35648006800F4E060C0F5E060050A32
:1035A000C5F10407EE40607800FA07F5A0783040D6
:1035B00005432D014E4822788554207800F01F01E4
:1035C00001208840217849114FF0E02202EB81016F
:1035D000C1F8000109E0207800F01F0101208840B7
:1035E00044492278521141F82200BDE8F08170B5BB
:1035F00004460D46B4F1005F02D0B4F1006F00D173
:1036000003E09F212CA0FCF72DFE3B48854200D211
:1036100003E0A02128A0FCF725FE384905EA0100B7
:1036200020433249091F086070BD70B504460D463D
:10363000102C03D0042C01D0022C00D103E0B221C5
:103640001DA0FCF70FFE0DB1012D00D103E0B32149
:1036500019A0FCF707FE3DB12448001D0068204377
:103660002249091D086006E02048001D0068A043AB
:103670001E49091D086070BD10B50446042C01D018
:10368000601D00D103E0CA210BA0FCF7EBFD042C68
:1036900008D14FF0E020006940F004004FF0E02135
:1036A000086107E04FF0E020006920F004004FF0CF
:1036B000E021086110BD00004C69627261726965A9
:1036C000735C53544D3332463130785F53746450D9
:1036D00065726970685F4472697665725C73726363
:1036E0005C6D6973632E63000000FA050CED00E069
:1036F00000E400E080E100E0FFFF0F0080FFFF1F1B
:103700000948804709480047FEE7FEE7FEE7FEE775
:10371000FEE7FEE7FEE7FEE7FEE7FEE704480549B1
:10372000054A064B704700009D0A00083101000859
:1037300028060020280C0020280800202808002047
:10374000704719480068704770B5044604F0A6F841
:10375000054615480460284604F0A4F870BD10B56D
:1037600011480068401C1049086003F0D3FA044671
:10377000A06C401EA064A06C18B9606CA06403F03B
:10378000A1FB03F0B4FE10BD0146002902DA4FF0A0
:10379000FF3007E064224A4302F2E7324FF47A73C3
:1037A00092FBF3F0704700007C000020002070477F
:1037B00000207047002070470020704710B5094C6A
:1037C00002E020688047241D07488442F9D310BDD9
:1037D00010B5054C02E020688047241D0348844250
:1037E000F9D310BDE0930008E4930008E8930008C3
:1037F0002DE9F041064603F08DFA08B103F035F9E2
:10380000A74D6C6810E0A4F10C0708223146384639
:1038100001F0ABFE38B903F07DFA08B103F033F9DB
:103820003846BDE8F0812468281D8442EBD103F0BE
:1038300071FA08B103F027F90020F2E770B50446E9
:103840000D46164614B94FF0FF3070BD2846FFF7FD
:10385000CFFF10B14FF0FF30F7E72A46072120468F
:1038600002F0B9FEE6820020A076208300BFECE7DC
:1038700010B5044624B94D228A498BA002F0F3F911
:10388000204602F0CEFE002010BD0020704770B52B
:103890000446002524B99A22874983A002F0E3F95F
:1038A000606A90B1A07D10F0100F0ED12046616AC1
:1038B000884705462DB12A46214680A002F0F3F83C
:1038C00003E0E08A40F01000E082284670BD70B549
:1038D00004460E46002524B9BD22864972A002F096
:1038E000C2F9A07D10F0100F11D1606A58B12046C6
:1038F000616A8847054635B12A4621466FA002F025
:10390000D2F8284670BDE08A40F01000E082A07D29
:1039100010F0080F06D0207E10F0080F02D06FF0D4
:103920000600EFE7A06A28B131462046A26A904718
:10393000054603E040F60F70304020830DB1A81D0E
:103940000DD1208B40F008002083A07E401CA07683
:10395000A07E20B9EB22674967A002F084F92846CF
:10396000D0E770B50446002524B9FD2267494EA072
:1039700002F079F9A07E10B94FF0FF3070BDA07E43
:10398000401EA076A07E08B10020F7E7E06A18B1DB
:103990002046E16A884705460DB1A81D01D10020E7
:1039A00020832846EAE72DE9F04104460D461646F5
:1039B0001F462CB94FF4937255493BA002F053F9BE
:1039C000A07E30B94FF0FF3001F0C2FC0020BDE80E
:1039D000F081206B38B13B46324629462046D4F868
:1039E00030C0E047F3E76FF0050001F0B1FC0020C4
:1039F000EDE72DE9F04104460D4616461F462CB969
:103A00004FF4A672434928A002F02DF9A07E30B9E8
:103A10004FF0FF3001F09CFC0020BDE8F081606BAE
:103A200038B13B46324629462046D4F834C0E047F8
:103A3000F3E76FF0050001F08BFC0020EDE770B5B7
:103A400004460D4616462CB94FF4B672324916A0FC
:103A500002F009F9A06B28B1324629462046A36B33
:103A6000984770BD6FF00500FBE770B504460D4642
:103A70002CB940F2851229490BA002F0F4F8E56157
:103A8000002070BD70B504460D462CB94FF4CD72C0
:103A9000234905A002F0E7F82562002070BD000070
:103AA0002C010020788C000864657620213D20528E
:103AB000545F4E554C4C00008D8C0008546F2069AB
:103AC0006E697469616C697A65206465766963659D
:103AD0003A2573206661696C65642E205468652000
:103AE0006572726F7220636F64652069732025644C
:103AF0000A0000009C8C00086465762D3E726566A5
:103B00005F636F756E7420213D203000AB8C000820
:103B1000BB8C0008CA8C0008DA8C0008EC8C00080A
:103B2000068D00083B490860704770B544E000BF4F
:103B300003F0B4FE064601F0F1FB40B1364937A070
:103B400001F0B1FF652234493DA002F08CF8304607
:103B500003F0A8FE00BF03F0A1FE054600F051F8F7
:103B6000E0B138480068A0F1140404F11400D0E971
:103B700000215160D0E9001211604060006000BF78
:103B8000A06F10B12046A16F8847204602F0D1FDFA
:103B9000012807D1284603F085FE70BD284603F0B2
:103BA00081FEFAE7284603F07DFEA06A02F0A3FA40
:103BB000204602F094FD00BF00F023F80028B6D1A3
:103BC00000BFEAE707E01348006810B11148006839
:103BD0008047FFF7AAFFF6E71FB520201F21C2008C
:103BE000194BCDE90032CDE902100023174A18A184
:103BF000194803F06AF8184803F0C1F81FBD1648C9
:103C0000704710490868884201D0012070470020A1
:103C1000FCE7000080000020208D000846756E63E0
:103C200074696F6E5B25735D207368616C6C206EC8
:103C30006F74207573656420696E204953520A00C1
:103C4000300000007001002024030020C53B000864
:103C50007469646C65000000A40200204268116071
:103C600042684A604160086070472DE9F0410546AE
:103C70000C469046204603F053F9B8F1000F03D0EC
:103C8000B8F1010F23D105E004F114012846FFF734
:103C9000E5FF1CE02E680FE0A6F1140794F835004C
:103CA00097F83510884206DA04F1140107F1140080
:103CB000FFF7D4FF02E03668AE42EDD100BFAE425E
:103CC00004D104F114012846FFF7C8FF00BF00BF6C
:103CD0000020BDE8F08170B505460EE003F0DEFD82
:103CE00006462868A0F114044FF0FF3020632046F8
:103CF00003F013F8304603F0D5FD284601F0B2FA80
:103D00000028EBD0002070BD2DE9F04104460D469F
:103D100016461F4624B9D822FD49FEA001F0A3FF94
:103D20002A460121204602F056FC204601F0A2FA64
:103D3000A68367720020BDE8F08110B5044624B95F
:103D4000F522F849F3A001F08EFF04F11400FFF70B
:103D5000C2FF204602F065FC002010BD2DE9F041B5
:103D600005460E46174600BF03F098FD804601F059
:103D7000D5FA48B1EC49EDA001F095FE40F21112E0
:103D8000E949F3A001F06FFF404603F08BFD00BF4F
:103D90002946012002F061FC044614B92046BDE822
:103DA000F081204601F066FAA68367722046F6E7A6
:103DB00070B5044600BF03F071FD054601F0AEFA90
:103DC00048B1E449D9A001F06EFE4FF49872E14980
:103DD000DFA001F048FF284603F064FD00BF2CB9C6
:103DE0004FF49972DB49CBA001F03DFF04F11400C0
:103DF000FFF771FF204602F072FC002070BD2DE934
:103E0000F34105462DB940F24D12D349C1A001F04E
:103E10002AFF00BFD148006818B12846CF49096879
:103E2000884700BF03F03AFD064600BF00BFA88BDD
:103E3000002806DDA88B401EA883304603F032FD23
:103E400057E0019830B9304603F02CFD6FF00100C7
:103E5000BDE8FC8100BF03F021FD074602F05AFFD8
:103E600048B9BD49BEA001F01EFE40F26D12BA492C
:103E7000B7A001F0F8FE00BF03F010FD804601F08E
:103E80004DFA48B1B449A9A001F00DFE40F26D12FF
:103E9000B149AFA001F0E7FE404603F003FD00BFCB
:103EA000384603F0FFFC00BF02F034FF0446002058
:103EB000206300BF00BF6A7A214605F11400FFF7B6
:103EC000D4FE019800280BDD00BF00BF01AA00212D
:103ED00004F14C0003F0E5FA04F14C0003F027FA7A
:103EE000304603F0DFFC02F01BFD206B08B1206BB5
:103EF000AEE700BFA848006818B12846A64909687F
:103F0000884700BF0020A3E710B5044600212046E3
:103F1000FFF775FF10BD70B5044600BF9F480068ED
:103F200018B120469D490968884700BF002503F065
:103F3000B5FC064600BF00BF04F1140001F092F981
:103F400028B904F1140001F09DF9012502E0A08BCD
:103F5000401CA083304603F0A5FC012D01D102F0E6
:103F6000DFFC002070BD2DE9F04104460E461546E9
:103F70002CB94FF4F2728A4966A001F074FE012E4A
:103F800010D12F4603F08AFC804604F11400FFF79D
:103F9000A2FEA783404603F085FC02F0C1FC00208E
:103FA000BDE8F0814FF0FF30FAE770B504460D46EA
:103FB00016462CB940F20F227A497BA001F053FE3D
:103FC0002A460221204602F006FB204601F052F963
:103FD0000120A08300202062FF20A0770020E0774E
:103FE000667270BD10B504462CB940F22E2273499A
:103FF0006DA001F038FE04F11400FFF76CFE2046BE
:1040000002F00FFB002010BD2DE9F04105460E46E1
:1040100000BF03F043FC074601F080F948B168494E
:1040200042A001F040FD40F24922654948A001F05C
:104030001AFE384603F036FC00BF2946022002F083
:104040000CFB044614B92046BDE8F081204601F07F
:1040500011F90120A08300202062FF20A07700201A
:10406000E07766722046EFE770B5044600BF03F0C4
:1040700015FC054601F052F948B152492BA001F058
:1040800012FD40F26A224F4931A001F0ECFD2846B2
:1040900003F008FC00BF2CB94FF41B72494942A041
:1040A00001F0E1FD04F11400FFF715FE204602F0D7
:1040B00016FB002070BD2DE9F341044600BF03F05C
:1040C000EDFB074602F026FE48B93F4924A001F067
:1040D000EAFC4FF422723C491DA001F0C4FD00BF70
:1040E00003F0DCFB804601F019F948B136490FA016
:1040F00001F0D9FC4FF42272334915A001F0B3FD51
:10410000404603F0CFFB00BF384603F0CBFB5DE039
:10411000368D000873656D20213D2052545F4E5549
:104120004C4C0000428D0008508D000846756E63AF
:1041300074696F6E5B25735D207368616C6C206EB3
:104140006F74207573656420696E204953520A00AC
:10415000300000005E8D00086C8D000854010020C6
:1041600046756E6374696F6E5B25735D207368615D
:104170006C6C206E6F7420626520757365642062BC
:1041800065666F7265207363686564756C6572201F
:1041900073746172740A0000580100205C010020F1
:1041A000788D0008878D00086D7574657820213D35
:1041B0002052545F4E554C4C00000000958D000875
:1041C000A58D0008B58D0008C58D000800BF34B965
:1041D00040F28A22F749AFF2300001F044FD02F0CC
:1041E00099FD054603F05AFB064600BFF2480068F9
:1041F00018B12046F0490968884700BF00BF00BFDA
:1042000000202863206AA84203D1E07F401CE077A9
:104210004EE000BFA08B00280ADDA08B401EA083CB
:10422000256295F83500A077E07F401CE0773FE0FD
:10423000019848B96FF001002863304603F032FB63
:104240006FF00100BDE8FC8100BF00BF95F83500AC
:10425000216A91F83510884205DA05F1350202210C
:10426000206A02F03BFF627A294604F11400FFF74E
:10427000FCFC019800280BDD00BF00BF01AA002153
:1042800005F14C0003F00DF905F14C0003F04FF877
:10429000304603F007FB02F043FB286B28B1286B84
:1042A000093000D1B6E7286BCCE703F0F7FA0646F1
:1042B000304603F0F7FA00BFC048006818B1204646
:1042C000BE490968884700BF0020BBE72DE9F047D9
:1042D0000446002600BF03F0E1FA804602F01AFD12
:1042E00058B9B749AFF2881001F0DDFB40F2113246
:1042F000B349AFF2A41001F0B6FC00BF03F0CEFA50
:10430000814601F00BF858B1AD49AFF2E01001F071
:10431000CAFB40F21132AA49AFF2CC1001F0A3FC63
:10432000484603F0BFFA00BF404603F0BBFA00BFA7
:1043300002F0F0FC054603F0B1FA074600BF00BFEB
:1043400000BFA048006818B120469E490968884708
:1043500000BF206AA84209D04FF0FF3028633846DA
:1043600003F0A0FA4FF0FF30BDE8F087E07F401E79
:10437000E077E07F08BBA07F216A91F83510884282
:1043800005D004F11E020221206A02F0A7FE04F10A
:10439000140000F067FF88B96069A0F1140500BF40
:1043A00000BF256295F83500A077E07F401CE077DC
:1043B00004F1140000F066FF012606E0A08B401C0B
:1043C000A08300202062FF20A077384603F06AFA1D
:1043D000012E01D102F0A4FA0020C5E703464FF0F8
:1043E000FF30704770B504460D4616462CB940F2B2
:1043F0007F32754975A001F036FC2A46032120461C
:1044000002F0E9F86672204600F034FF0020E06117
:1044100070BD10B504462CB940F29B3270496BA0B8
:1044200001F021FC04F11400FFF755FC204602F0D6
:10443000F8F8002010BD2DE9F04105460E4600BFFA
:1044400003F02CFA074600F069FF58B16549AFF256
:10445000243001F028FB4FF46D726249AFF2103046
:1044600001F001FC384603F01DFA00BF2946032085
:1044700002F0F3F8044614B92046BDE8F0816672F4
:10448000204600F0F7FE0020E0612046F5E770B519
:1044900004462CB940F2D23253494CA001F0E3FB60
:1044A00000BF03F0FBF9054600F038FF58B14E4954
:1044B000AFF2883001F0F7FA4FF475724A49AFF263
:1044C000703001F0D0FB284603F0ECF900BF04F196
:1044D0001400FFF700FC204602F001F9002070BD37
:1044E0002DE9F04704460F462CB940F2F3323F491C
:1044F00036A001F0B8FB1FB94FF0FF30BDE8F087E0
:104500004FF0000800BF2F48006818B120462D4921
:104510000968884700BF03F0C1F98246E069384363
:10452000E06104F1140000F09DFEC0BB666932E05A
:10453000A6F114054FF0FF3995F8400010F0010F77
:1045400008D0E86BE1690840E96B884211D14FF06F
:1045500000090EE095F8400010F0020F09D0E86B5A
:10456000E169084205D0E86BE1690840E8634FF073
:1045700000093668B9F1000F0DD195F8400010F030
:10458000040F03D0E069E96B8843E061284602F03C
:10459000C4FB4FF0010804F114008642C8D1504614
:1045A00003F080F9B8F1010F01D102F0B9F9002050
:1045B000A4E70000C58D0008540100205801002028
:1045C000D38D00085C010020E48D00086576656EDF
:1045D0007420213D2052545F4E554C4C0000000089
:1045E000F28D0008028E0008128E0008228E00084C
:1045F0002DE9FF4F81B005460E461746DDF838809D
:1046000000BF03F04BF9009002F084FB58B9FE495B
:10461000AFF2B44001F047FA40F25342FA49AFF228
:10462000D04001F020FB00BF03F038F9834600F0D2
:1046300075FE58B1F449AFF20C5001F034FA40F273
:104640005342F149AFF2F84001F00DFB584603F038
:1046500029F900BF009803F025F900BF35B940F2F1
:104660005642E949AFF29C0001F0FDFA26B94FF03D
:10467000FF3005B0BDE8F08F4FF0FF3902F04AFB84
:1046800004460021216300BFE048006818B12846B5
:10469000DE490968884700BF03F000F9824617F039
:1046A000010F06D0E8693040B04212D14FF0000946
:1046B0000FE017F0020F05D0E869304209D04FF043
:1046C000000906E040F27442CF49AFF27C5001F09D
:1046D000CAFAB9F1000F0DD1B8F1000F03D0E869A3
:1046E0003040C8F8000017F0040F31D0E869B0433B
:1046F000E8612DE0049818B96FF00100206327E00D
:10470000E66384F840706A7A214605F11400FFF7E9
:10471000ACFA0498002809DD04AA002104F14C0039
:1047200002F0BFFE04F14C0002F001FE504603F01F
:10473000B9F802F0F5F8206B08B1206B99E703F0A7
:10474000ADF88246B8F1000F02D0E06BC8F8000067
:10475000504603F0A7F800BFAD48006818B12846DE
:10476000AB490968884700BF206B82E72DE9F0411B
:1047700004460D46174634B940F2C442A549AFF28B
:10478000B41001F070FA012D10D103F087F806463D
:1047900004F11400FFF79FFA0020E061304603F0B7
:1047A00081F802F0BDF80020BDE8F0814FF0FF3045
:1047B000FAE72DE9F04104460D4616461F46DDF89E
:1047C00018802CB940F2F142934994A001F04BFAC1
:1047D0002A460421204601F0FEFE84F80980204686
:1047E00000F048FDE661278400206084A084E08416
:1047F00004F1280000F033FD0020BDE8F08110B581
:1048000004462CB940F21452884984A001F02BFAD6
:1048100004F11400FFF75FFA04F12800FFF75BFAD8
:10482000204601F0FEFE002010BD2DE9F0410546B6
:104830000E46174600BF03F031F8804600F06EFDCB
:1048400058B17B49AFF21C7001F02DF94FF4A6620C
:104850007749AFF2047001F006FA404603F022F8FF
:1048600000BF2946042001F0F8FE044614B9204692
:10487000BDE8F0816772204600F0FCFC2684218CA4
:10488000880001F033FBE061E06920B9204601F0C7
:1048900026FF0020ECE700206084A084E08404F17F
:1048A000280000F0DCFC2046E2E770B5044600BFBB
:1048B00002F0F4FF054600F031FD58B15D49AFF25A
:1048C000947001F0F0F840F25B525A49AFF28070F8
:1048D00001F0C9F9284602F0E5FF00BF2CB940F20B
:1048E0005E5254494DA001F0BEF904F11400FFF7E7
:1048F000F2F904F12800FFF7EEF9E06901F0FBFBA3
:10490000204601F0ECFE002070BD2DE9F74F044673
:104910000F462CB940F28B52474940A001F0A3F951
:10492000002602F0F7F9054600BF4448006818B1B8
:10493000204642490968884700BF02F0AFFF804621
:10494000608C218C884208D1029830B9404602F030
:10495000A9FF6FF00200BDE8FE8F86E0002028630B
:10496000029828B9404602F09DFF6FF00200F2E77E
:1049700000BF02F093FF814602F0CCF958B92E49EE
:10498000AFF6240001F08FF840F2AE522A49AFF69C
:10499000400001F068F900BF02F080FF824600F09D
:1049A000BDFC58B12449AFF67C0001F07CF840F220
:1049B000AE522149AFF6680001F055F9504602F0B9
:1049C00071FF00BF484602F06DFF00BF627A2946C2
:1049D00004F12800FFF749F9029800280EDDFEF7E0
:1049E000B0FE064600BF00BF02AA002105F14C0040
:1049F00002F057FD05F14C0002F099FC404602F030
:104A000051FF01F08DFF1BE0308E000854010020A3
:104A1000580100203E8E00084F8E00086D62202154
:104A20003D2052545F4E554C4C0000005A8E0008F9
:104A3000678E0008748E0008818E00085C010020DB
:104A4000286B08B1286B86E702F028FF80460298A1
:104A500000280ADDFEF775FE861B0298801B029077
:104A60000298002801DA00200290608C218C884294
:104A70003FF474AFA18CE06940F82170A08C401C19
:104A8000A084A08C218C884201DB0020A084608C53
:104A9000401C608404F1140000F0E4FB50B904F100
:104AA000140000F0EFFB404602F0FCFE01F038FF7E
:104AB000002050E7404602F0F5FE00204BE770B5BD
:104AC00004460D46002229462046FFF71EFF70BD12
:104AD0002DE9F74F04460F4634B940F21C62FA49FB
:104AE000AFF2C80001F0BFF8002602F013F9054646
:104AF00000BFF648006818B12046F44909688847A5
:104B000000BF02F0CBFE8046608C40B9029830B9FD
:104B1000404602F0C7FE6FF00100BDE8FE8F6AE07C
:104B200000202863029830B9404602F0BBFE6FF0C7
:104B300001002863F1E700BF02F0B0FE814602F0F9
:104B4000E9F858B9E049AFF6E81000F0ACFF40F2E0
:104B50004162DD49AFF6082001F085F800BF02F0A0
:104B60009DFE824600F0DAFB58B1D749AFF64420EB
:104B700000F099FF40F24162D349AFF62C2001F0DA
:104B800072F8504602F08EFE00BF484602F08AFEE0
:104B900000BF627A294604F11400FFF766F8029814
:104BA00000280EDDFEF7CDFD064600BF00BF02AABD
:104BB000002105F14C0002F074FC05F14C0002F0FC
:104BC000B6FB404602F06EFE01F0AAFE286B08B16B
:104BD000286BA2E702F062FE8046029800280ADDF8
:104BE000FEF7AFFD861B0298801B029002980028FA
:104BF00001DA00200290608C002891D0E18CE069FD
:104C000050F821003860E08C401CE084E08C218C5E
:104C1000884201DB0020E084608C401E608404F147
:104C2000280000F01FFB98B904F1280000F02AFBCF
:104C3000404602F037FE00BFA548006818B1204684
:104C4000A3490968884700BF01F06AFE002064E7B5
:104C5000404602F027FE00BF9D48006818B120467C
:104C60009B490968884700BF002056E72DE9F041BD
:104C700004460D46174634B940F29F629549AFF29B
:104C8000642000F0F0FF012D16D102F007FE064669
:104C900004F11400FFF71FF804F12800FFF71BF8D8
:104CA00000206084A084E084304602F0FBFD01F027
:104CB00037FE0020BDE8F0814FF0FF30FAE72DE924
:104CC000F05F04460F4690469946DDE90AAB2CB9E1
:104CD00040F2DB62804981A000F0C5FF3A46052121
:104CE000204601F078FC84F809B0204600F0C2FAB2
:104CF000C4F81C8009F1030020F003002084208CFC
:104D0000001DBAFBF0F060840020A062E062206326
:104D1000002508E0208C001DE16905FB0016206BD2
:104D2000306026636D1C608CA842F3DC0020A084F8
:104D3000BDE8F09F10B504462CB940F20C726B49E7
:104D400066A000F090FF04F11400FEF7C4FF2046B7
:104D500001F067FC002010BD70B5044600BF02F0F2
:104D60009DFD054600F0DAFA58B16149AFF64440BE
:104D700000F099FE40F266725D49AFF62C4000F0FB
:104D800072FF284602F08EFD00BF2CB940F2697216
:104D9000574952A000F067FF04F11400FEF79BFF93
:104DA000E06901F0A8F9204601F099FC002070BDEF
:104DB0002DE9F05F0746884691469A4600BF02F00B
:104DC0006DFD834600F0AAFA58B14A49AFF6A440F7
:104DD00000F069FE40F22C724649AFF68C4000F0BC
:104DE00042FF584602F05EFD00BF3946052001F043
:104DF00034FC044614B92046BDE8F09F84F809A0AD
:104E0000204600F037FA08F1030020F00300208468
:104E1000A4F82290218C091D628C01FB02F001F0A4
:104E200065F8E061E06920B92046FFF795FF0020B2
:104E3000E2E70020A062E0622063002508E0208C09
:104E4000001DE16905FB0016206B306026636D1CB8
:104E5000608CA842F3DC0020A0842046CCE72DE93A
:104E6000F04104460F4616462CB940F28F72224993
:104E70001AA000F0F8FE2FB94FF4F2621E491FA0ED
:104E800000F0F1FE2EB940F291721B4920A000F013
:104E9000EAFE208CB04203D24FF0FF30BDE8F08133
:104EA00000BF1E48006818B120461C4909688847A1
:104EB00000BF02F0F3FC8046256B8DBB404602F03C
:104EC000F1FC6FF00200E9E7918E00085401002028
:104ED000580100209C8E0008AA8E00086D712021C8
:104EE0003D2052545F4E554C4C000000B58E0008DA
:104EF000CF8E0008C28E0008DC8E000862756666E0
:104F0000657220213D2052545F4E554C4C000000EC
:104F100073697A6520213D20300000005C0100208B
:104F2000FFE728682063404602F0BCFC00202860B0
:104F300032463946281D00F050FA02F0AFFC804698
:104F4000E06A08B1E06A0560E562A06A00B9A5629E
:104F5000A08C401CA08404F1140000F083F950B927
:104F600004F1140000F08EF9404602F09BFC01F0C1
:104F7000D7FC002092E7404602F094FC00208DE729
:104F80002DE9F04104460F46164634B940F2E77267
:104F9000C249AFF2B80000F066FE37B94FF4FD62C7
:104FA000BE49AFF2A80000F05EFE36B940F2E972E9
:104FB000BA49AFF2A40000F056FE208CB04203D2F2
:104FC0004FF0FF30BDE8F08100BFB548006818B170
:104FD0002046B3490968884700BF02F05FFC80465D
:104FE000256B2DB9404602F05DFC6FF00200E9E749
:104FF00028682063404602F055FC32463946281D99
:1050000000F0EBF902F04AFC8046A06A2860A56235
:10501000E06A00B9E562A08C401CA08404F1140091
:1050200000F020F950B904F1140000F02BF94046CB
:1050300002F038FC01F074FC0020C3E7404602F0A7
:1050400031FC0020BEE72DE9FF4F81B004460F463A
:10505000904634B940F63F029249AFF2801000F01A
:1050600002FE37B94FF404628E49AFF2701000F0BF
:10507000FAFDB8F1000F06D140F641028949AFF2BE
:10508000701000F0F0FD4FF0000901F043FE0546FE
:1050900000BF8548006818B12046834909688847E1
:1050A00000BF02F0FBFB8246A08C48B9049838B9D7
:1050B000504602F0F7FB6FF0010005B0BDE8F08F3D
:1050C0006CE000BF02F0EAFB009001F023FE58B94B
:1050D0007449AFF6747000F0E6FC40F6570271496F
:1050E000AFF2CC1000F0BFFD00BF02F0D7FB83464B
:1050F00000F014F958B16B49AFF6D07000F0D3FC52
:1051000040F657026749AFF2F01000F0ACFD584688
:1051100002F0C8FB00BF009802F0C4FB00BF0020F3
:105120002863049830B9504602F0BCFB6FF00100D0
:105130002863C2E7627A294604F11400FEF795FD60
:10514000049800280EDDFEF7FCFA814600BF00BF80
:1051500004AA002105F14C0002F0A3F905F14C006E
:1051600002F0E5F8504602F09DFB01F0D9FB286BF8
:1051700008B1286BA1E702F091FB82460498002851
:105180000CDDFEF7DEFAA0EB09090498A0EB09009C
:1051900004900498002801DA00200490A08C0028D4
:1051A0008FD0A66A3068A062E06AB04201D10020C8
:1051B000E062A08C401EA084504602F073FB208C5D
:1051C000404501D2208C00E040460246311D384661
:1051D00000F003F902F062FB8246206B3060266328
:1051E000504602F05FFB00BF3048006818B120460F
:1051F0002E490968884700BF00205EE72DE9F0418D
:1052000004460E46904634B940F6C5022849AFF22E
:10521000343000F028FD012E1ED102F03FFB07467E
:1052200004F11400FEF757FD0AE0A56A2868A062A1
:10523000E06AA84201D10020E062206B286025636B
:10524000A06A0028F1D1A084384602F02BFB01F0BF
:1052500067FB0020BDE8F0814FF0FF30FAE74060C7
:105260000060704701460868884201D101207047FC
:105270000020FCE710B5044604F11400FFF7EFFF2F
:10528000002010BD70B504462068A0F1140500BFD1
:1052900000BF284601F041FD002070BDE78E0008E8
:1052A0005C010020F48E0008540100205801002009
:1052B000FF8E00081B49086070471B490860704753
:1052C00010B500BF00BF02F0E9FA044617480078A5
:1052D000401C1649087000BF1248006810B1114800
:1052E0000068804700BF204602F0DCFA10BD10B510
:1052F00000BF00BF02F0D2FA04460C480078401EFE
:105300000A49087000BF0848006810B106480068E4
:10531000804700BF204602F0C5FA10BD0348007860
:105320007047000084000020880000208C000020CE
:1053300010B5FFF7F3FF10B1F748006810BD01F09A
:10534000E9FC044614B9F4480068F7E7206BF5E778
:1053500070B50446FFF7E2FF10B1EF48046070BD7E
:1053600001F0D8FC054615B9EB480460F7E72C635B
:1053700000BFF4E710B5FFF7D1FF08B1E64810BD54
:1053800001F0C8FC044614B104F13000F7E7E2482C
:10539000F5E7F0B50D460646ECB2042A15D310F039
:1053A000030F12D1014644EA042343EA034304E015
:1053B00008C108C108C108C1103A102AF8D201E09A
:1053C00008C1121F042AFBD20E4601E006F8014B69
:1053D0001700A2F10102F9D1F0BD2DE9F0410F460D
:1053E000164604463D463346102B26D305F0030CE3
:1053F00004F003085CEA080C1FD121462A4610E09D
:1054000052F804CB41F804CB52F804CB41F804CB5A
:1054100052F804CB41F804CB52F804CB41F804CB4A
:10542000103B102BECD204E052F804CB41F804CB33
:105430001B1F042BF8D20C46154603E015F801CBD0
:1054400004F801CB5FEA030CA3F10103F6D1BDE838
:10545000F08170B50C46014623468B4210D29D1850
:105460008D420DD91144134405E05D1E2B462E7864
:105470004D1E29462E701500A2F10102F5D108E05B
:1054800003E013F8015B01F8015B1500A2F10102D2
:10549000F7D170BDF0B5034600201C460D4608E06C
:1054A00026782F78F61B300000D004E0641C6D1CB9
:1054B000521E002AF4D800BFF0BD01460A4600E0A3
:1054C000521C10780028FBD1501A7047F0B50646E0
:1054D0000F463846FFF7F1FF05460DB93046F0BDDF
:1054E0003046FFF7EAFF044609E0641E2A463946C3
:1054F0003046FFF7CFFF08B93046F0E7761CAC42E4
:10550000F3DA0020EBE730B503460C4600BF13F892
:10551000011B14F8012B412902DB5A2900DC203140
:10552000412A02DB5A2A00DC2032914201D10029B3
:10553000EDD1881A30BD70B50346A2B118460C46AD
:1055400000BF14F8016B00F8016B3EB902E00025C2
:1055500000F8015B551E2A00F9D102E0551E2A0011
:10556000EFD100BF00BF184670BD30B50346002024
:105570000BE011F8015B1C78641B64B2200002D1BF
:1055800013F8015B05B902E0521E002AF1D100BFF9
:1055900030BD024601E0521C491C107818B1107849
:1055A0000B789842F7D010780B78C01A70470246F3
:1055B0000B46114600E0491C087810B1881A984241
:1055C000F9D3881A704770B504462046FFF775FF77
:1055D000451C284600F08AFC06460EB9002070BD26
:1055E0002A4621463046FFF7F8FE3046F7E7704777
:1055F0002DE9F04F85B00D469C46DDE90F740E9BFA
:1056000014F0400F02D0DFF8148101E0DFF81081C0
:10561000CDF8008014F0100F01D024F0010414F034
:10562000010F02D04FF0300801E04FF02008C246D1
:10563000002614F0020F0DD0002A02DA2D26524265
:1056400008E014F0040F01D02B2603E014F0080F3B
:1056500000D02026002142B94FF0300B8846491C6B
:105660000DF1040909F808B01DE01AE0E146B9F1AE
:105670000A0F08D14FF00A0BB2FBFBFE0BFB1E28F2
:10568000B2FBFBF202E002F00F08120900BFDDF8E6
:10569000009019F808B08846491C0DF1040909F872
:1056A00008B0002AE2D1B94200DD0F46DB1B14F03E
:1056B000110F10D116B1002B00DD5B1E06E0A842D1
:1056C00003D84FF0200880F80080401CB3F1000898
:1056D000A3F10103F3DC26B1A84201D806705B1EDA
:1056E000401C14F0100F0AD104E0A84201D880F841
:1056F00000A0401CB3F10008A3F10103F5DC06E0B3
:10570000A84203D84FF0300880F80080401CB8460B
:105710007F1E8845F4DC0EE0940000201E8F0008F8
:105720000D8F0008A84205D80DF1040818F8018073
:1057300080F80080401CB1F10008A1F10101F1DC0A
:1057400006E0A84203D84FF0200880F80080401CF3
:10575000B3F10008A3F10103F3DC05B0BDE8F08F5D
:105760000146002009E00B685A1C0A601A7800EB19
:10577000800302EB4302A2F130000A681278303A4B
:105780000A2AF0D370472DE9FF4F89B0804644467E
:105790000A984044461E464504D24FF0FF36A6EB19
:1057A00008000A906FE10B980078252806D0B442D3
:1057B00002D80B9800782070641C61E1002526E077
:1057C0000B98401C0B900B9800782D2802D145F0C7
:1057D00010051CE00B9800782B2802D145F0040539
:1057E00015E00B980078202802D145F008050EE05E
:1057F0000B980078232802D145F0200507E00B988C
:105800000078302802D145F0010500E000E0D7E73C
:1058100000BF4FF0FF370B98007830380A2804D2C9
:105820000BA8FFF79DFF07460EE00B9800782A288B
:105830000AD10B98401C0B900C9880C80C90002F3C
:1058400002DA7F4245F010054FF0FF390B980078DF
:105850002E281CD10B98401C0B900B9800783038E8
:105860000A2804D20BA8FFF77BFF81460AE00B98B9
:1058700000782A2806D10B98401C0B900C9850F801
:10588000049B0C90B9F1000F01DA4FF000090020E1
:1058900004900B980078682803D00B9800786C2847
:1058A00005D10B98007804900B98401C0B900A20AF
:1058B00005900B9800786F2875D00CDC632813D006
:1058C00004DC252870D058286FD18DE064286DD075
:1058D0006928F9D18FE070286AD0732825D07528FF
:1058E00078D07828F0D182E015F0100F08D104E0CC
:1058F000B44201D820202070641C781E071EF7DCFB
:105900000C9810F8041B0C90C8B20790B44201D850
:1059100007982070641C04E0B44201D82020207055
:10592000641C781E071EF7DCAAE00C98006806903D
:105930000C98001D0C90069808B9D9A006900698FE
:10594000FFF7BBFD8346B9F1000F02DDCB4500DD5B
:10595000CB4615F0100F09D104E0B44201D8202045
:105960002070641C38467F1E5845F6DC00200890E5
:105970000BE0B44202D8069800782070641C0698A8
:10598000401C06900898401C089008985845F0DB89
:1059900004E0B44201D820202070641C38467F1EE9
:1059A0005845F6DC6CE01CE015E028E022E0FFE75B
:1059B000781C02D1082745F00105CDE90079029550
:1059C0000C9804C8102331460C902046FFF710FEB7
:1059D000044655E012E0B44201D825202070641C32
:1059E0004EE0082005901DE045F0400500BF102066
:1059F000059017E000BF45F0020500BF12E0B44279
:105A000001D825202070641C0B98007830B1B44276
:105A100002D80B9800782070641C02E00B98401E9E
:105A20000B902DE000BF04986C2807D10C9850F81B
:105A300004AB0C9015F0020F17D016E004986828FC
:105A40000BD10C9830F8041B1FFA81FA0C9015F05A
:105A5000020F0AD00FFA8AFA07E00C9850F804AB4C
:105A60000C9015F0020F00D000BFCDE9007902952F
:105A7000524631462046059BFFF7BAFD044600BF5B
:105A80000B98401C0B900B98007800287FF48BAE8D
:105A9000B44201D8207001E000203070A4EB08006F
:105AA0000DB0BDE8F08F0FB438B505A800907F2188
:105AB0007D48009B049AFFF766FE04467F2C00D9C0
:105AC0007F247A48006818B97748FFF790FD15E001
:105AD00076480068058B75480068008B40F04000F0
